:040000008EEF1DF072
:08000800046ED8CF05F0E0CF33
:1000100006F00001E9CF0CF0EACF07F0E1CF08F0DD
:10002000E2CF09F0D9CF0AF0DACF0BF0F3CF12F01C
:10003000F4CF13F0FACF14F000C00EF001C00FF0AF
:1000400002C010F003C011F0F2AA2AEF00F0F2B4DF
:1000500048EF05F09DAA30EF00F09EBA09EF01F0DD
:100060000EC000F00FC001F010C002F011C003F08C
:100070000CC0E9FF07C0EAFF078E08C0E1FF09C016
:10008000E2FF0AC0D9FF0BC0DAFF12C0F3FF13C0B2
:10009000F4FF14C0FAFF045006C0E0FF05C0D8FF0B
:1000A0001000F2CF0DF0F29EF76ABC0FF66E000E54
:1000B000F7220900F5500DBEF28E1200280C010641
:1000C000F76AD00FF66E000EF7220900F550120005
:1000D000766163696F00F76AE60FF66E000EF7222D
:1000E0000900F5501200656A65637574616E646F8E
:1000F0000000F76A020FF66E010EF7220900F550B4
:1001000012006361726761646F00F76A1A0FF66E1E
:10011000010EF7220900F55012006E6F2068617918
:100120002070726F6365736F7300F76A3A0FF66E33
:10013000010EF7220900F5501200736F6C6F2065F5
:100140006C2070726F6365736F203100F76A5C0F0B
:10015000F66E010EF7220900F550120070726F63FF
:1001600065736F732031207920320000F76A7C0FAD
:10017000F66E010EF7220900F550120070726F63DF
:1001800065736F732031207920330000F76A9C0F6C
:10019000F66E010EF7220900F5501200736F6C6FB6
:1001A00020656C2070726F6365736F203200F76A90
:1001B000BE0FF66E010EF7220900F5501200736FA4
:1001C0006C6F20656C2070726F6365736F203300F5
:1001D000F76AE00FF66E010EF7220900F5501200E3
:1001E00070726F6365736F73203220792033000063
:1001F000F76A000FF66E020EF7220900F5501200A2
:1002000070726F6365736F7320312C3220792033E5
:1002100000009EAAFED7AECF17F0010E186E175041
:10022000760802E1010E436E1750700802E1010EDC
:10023000446E1750730802E1010E456E9E9A30EF2E
:1002400000F0EA6AA60EE96EEF500DE0060E016EB0
:10025000006A002EFED7012EFBD77B0E006E002E0B
:10026000FED7EF2EF3D7000CA451A603F3CF01F075
:10027000F4CF00F0A703F3500026A551A603F350D6
:100280000020026E000CA353D8A48CD0A56B19C01B
:10029000A4F06AC0A7F069C0A6F0E6DF02C0A5F02E
:1002A00001C0A4F0A45312E1A55310E1EA6A1F0EA5
:1002B000E96EF2CFA4F0F29E000E02DF0A00090000
:1002C000F550EE6E0009FBE1A4BFF28E476A466A64
:1002D0004C6AA56B19C0A4F06AC0A7F069C0A6F06B
:1002E000C3DF02C0A5F001C0A4F0A45302E1A553EE
:1002F00031E0A56B19C0A4F06AC0A7F069C0A6F0F0
:10030000B3DF02C0A5F001C0A4F00250645C22E398
:1003100003E16350A45D1EE2EA6A1F0EE96EF2CFAC
:10032000A4F0F29E000ED7DE0A000900F550EE6E32
:100330000009FBE1A4BFF28EA56B19C0A4F06AC04E
:10034000A7F069C0A6F090DF02C047F001C046F0F8
:10035000010E4C6EA56B19C0A4F06AC0A7F069C06D
:10036000A6F082DF02C0A5F001C0A4F06450025CD8
:1003700019E303E16350A45D15E3EA6A1F0EE96E19
:10038000F2CFA4F0F29E000EB4DE0A000900F55090
:10039000EE6E0009FBE1A4BFF28E64C047F063C0BB
:1003A00046F04C6AA32D8CD0A56B1AC0A4F06AC08D
:1003B000A7F069C0A6F058DF02C0A5F001C0A4F004
:1003C000A45312E1A55310E1EA6A2B0EE96EF2CFB5
:1003D000A4F0F29E000E74DE0A000900F550EE6EE5
:1003E0000009FBE1A4BFF28E496A486A4D6AA56B19
:1003F0001AC0A4F06AC0A7F069C0A6F035DF02C039
:10040000A5F001C0A4F0A45302E1A55331E0A56B0F
:100410001AC0A4F06AC0A7F069C0A6F025DF02C028
:10042000A5F001C0A4F00250665C22E303E1655030
:10043000A45D1EE2EA6A2B0EE96EF2CFA4F0F29EF2
:10044000000E49DE0A000900F550EE6E0009FBE1DE
:10045000A4BFF28EA56B1AC0A4F06AC0A7F069C051
:10046000A6F002DF02C049F001C048F0010E4D6E57
:10047000A56B1AC0A4F06AC0A7F069C0A6F0F4DEAC
:1004800002C0A5F001C0A4F06650025C19E303E1CC
:100490006550A45D15E3EA6A2B0EE96EF2CFA4F075
:1004A000F29E000E26DE0A000900F550EE6E0009ED
:1004B000FBE1A4BFF28E66C049F065C048F04D6A0A
:1004C000A3510208D8A48CD0A56B1BC0A4F06AC0AD
:1004D000A7F069C0A6F0C8DE02C0A5F001C0A4F074
:1004E000A45312E1A55310E1EA6A370EE96EF2CF88
:1004F000A4F0F29E000EE4DD0A000900F550EE6E55
:100500000009FBE1A4BFF28E4B6A4A6A4E6AA56BF2
:100510001BC0A4F06AC0A7F069C0A6F0A5DE02C0A7
:10052000A5F001C0A4F0A45302E1A55331E0A56BEE
:100530001BC0A4F06AC0A7F069C0A6F095DE02C097
:10054000A5F001C0A4F00250685C22E303E167500B
:10055000A45D1EE2EA6A370EE96EF2CFA4F0F29EC5
:10056000000EB9DD0A000900F550EE6E0009FBE14E
:10057000A4BFF28EA56B1BC0A4F06AC0A7F069C02F
:10058000A6F072DE02C04BF001C04AF0010E4E6EC2
:10059000A56B1BC0A4F06AC0A7F069C0A6F064DE1A
:1005A00002C0A5F001C0A4F06850025C19E303E1A9
:1005B0006750A45D15E3EA6A370EE96EF2CFA4F046
:1005C000F29E000E96DD0A000900F550EE6E00095D
:1005D000FBE1A4BFF28E68C04BF067C04AF04E6AE0
:1005E000000C0900F5520DE0F6CFA3F0F7CFA4F010
:1005F000F5509EA8FED7AD6EA3C0F6FFA4C0F7FFCE
:10060000F0D7000CA651016AA55D03E2A5C000F079
:100610000CD0006A080EA76FA5370036A651005C03
:10062000D8B0006E0136A72FF7D7000C0150A3C039
:10063000A5F0640EA66FE6DF00C0A3F00150300EF7
:1006400007E1A4A30DD0A4B70BD0A4B9200E03D00A
:10065000A497A499A481012601509EA8FED7AD6E4F
:10066000A3C0A5F00A0EA66FCDDF00C0A3F0015015
:10067000300E06E1A4B709D0A4A107D0A4B9200E7A
:10068000012601509EA8FED7AD6E300EA327A351C0
:100690009EA8FED7AD6E000C0900F6CFA4F0F7CFF0
:1006A000A5F0F5509EA8FED7AD6EA4C0F6FFA5C07C
:1006B000F7FFA32FF1D7000CEACFABF0E9CFAAF0F8
:1006C000A439F009A66FA627E20FA76F320FA96F12
:1006D000A4510F0BA727A727A927E90FA86FA827C1
:1006E000A827A3390F0BA827A927A837A937A91F1F
:1006F000A937A3510F0BA927A637070EA56F0A0E1E
:10070000A807A927FDE3A707A827FDE3A607A727B2
:10071000FDE3A507A627FDE3EA6AA50EE96E070E2D
:10072000AA15AA9DE926A90EE95CD8B4AA8DEF50B6
:10073000006E08E1AABD06D0AAB90CD0AAB702D0B3
:10074000200E03D0AA87AA99300E002600509EA83A
:10075000FED7AD6EEE50AAADE6D7000CEF5210E01A
:10076000EACFA4F0E9CFA3F0EF509EA8FED7AD6E7C
:10077000A4C0EAFFA3C0E9FFE92AD8B4EA2AEED769
:10078000000CA35314E1A45312E1A55310E1EA6A4B
:100790004F0EE96EF2CFA6F0F29E000EB6DC0A0014
:1007A0000900F550EE6E0009FBE1A6BFF28EA32D05
:1007B00014D0A45312E1A55310E1EA6A4F0EE96E7A
:1007C000F2CFA6F0F29E000EB0DC0A000900F55050
:1007D000EE6E0009FBE1A6BFF28EA32D14D0A42D6E
:1007E00012D0A55310E1EA6A4F0EE96EF2CFA6F0DF
:1007F000F29E000EABDC0A000900F550EE6E000917
:10080000FBE1A6BFF28EA32D14D0A45312E1A52DB7
:1008100010D0EA6A4F0EE96EF2CFA6F0F29E000EFB
:10082000A5DC0A000900F550EE6E0009FBE1A6BF49
:10083000F28EA35314E1A42D12D0A55310E1EA6A5D
:100840004F0EE96EF2CFA6F0F29E000E9FDC0A007A
:100850000900F550EE6E0009FBE1A6BFF28EA3532E
:1008600014E1A45312E1A52D10D0EA6A4F0EE96EEF
:10087000F2CFA6F0F29E000E9ADC0A000900F550B5
:10088000EE6E0009FBE1A6BFF28EA35314E1A42D86
:1008900012D0A52D10D0EA6A4F0EE96EF2CFA6F065
:1008A000F29E000E95DC0A000900F550EE6E00097C
:1008B000FBE1A6BFF28EA32D14D0A42D12D0A52D3E
:1008C00010D0EA6A4F0EE96EF2CFA6F0F29E000E4B
:1008D0008FDC0A000900F550EE6E0009FBE1A6BFAF
:1008E000F28E64EF06F0AE6B9588000E83B8010EB1
:1008F000AE13958A000E83BA010E006ED8900036B2
:100900000050AE13958C000E83BC010E006E0036B5
:100910000036FC0E00160050AE13958E000E83BEFE
:10092000010E006E003600360036F80E001600503C
:10093000AE13AEC001F0000C9588958A958C958E0B
:100940008C82959200008C8495940000CCDF01C0CD
:10095000ADF08C94959400008C84959400D000D0D8
:100960000000C1DF01C0ACF08C9495949598959AE5
:10097000959C959EAD39006EF00E00160050AC119E
:10098000016E000CADB102D08C9801D08C88959886
:10099000ADB302D08C9A01D08C8A959AADB502D0B5
:1009A0008C9C01D08C8C959CADB702D08C9E01D0D4
:1009B0008C8E959E00008C849594030E006E002E04
:1009C000FED78C949594000C8C909590B5DF01C067
:1009D000ACF001BEFBD7AA5302E18C9001D08C8011
:1009E000959000008C92959200008C949594AB3970
:1009F000AC6F0F0EAC17ACC0ADF0C4DFAB510F0B3A
:100A0000AC6FAD6FBFDF000CA72D01D003D0400E3F
:100A1000A86F01D0A86B010EA65DA827A851800978
:100A2000A96FAA6BAB6FD0DF000CA5510C0A05E0D3
:100A3000060A0CE0020A10E014D0AA6B010EAB6F9C
:100A4000C3DF020EA66F21EC01F011D0010EA66FDC
:100A5000020EA76FD9DF0BD0AA6B100EAB6FB4DFFD
:100A600006D0010EAA6FA5C0ABF0AEDF00D0000C1F
:100A70000900F5520CE0F6CFA3F0F7CFA4F0F5CFC4
:100A8000A5F0D3DFA3C0F6FFA4C0F7FFF1D7000C99
:100A9000040E695CA36F000E6A58A46FA56FA52BA6
:100AA000A507D8B405D0FF0EA66F21EC01F0F8D74A
:100AB000A3C0A6F021EC01F0817C8170175076086C
:100AC000D8A40FD1432C0DD16DC0A3F043EC01F09D
:100AD00073C0A3F043EC01F079C0A3F043EC01F044
:100AE00047C072F046C071F049C078F048C077F056
:100AF0004BC07EF04AC07DF048504624A36F495059
:100B00004720A46F4A50A3256B6E4B50A4216C6EF6
:100B1000360EF66E0D0EF76E64DD0D0E9EA8FED736
:100B2000AD6E0A0E9EA8FED7AD6E440EF66E0D0E8B
:100B3000F76E57DD0D0E9EA8FED7AD6E0A0E9EA86D
:100B4000FED7AD6E6DC0A3F0180EA46F6FDD770EEB
:100B5000F66E0D0EF76E0B0EA36F9EDD100EE96E96
:100B6000A46B640EA36FA8DD850EF66E0D0EF76EF6
:100B70000C0EA36F91DD100EE96E72C0A4F071C06F
:100B8000A3F09ADD940EF66E0D0EF76E0C0EA36FA9
:100B900083DDEA6A1F0EE96EE1DD0D0E9EA8FED729
:100BA000AD6E0A0E9EA8FED7AD6E73C0A3F0180EF0
:100BB000A46F3CDDA50EF66E0D0EF76E0B0EA36F47
:100BC0006BDD100EE96EA46BC80EA36F75DDB30E5E
:100BD000F66E0D0EF76E0C0EA36F5EDD100EE96E55
:100BE00078C0A4F077C0A3F067DDC20EF66E0D0EDC
:100BF000F76E0C0EA36F50DDEA6A2B0EE96EAEDDC8
:100C00000D0E9EA8FED7AD6E0A0E9EA8FED7AD6E45
:100C100079C0A3F0180EA46F09DDD30EF66E0D0E89
:100C2000F76E0B0EA36F38DD100EE96E010EA46F88
:100C30002C0EA36F41DDE10EF66E0D0EF76E0C0E5D
:100C4000A36F2ADD100EE96E7EC0A4F07DC0A3F074
:100C500033DDF00EF66E0D0EF76E0C0EA36F1CDD7D
:100C6000EA6A370EE96E7ADD0D0E9EA8FED7AD6EEC
:100C70000A0E9EA8FED7AD6EFE0EF66E0D0EF76E36
:100C80000D0EA36F09DD100EE96E6CC0A4F06BC0F1
:100C9000A3F012DD200E9EA8FED7AD6E200E9EA8FA
:100CA000FED7AD6E100EF66E0E0EF76E9ADC4CC0CF
:100CB0007FF04DC080F04EC081F07FC0A3F080C0B7
:100CC000A4F081C0A5F05DD5EA6A4F0EE96E46DD5D
:100CD0000D0E9EA8FED7AD6E0A0E9EA8FED7AD6E75
:100CE000436A1750700803E1442C01D0446A17503E
:100CF00073081BE1452C19D0240EF66E0E0EF76E0C
:100D0000B7DE260EF66E0E0EF76EB2DE360EF66EFD
:100D10000E0EF76E66DC0D0E9EA8FED7AD6E0A0EA7
:100D20009EA8FED7AD6E818A456AD76A010ED66E3F
:100D3000F29430EF00F07665722070726F63657325
:100D40006F730000696420202020206469722D697F
:100D50006E6963696F20202020202020207469653F
:100D60006D706F202020202020202020657374616A
:100D7000646F0000253175202020202020202020B5
:100D80002020254C752020202020202020202020DD
:100D900020254C75202020202020202020202020CD
:100DA0000000253175202020202020202020202018
:100DB000254C7520202020202020202020202025A8
:100DC0004C752020202020202020202020200000E2
:100DD0002531752020202020202020202020254C77
:100DE00075202020202020202020202020254C7528
:100DF00020202020202020202020202000006163AF
:100E0000756D756C61646F72203D20254C75000016
:100E1000202D2D2D2D202076657220636F6C612092
:100E20003A2020000C00736973742E6F7065722E67
:100E30002058414B000073697374656D61206F70B9
:100E40006572617469766F2058414B000C007072B6
:100E50006F6365736F20310070726F6365736F200D
:100E600031000C0070726F6365736F203200707216
:100E70006F6365736F2032000C0070726F6365736F
:100E80006F20330070726F6365736F203300686F7B
:100E90006C6100000C00636F6D70726162616E6462
:100EA0006F0070726F6365736F2E2E2E00000C0042
:100EB0009598959A959C959E9594959095928C90E1
:100EC00095908C9295928C949594166AF2BE168E9B
:100ED000F29E0F0EA66F21EC01F016BEF28E010EEF
:100EE000966F9651030815E3166AF2BE168EF29EAF
:100EF000030EAD6F47DD16BEF28E166AF2BE168E79
:100F0000F29E050EA66F21EC01F016BEF28E962B16
:100F1000E8D7166AF2BE168EF29E020EAD6F32DD73
:100F200016BEF28E966B9651030815E3036A96512E
:100F3000F2CF97F0F29E51EC00F097BFF28E976FD0
:100F4000166AF2BE168EF29EAA6BAB6F3DDD16BE20
:100F5000F28E962BE8D7BEEF1DF04C0EF66E0E0EFD
:100F6000F76E166AF2BE168EF29E82DD16BEF28E05
:100F70004E0EF66E0E0EF76E166AF2BE168EF29ECC
:100F800077DD16BEF28E580EF66E0E0EF76E166AEE
:100F9000F2BE168EF29EF1EC02F016BEF28E0D0E2F
:100FA0009EA8FED7AD6E0A0E9EA8FED7AD6E8182BA
:100FB000000C620EF66E0E0EF76E166AF2BE168EFC
:100FC000F29E56DD16BEF28E640EF66E0E0EF76EB3
:100FD000166AF2BE168EF29E4BDD16BEF28E6E0EB5
:100FE000F66E0E0EF76E166AF2BE168EF29EF1ECDB
:100FF00002F016BEF28E0D0E9EA8FED7AD6E0A0E42
:101000009EA8FED7AD6E8184000C780EF66E0E0E93
:10101000F76E166AF2BE168EF29E2ADD16BEF28EAC
:101020007A0EF66E0E0EF76E166AF2BE168EF29EEF
:101030001FDD16BEF28E840EF66E0E0EF76E166A69
:10104000F2BE168EF29EF1EC02F016BEF28E0D0E7E
:101050009EA8FED7AD6E0A0E9EA8FED7AD6E818605
:10106000000C010E196E19500A0864E319C01CF037
:10107000166AF2BE168EF29E6AC0A5F069C0A4F090
:10108000A76B19C0A6F034EC01F016BEF28E02C0B8
:1010900097F001C096F00250645C3DE303E16350B9
:1010A000965D39E281826AC096F0962B9607D8B495
:1010B0000BD0166AF2BE168EF29EFF0EA66F21ECC2
:1010C00001F016BEF28EF2D7166AF2BE168EF29EAE
:1010D00069C0A6F021EC01F016BEF28E81926AC0C2
:1010E00096F0962B9607D8B40BD0166AF2BE168EE1
:1010F000F29EFF0EA66F21EC01F016BEF28EF2D723
:10110000166AF2BE168EF29E69C0A6F021EC01F0BE
:1011100016BEF28E01D021DF1750320801E10AD04D
:101120001750330801E106D01750610801E102D0E1
:10113000192A99D717503208D8A4E3D1010E1A6E94
:101140001A501008D8A0BCD01AC01DF0166AF2BE02
:10115000168EF29E6AC0A5F069C0A4F0A76B19C0F4
:10116000A6F034EC01F016BEF28E02C097F001C07A
:1011700096F00250645C3FE303E19651635C3BE30D
:10118000818481826AC096F0962B9607D8B40BD0E2
:10119000166AF2BE168EF29EFF0EA66F21EC01F0CB
:1011A00016BEF28EF2D7166AF2BE168EF29E69C095
:1011B000A6F021EC01F016BEF28E819281946AC0F5
:1011C00096F0962B9607D8B40BD0166AF2BE168E00
:1011D000F29EFF0EA66F21EC01F016BEF28EF2D742
:1011E000166AF2BE168EF29E69C0A6F021EC01F0DE
:1011F00016BEF28E52D0166AF2BE168EF29E6AC0EB
:10120000A5F069C0A4F0A76B1AC0A6F034EC01F0F9
:1012100016BEF28E02C097F001C096F00250665CD6
:101220003CE303E16550965D38E281846AC096F044
:10123000962B9607D8B40BD0166AF2BE168EF29E85
:10124000FF0EA66F21EC01F016BEF28EF2D7166AE1
:10125000F2BE168EF29E69C0A6F021EC01F016BE19
:10126000F28E81946AC096F0962B9607D8B40BD074
:10127000166AF2BE168EF29EFF0EA66F21EC01F0EA
:1012800016BEF28EF2D7166AF2BE168EF29E69C0B4
:10129000A6F021EC01F016BEF28E19500A0805E105
:1012A0001C50090802E359DE04D01A50100801E16D
:1012B00080DE1750330801E103D0192A1A2A40D7DB
:1012C00017503308D8A41CD1010E1B6E1B501408F4
:1012D000D8A016D11BC01EF0166AF2BE168EF29E62
:1012E0006AC0A5F069C0A4F0A76B19C0A6F034ECE1
:1012F00001F016BEF28E02C097F001C096F00250C7
:10130000645C41E303E16350965D3DE28186818444
:1013100081826AC096F0962B9607D8B40BD0166AD5
:10132000F2BE168EF29EFF0EA66F21EC01F016BEE5
:10133000F28EF2D7166AF2BE168EF29E69C0A6F041
:1013400021EC01F016BEF28E8196819281946AC0E2
:1013500096F0962B9607D8B40BD0166AF2BE168E6E
:10136000F29EFF0EA66F21EC01F016BEF28EF2D7B0
:10137000166AF2BE168EF29E69C0A6F021EC01F04C
:1013800016BEF28EA7D0166AF2BE168EF29E6AC004
:10139000A5F069C0A4F0A76B1AC0A6F034EC01F068
:1013A00016BEF28E02C097F001C096F00250665C45
:1013B0003FE303E16550965D3BE2818681846AC02C
:1013C00096F0962B9607D8B40BD0166AF2BE168EFE
:1013D000F29EFF0EA66F21EC01F016BEF28EF2D740
:1013E000166AF2BE168EF29E69C0A6F021EC01F0DC
:1013F00016BEF28E819681946AC096F0962B96075F
:10140000D8B40BD0166AF2BE168EF29EFF0EA66FEF
:1014100021EC01F016BEF28EF2D7166AF2BE168EDD
:10142000F29E69C0A6F021EC01F016BEF28E52D0F9
:10143000166AF2BE168EF29E6AC0A5F069C0A4F0CC
:10144000A76B1BC0A6F034EC01F016BEF28E02C0F2
:1014500097F001C096F00250685C3CE303E16750EE
:10146000965D38E281866AC096F0962B9607D8B4CE
:101470000BD0166AF2BE168EF29EFF0EA66F21ECFE
:1014800001F016BEF28EF2D7166AF2BE168EF29EEA
:1014900069C0A6F021EC01F016BEF28E81966AC0FA
:1014A00096F0962B9607D8B40BD0166AF2BE168E1D
:1014B000F29EFF0EA66F21EC01F016BEF28EF2D75F
:1014C000166AF2BE168EF29E69C0A6F021EC01F0FB
:1014D00016BEF28E19500A0804E11C50090801E3F7
:1014E0003CDD1A50100804E11D500F0801E361DDD6
:1014F0001B50140801E189DD192A1A2A1B2AE6D695
:1015000009D317503308D8A405D3010E1B6E1B5006
:101510001408D8A0BBD01BC01EF0166AF2BE168EEF
:10152000F29E6AC0A5F069C0A4F0A76B19C0A6F02E
:1015300034EC01F016BEF28E02C097F001C096F0B6
:101540000250645C3FE303E16350965D3BE28186B9
:1015500081826AC096F0962B9607D8B40BD0166A93
:10156000F2BE168EF29EFF0EA66F21EC01F016BEA3
:10157000F28EF2D7166AF2BE168EF29E69C0A6F0FF
:1015800021EC01F016BEF28E819681926AC096F02F
:10159000962B9607D8B40BD0166AF2BE168EF29E22
:1015A000FF0EA66F21EC01F016BEF28EF2D7166A7E
:1015B000F2BE168EF29E69C0A6F021EC01F016BEB6
:1015C000F28E52D0166AF2BE168EF29E6AC0A5F056
:1015D00069C0A4F0A76B1BC0A6F034EC01F016BEE6
:1015E000F28E02C097F001C096F00250685C3CE3B6
:1015F00003E19651675C38E381866AC096F0962BCA
:101600009607D8B40BD0166AF2BE168EF29EFF0E65
:10161000A66F21EC01F016BEF28EF2D7166AF2BE6A
:10162000168EF29E69C0A6F021EC01F016BEF28E75
:1016300081966AC096F0962B9607D8B40BD0166A9E
:10164000F2BE168EF29EFF0EA66F21EC01F016BEC2
:10165000F28EF2D7166AF2BE168EF29E69C0A6F01E
:1016600021EC01F016BEF28E19500A0804E11C505C
:10167000090801E372DC1B50140801E1C6DC1750B5
:10168000320801E103D0192A1B2A41D7175032082A
:10169000D8A440D21E500408D8A01DD11EC01BF0F3
:1016A0001B501408D8A016D11BC01EF0166AF2BE3B
:1016B000168EF29E6AC0A5F069C0A4F0A76B19C08F
:1016C000A6F034EC01F016BEF28E02C097F001C015
:1016D00096F00250645C41E303E19651635C3DE3A4
:1016E0008184818681826AC096F0962B9607D8B451
:1016F0000BD0166AF2BE168EF29EFF0EA66F21EC7C
:1017000001F016BEF28EF2D7166AF2BE168EF29E67
:1017100069C0A6F021EC01F016BEF28E819481968C
:1017200081926AC096F0962B9607D8B40BD0166AB1
:10173000F2BE168EF29EFF0EA66F21EC01F016BED1
:10174000F28EF2D7166AF2BE168EF29E69C0A6F02D
:1017500021EC01F016BEF28EA7D0166AF2BE168EEC
:10176000F29E6AC0A5F069C0A4F0A76B1AC0A6F0EB
:1017700034EC01F016BEF28E02C097F001C096F074
:101780000250665C3FE303E19651655C3BE3818474
:1017900081866AC096F0962B9607D8B40BD0166A4D
:1017A000F2BE168EF29EFF0EA66F21EC01F016BE61
:1017B000F28EF2D7166AF2BE168EF29E69C0A6F0BD
:1017C00021EC01F016BEF28E819481966AC096F0EB
:1017D000962B9607D8B40BD0166AF2BE168EF29EE0
:1017E000FF0EA66F21EC01F016BEF28EF2D7166A3C
:1017F000F2BE168EF29E69C0A6F021EC01F016BE74
:10180000F28E52D0166AF2BE168EF29E6AC0A5F013
:1018100069C0A4F0A76B1BC0A6F034EC01F016BEA3
:10182000F28E02C097F001C096F00250685C3CE373
:1018300003E19651675C38E381866AC096F0962B87
:101840009607D8B40BD0166AF2BE168EF29EFF0E23
:10185000A66F21EC01F016BEF28EF2D7166AF2BE28
:10186000168EF29E69C0A6F021EC01F016BEF28E33
:1018700081966AC096F0962B9607D8B40BD0166A5C
:10188000F2BE168EF29EFF0EA66F21EC01F016BE80
:10189000F28EF2D7166AF2BE168EF29E69C0A6F0DC
:1018A00021EC01F016BEF28E19500A0805E11C5019
:1018B000090802E3ADEC07F01B50140802E105EC47
:1018C00008F01A50100802E1D9EC07F0192A1A2A78
:1018D0001B2AE6D61FD1010E1A6E1A501008D8A086
:1018E00019D11AC01DF0166AF2BE168EF29E6AC099
:1018F000A5F069C0A4F0A76B19C0A6F034EC01F004
:1019000016BEF28E02C097F001C096F00250645CE1
:1019100041E303E19651635C3DE3818481868182EA
:101920006AC096F0962B9607D8B40BD0166AF2BE12
:10193000168EF29EFF0EA66F21EC01F016BEF28EFF
:10194000F2D7166AF2BE168EF29E69C0A6F021EC9E
:1019500001F016BEF28E8194819681926AC096F053
:10196000962B9607D8B40BD0166AF2BE168EF29E4E
:10197000FF0EA66F21EC01F016BEF28EF2D7166AAA
:10198000F2BE168EF29E69C0A6F021EC01F016BEE2
:10199000F28EA7D0166AF2BE168EF29E6AC0A5F02D
:1019A00069C0A4F0A76B1BC0A6F034EC01F016BE12
:1019B000F28E02C097F001C096F00250685C3FE3DF
:1019C00003E19651675C3BE3818481866AC096F0AF
:1019D000962B9607D8B40BD0166AF2BE168EF29EDE
:1019E000FF0EA66F21EC01F016BEF28EF2D7166A3A
:1019F000F2BE168EF29E69C0A6F021EC01F016BE72
:101A0000F28E819481966AC096F0962B9607D8B490
:101A10000BD0166AF2BE168EF29EFF0EA66F21EC58
:101A200001F016BEF28EF2D7166AF2BE168EF29E44
:101A300069C0A6F021EC01F016BEF28E52D0166AF3
:101A4000F2BE168EF29E6AC0A5F069C0A4F0A76B24
:101A50001AC0A6F034EC01F016BEF28E02C097F068
:101A600001C096F00250665C3CE303E19651655C70
:101A700038E381846AC096F0962B9607D8B40BD0D1
:101A8000166AF2BE168EF29EFF0EA66F21EC01F0D2
:101A900016BEF28EF2D7166AF2BE168EF29E69C09C
:101AA000A6F021EC01F016BEF28E81946AC096F089
:101AB000962B9607D8B40BD0166AF2BE168EF29EFD
:101AC000FF0EA66F21EC01F016BEF28EF2D7166A59
:101AD000F2BE168EF29E69C0A6F021EC01F016BE91
:101AE000F28E19500A0805E11C50090802E3ADEC1A
:101AF00007F01B50140805E11E50130802E305EC23
:101B000008F01A50100802E1D9EC07F0192A1B2A34
:101B10001A2AE3D62BEF1EF0010E1A6E1A50100887
:101B200061E31AC01DF0166AF2BE168EF29E6AC0FC
:101B3000A5F069C0A4F0A76B1AC0A6F034EC01F0C0
:101B400016BEF28E02C097F001C096F00250665C9D
:101B50003DE303E16550965D39E281846AC096F009
:101B6000962B9607D8B40BD0166AF2BE168EF29E4C
:101B7000FF0EA66F21EC01F016BEF28EF2D7166AA8
:101B8000F2BE168EF29E69C0A6F021EC01F016BEE0
:101B9000F28E81946AC096F0962B9607D8B40BD03B
:101BA000166AF2BE168EF29EFF0EA66F21EC01F0B1
:101BB00016BEF28EF2D7166AF2BE168EF29E69C07B
:101BC000A6F021EC01F016BEF28E02D0D9EC07F09F
:101BD0001750310801E106D01750330801E102D057
:101BE0001A2A9CD717503108D8A409D31D500608CB
:101BF000D8A0C4D01DC01AF01A501008D8A0BDD06B
:101C00001AC01DF0166AF2BE168EF29E6AC0A5F0CA
:101C100069C0A4F0A76B19C0A6F034EC01F016BEA1
:101C2000F28E02C097F001C096F00250645C3FE370
:101C300003E19651635C3BE3818481826AC096F044
:101C4000962B9607D8B40BD0166AF2BE168EF29E6B
:101C5000FF0EA66F21EC01F016BEF28EF2D7166AC7
:101C6000F2BE168EF29E69C0A6F021EC01F016BEFF
:101C7000F28E819281946AC096F0962B9607D8B422
:101C80000BD0166AF2BE168EF29EFF0EA66F21ECE6
:101C900001F016BEF28EF2D7166AF2BE168EF29ED2
:101CA00069C0A6F021EC01F016BEF28E52D0166A81
:101CB000F2BE168EF29E6AC0A5F069C0A4F0A76BB2
:101CC0001AC0A6F034EC01F016BEF28E02C097F0F6
:101CD00001C096F00250665C3CE303E16550965DFE
:101CE00038E281846AC096F0962B9607D8B40BD060
:101CF000166AF2BE168EF29EFF0EA66F21EC01F060
:101D000016BEF28EF2D7166AF2BE168EF29E69C029
:101D1000A6F021EC01F016BEF28E81946AC096F016
:101D2000962B9607D8B40BD0166AF2BE168EF29E8A
:101D3000FF0EA66F21EC01F016BEF28EF2D7166AE6
:101D4000F2BE168EF29E69C0A6F021EC01F016BE1E
:101D5000F28E19500A0805E11C50090802E3ADECA7
:101D600007F01A50100802E1D9EC07F017503308B9
:101D700001E103D0192A1A2A3FD7C6D0010E196EE5
:101D800019500A08D8A0C0D019C01CF0166AF2BEBB
:101D9000168EF29E6AC0A5F069C0A4F0A76B1AC0A7
:101DA000A6F034EC01F016BEF28E02C097F001C02E
:101DB00096F00250665C3FE303E19651655C3BE3BD
:101DC000818481826AC096F0962B9607D8B40BD096
:101DD000166AF2BE168EF29EFF0EA66F21EC01F07F
:101DE00016BEF28EF2D7166AF2BE168EF29E69C049
:101DF000A6F021EC01F016BEF28E819281946AC0A9
:101E000096F0962B9607D8B40BD0166AF2BE168EB3
:101E1000F29EFF0EA66F21EC01F016BEF28EF2D7F5
:101E2000166AF2BE168EF29E69C0A6F021EC01F091
:101E300016BEF28E52D0166AF2BE168EF29E6AC09E
:101E4000A5F069C0A4F0A76B19C0A6F034EC01F0AE
:101E500016BEF28E02C097F001C096F00250645C8C
:101E60003CE303E16350965D38E281826AC096F0FC
:101E7000962B9607D8B40BD0166AF2BE168EF29E39
:101E8000FF0EA66F21EC01F016BEF28EF2D7166A95
:101E9000F2BE168EF29E69C0A6F021EC01F016BECD
:101EA000F28E81926AC096F0962B9607D8B40BD02A
:101EB000166AF2BE168EF29EFF0EA66F21EC01F09E
:101EC00016BEF28EF2D7166AF2BE168EF29E69C068
:101ED000A6F021EC01F016BEF28E19500A0805E1B9
:101EE0001C50090802E3ADEC07F01A50100805E198
:101EF0001D500F0802E3D9EC07F01750330801E139
:101F000003D01A2A192A3CD717503308D8A476D1FF
:101F1000010E1B6E1B501408D8A070D11BC01EF000
:101F2000166AF2BE168EF29E6AC0A5F069C0A4F0D1
:101F3000A76B19C0A6F034EC01F016BEF28E02C0F9
:101F400097F001C096F00250645CD8A097D004E1ED
:101F50006350965DD8B092D0166AF2BE168EF29E8D
:101F60006AC0A5F069C0A4F0A76B1AC0A6F034EC53
:101F700001F016BEF28E02C097F001C096F002503A
:101F8000665C41E303E19651655C3DE381848186B3
:101F900081826AC096F0962B9607D8B40BD0166A49
:101FA000F2BE168EF29EFF0EA66F21EC01F016BE59
:101FB000F28EF2D7166AF2BE168EF29E69C0A6F0B5
:101FC00021EC01F016BEF28E8194819681926AC056
:101FD00096F0962B9607D8B40BD0166AF2BE168EE2
:101FE000F29EFF0EA66F21EC01F016BEF28EF2D724
:101FF000166AF2BE168EF29E69C0A6F021EC01F0C0
:1020000016BEF28E3AD0818681826AC096F0962BF7
:102010009607D8B40BD0166AF2BE168EF29EFF0E4B
:10202000A66F21EC01F016BEF28EF2D7166AF2BE50
:10203000168EF29E69C0A6F021EC01F016BEF28E5B
:10204000819681926AC096F0962B9607D8B40BD0F1
:10205000166AF2BE168EF29EFF0EA66F21EC01F0FC
:1020600016BEF28EF2D7166AF2BE168EF29E69C0C6
:10207000A6F021EC01F016BEF28EA7D0166AF2BED1
:10208000168EF29E6AC0A5F069C0A4F0A76B1AC0B4
:10209000A6F034EC01F016BEF28E02C097F001C03B
:1020A00096F00250665C3FE303E16550965D3BE2CB
:1020B000818681846AC096F0962B9607D8B40BD09F
:1020C000166AF2BE168EF29EFF0EA66F21EC01F08C
:1020D00016BEF28EF2D7166AF2BE168EF29E69C056
:1020E000A6F021EC01F016BEF28E819681946AC0B2
:1020F00096F0962B9607D8B40BD0166AF2BE168EC1
:10210000F29EFF0EA66F21EC01F016BEF28EF2D702
:10211000166AF2BE168EF29E69C0A6F021EC01F09E
:1021200016BEF28E52D0166AF2BE168EF29E6AC0AB
:10213000A5F069C0A4F0A76B1BC0A6F034EC01F0B9
:1021400016BEF28E02C097F001C096F00250685C95
:102150003CE303E16750965D38E281866AC096F001
:10216000962B9607D8B40BD0166AF2BE168EF29E46
:10217000FF0EA66F21EC01F016BEF28EF2D7166AA2
:10218000F2BE168EF29E69C0A6F021EC01F016BEDA
:10219000F28E81966AC096F0962B9607D8B40BD033
:1021A000166AF2BE168EF29EFF0EA66F21EC01F0AB
:1021B00016BEF28EF2D7166AF2BE168EF29E69C075
:1021C000A6F021EC01F016BEF28E19500A0805E1C6
:1021D0001C50090802E3ADEC07F01A50100805E1A5
:1021E0001D500F0802E3D9EC07F01B50140802E160
:1021F00005EC08F0192A1A2A1B2A8CD6E4D11750AC
:102200003308D8A4E0D1010E1B6E1B501408D8A0CF
:10221000BDD01BC01EF0166AF2BE168EF29E6AC0BA
:10222000A5F069C0A4F0A76B1AC0A6F034EC01F0C9
:1022300016BEF28E02C097F001C096F00250665CA6
:102240003FE303E16550965D3BE2818681846AC08D
:1022500096F0962B9607D8B40BD0166AF2BE168E5F
:10226000F29EFF0EA66F21EC01F016BEF28EF2D7A1
:10227000166AF2BE168EF29E69C0A6F021EC01F03D
:1022800016BEF28E819681946AC096F0962B9607C0
:10229000D8B40BD0166AF2BE168EF29EFF0EA66F51
:1022A00021EC01F016BEF28EF2D7166AF2BE168E3F
:1022B000F29E69C0A6F021EC01F016BEF28E52D05B
:1022C000166AF2BE168EF29E6AC0A5F069C0A4F02E
:1022D000A76B1BC0A6F034EC01F016BEF28E02C054
:1022E00097F001C096F00250685C3CE303E1965120
:1022F000675C38E381866AC096F0962B9607D8B45F
:102300000BD0166AF2BE168EF29EFF0EA66F21EC5F
:1023100001F016BEF28EF2D7166AF2BE168EF29E4B
:1023200069C0A6F021EC01F016BEF28E81966AC05B
:1023300096F0962B9607D8B40BD0166AF2BE168E7E
:10234000F29EFF0EA66F21EC01F016BEF28EF2D7C0
:10235000166AF2BE168EF29E69C0A6F021EC01F05C
:1023600016BEF28E1A50100805E11D500F0802E348
:10237000D9EC07F01B50140802E105EC08F01750E7
:10238000310801E103D01A2A1B2A3FD71750310820
:10239000D8A419D11EC01BF01B501408D8A013D10B
:1023A0001BC01EF0166AF2BE168EF29E6AC0A5F021
:1023B00069C0A4F0A76B19C0A6F034EC01F016BEFA
:1023C000F28E02C097F001C096F00250645C41E3C7
:1023D00003E19651635C3DE38184818681826AC01A
:1023E00096F0962B9607D8B40BD0166AF2BE168ECE
:1023F000F29EFF0EA66F21EC01F016BEF28EF2D710
:10240000166AF2BE168EF29E69C0A6F021EC01F0AB
:1024100016BEF28E8194819681926AC096F0962BB8
:102420009607D8B40BD0166AF2BE168EF29EFF0E37
:10243000A66F21EC01F016BEF28EF2D7166AF2BE3C
:10244000168EF29E69C0A6F021EC01F016BEF28E47
:10245000A7D0166AF2BE168EF29E6AC0A5F069C0B9
:10246000A4F0A76B1AC0A6F034EC01F016BEF28EF1
:1024700002C097F001C096F00250665C3FE303E1B2
:102480009651655C3BE3818481866AC096F0962B09
:102490009607D8B40BD0166AF2BE168EF29EFF0EC7
:1024A000A66F21EC01F016BEF28EF2D7166AF2BECC
:1024B000168EF29E69C0A6F021EC01F016BEF28ED7
:1024C000819481966AC096F0962B9607D8B40BD06B
:1024D000166AF2BE168EF29EFF0EA66F21EC01F078
:1024E00016BEF28EF2D7166AF2BE168EF29E69C042
:1024F000A6F021EC01F016BEF28E52D0166AF2BEA2
:10250000168EF29E6AC0A5F069C0A4F0A76B1BC02E
:10251000A6F034EC01F016BEF28E02C097F001C0B6
:1025200096F00250685C3CE303E19651675C38E347
:1025300081866AC096F0962B9607D8B40BD0166A9F
:10254000F2BE168EF29EFF0EA66F21EC01F016BEB3
:10255000F28EF2D7166AF2BE168EF29E69C0A6F00F
:1025600021EC01F016BEF28E81966AC096F0962B91
:102570009607D8B40BD0166AF2BE168EF29EFF0EE6
:10258000A66F21EC01F016BEF28EF2D7166AF2BEEB
:10259000168EF29E69C0A6F021EC01F016BEF28EF6
:1025A00019500A0802E1ADEC07F01B50140802E1D3
:1025B00005EC08F01A50100802E1D9EC07F0192ACE
:1025C0001A2A1B2AE9D637EF1EF0010E1B6E1A508D
:1025D000140861E31BC01EF0166AF2BE168EF29E4E
:1025E0006AC0A5F069C0A4F0A76B1BC0A6F034ECCC
:1025F00001F016BEF28E02C097F001C096F00250B4
:10260000685C3DE303E16750965D39E281866AC00C
:1026100096F0962B9607D8B40BD0166AF2BE168E9B
:10262000F29EFF0EA66F21EC01F016BEF28EF2D7DD
:10263000166AF2BE168EF29E69C0A6F021EC01F079
:1026400016BEF28E81966AC096F0962B9607D8B485
:102650000BD0166AF2BE168EF29EFF0EA66F21EC0C
:1026600001F016BEF28EF2D7166AF2BE168EF29EF8
:1026700069C0A6F021EC01F016BEF28E02D005EC86
:1026800008F01750310801E106D01750320801E177
:1026900002D01B2A9CD717503108D8A423EF17F07B
:1026A0001E500A08D8A0C4D01EC01BF01B5014082E
:1026B000D8A0BDD01BC01EF0166AF2BE168EF29EC8
:1026C0006AC0A5F069C0A4F0A76B19C0A6F034ECED
:1026D00001F016BEF28E02C097F001C096F00250D3
:1026E000645C3FE303E19651635C3BE38186818256
:1026F0006AC096F0962B9607D8B40BD0166AF2BE35
:10270000168EF29EFF0EA66F21EC01F016BEF28E21
:10271000F2D7166AF2BE168EF29E69C0A6F021ECC0
:1027200001F016BEF28E819281966AC096F0962BC9
:102730009607D8B40BD0166AF2BE168EF29EFF0E24
:10274000A66F21EC01F016BEF28EF2D7166AF2BE29
:10275000168EF29E69C0A6F021EC01F016BEF28E34
:1027600052D0166AF2BE168EF29E6AC0A5F069C0FB
:10277000A4F0A76B1BC0A6F034EC01F016BEF28EDD
:1027800002C097F001C096F00250685C3CE303E1A0
:102790006750965D38E281866AC096F0962B960760
:1027A000D8B40BD0166AF2BE168EF29EFF0EA66F3C
:1027B00021EC01F016BEF28EF2D7166AF2BE168E2A
:1027C000F29E69C0A6F021EC01F016BEF28E819651
:1027D0006AC096F0962B9607D8B40BD0166AF2BE54
:1027E000168EF29EFF0EA66F21EC01F016BEF28E41
:1027F000F2D7166AF2BE168EF29E69C0A6F021ECE0
:1028000001F016BEF28E19500A0805E11C500908A5
:1028100002E3ADEC07F01B50140802E105EC08F0F0
:102820001750320801E103D0192A1B2A3FD7C3D021
:10283000010E196E19500A08D8A0BDD019C01CF09D
:10284000166AF2BE168EF29E6AC0A5F069C0A4F0A8
:10285000A76B1BC0A6F034EC01F016BEF28E02C0CE
:1028600097F001C096F00250685C3FE303E1965197
:10287000675C3BE3818681826AC096F0962B96075F
:10288000D8B40BD0166AF2BE168EF29EFF0EA66F5B
:1028900021EC01F016BEF28EF2D7166AF2BE168E49
:1028A000F29E69C0A6F021EC01F016BEF28E819274
:1028B00081966AC096F0962B9607D8B40BD0166A0C
:1028C000F2BE168EF29EFF0EA66F21EC01F016BE30
:1028D000F28EF2D7166AF2BE168EF29E69C0A6F08C
:1028E00021EC01F016BEF28E52D0166AF2BE168EA0
:1028F000F29E6AC0A5F069C0A4F0A76B19C0A6F04B
:1029000034EC01F016BEF28E02C097F001C096F0D2
:102910000250645C3CE303E16350965D38E28182DF
:102920006AC096F0962B9607D8B40BD0166AF2BE02
:10293000168EF29EFF0EA66F21EC01F016BEF28EEF
:10294000F2D7166AF2BE168EF29E69C0A6F021EC8E
:1029500001F016BEF28E81926AC096F0962B960711
:10296000D8B40BD0166AF2BE168EF29EFF0EA66F7A
:1029700021EC01F016BEF28EF2D7166AF2BE168E68
:10298000F29E69C0A6F021EC01F016BEF28E19503D
:102990000A0802E1ADEC07F01B50140805E11E50D7
:1029A000130802E305EC08F01750320801E103D0E8
:1029B0001B2A192A3FD717503208D8A442D21E50DA
:1029C0000408D8A020D1010E1B6E1B501408D8A0FB
:1029D00019D11BC01EF0166AF2BE168EF29E6AC096
:1029E000A5F069C0A4F0A76B19C0A6F034EC01F003
:1029F00016BEF28E02C097F001C096F00250645CE1
:102A000041E303E16350965D3DE2818481868182EA
:102A10006AC096F0962B9607D8B40BD0166AF2BE11
:102A2000168EF29EFF0EA66F21EC01F016BEF28EFE
:102A3000F2D7166AF2BE168EF29E69C0A6F021EC9D
:102A400001F016BEF28E8194819681926AC096F052
:102A5000962B9607D8B40BD0166AF2BE168EF29E4D
:102A6000FF0EA66F21EC01F016BEF28EF2D7166AA9
:102A7000F2BE168EF29E69C0A6F021EC01F016BEE1
:102A8000F28EA7D0166AF2BE168EF29E6AC0A5F02C
:102A900069C0A4F0A76B1AC0A6F034EC01F016BE12
:102AA000F28E02C097F001C096F00250665C3FE3E0
:102AB00003E16550965D3BE2818681846AC096F0B1
:102AC000962B9607D8B40BD0166AF2BE168EF29EDD
:102AD000FF0EA66F21EC01F016BEF28EF2D7166A39
:102AE000F2BE168EF29E69C0A6F021EC01F016BE71
:102AF000F28E819681946AC096F0962B9607D8B490
:102B00000BD0166AF2BE168EF29EFF0EA66F21EC57
:102B100001F016BEF28EF2D7166AF2BE168EF29E43
:102B200069C0A6F021EC01F016BEF28E52D0166AF2
:102B3000F2BE168EF29E6AC0A5F069C0A4F0A76B23
:102B40001BC0A6F034EC01F016BEF28E02C097F066
:102B500001C096F00250685C3CE303E16750965D6B
:102B600038E281866AC096F0962B9607D8B40BD0CF
:102B7000166AF2BE168EF29EFF0EA66F21EC01F0D1
:102B800016BEF28EF2D7166AF2BE168EF29E69C09B
:102B9000A6F021EC01F016BEF28E81966AC096F086
:102BA000962B9607D8B40BD0166AF2BE168EF29EFC
:102BB000FF0EA66F21EC01F016BEF28EF2D7166A58
:102BC000F2BE168EF29E69C0A6F021EC01F016BE90
:102BD000F28E19500A0805E11C50090802E3ADEC19
:102BE00007F01A50100805E11D500F0802E3D9EC58
:102BF00007F01B50140802E105EC08F0192A1A2A04
:102C00001B2AE3D61ED1010E1A6E1A501008D8A046
:102C100018D11AC01DF0166AF2BE168EF29E6AC056
:102C2000A5F069C0A4F0A76B19C0A6F034EC01F0C0
:102C300016BEF28E02C097F001C096F00250645C9E
:102C4000D8A097D004E16350965DD8B092D0166AB0
:102C5000F2BE168EF29E6AC0A5F069C0A4F0A76B02
:102C60001BC0A6F034EC01F016BEF28E02C097F045
:102C700001C096F00250685C41E303E16750965D45
:102C80003DE28184818681826AC096F0962B960708
:102C9000D8B40BD0166AF2BE168EF29EFF0EA66F47
:102CA00021EC01F016BEF28EF2D7166AF2BE168E35
:102CB000F29E69C0A6F021EC01F016BEF28E81945E
:102CC000819681926AC096F0962B9607D8B40BD065
:102CD000166AF2BE168EF29EFF0EA66F21EC01F070
:102CE00016BEF28EF2D7166AF2BE168EF29E69C03A
:102CF000A6F021EC01F016BEF28E3AD081848182DA
:102D00006AC096F0962B9607D8B40BD0166AF2BE1E
:102D1000168EF29EFF0EA66F21EC01F016BEF28E0B
:102D2000F2D7166AF2BE168EF29E69C0A6F021ECAA
:102D300001F016BEF28E819481926AC096F0962BB5
:102D40009607D8B40BD0166AF2BE168EF29EFF0E0E
:102D5000A66F21EC01F016BEF28EF2D7166AF2BE13
:102D6000168EF29E69C0A6F021EC01F016BEF28E1E
:102D700052D0166AF2BE168EF29E6AC0A5F069C0E5
:102D8000A4F0A76B1AC0A6F034EC01F016BEF28EC8
:102D900002C097F001C096F00250665C3CE303E18C
:102DA0006550965D38E281846AC096F0962B96074E
:102DB000D8B40BD0166AF2BE168EF29EFF0EA66F26
:102DC00021EC01F016BEF28EF2D7166AF2BE168E14
:102DD000F29E69C0A6F021EC01F016BEF28E81943D
:102DE0006AC096F0962B9607D8B40BD0166AF2BE3E
:102DF000168EF29EFF0EA66F21EC01F016BEF28E2B
:102E0000F2D7166AF2BE168EF29E69C0A6F021ECC9
:102E100001F016BEF28E19500A0805E11C5009088F
:102E200002E3ADEC07F01A50100802E1D9EC07F00C
:102E30001B50140802E105EC08F0192A1B2A1A2A73
:102E4000E4D683EF1DF017503208D8A483EF1DF0AD
:102E50001E500408D8A058D3010E1B6E1B50140836
:102E6000D8A0BDD01BC01EF0166AF2BE168EF29E10
:102E70006AC0A5F069C0A4F0A76B1AC0A6F034EC34
:102E800001F016BEF28E02C097F001C096F002501B
:102E9000665C3FE303E16550965D3BE28186818499
:102EA0006AC096F0962B9607D8B40BD0166AF2BE7D
:102EB000168EF29EFF0EA66F21EC01F016BEF28E6A
:102EC000F2D7166AF2BE168EF29E69C0A6F021EC09
:102ED00001F016BEF28E819681946AC096F0962B10
:102EE0009607D8B40BD0166AF2BE168EF29EFF0E6D
:102EF000A66F21EC01F016BEF28EF2D7166AF2BE72
:102F0000168EF29E69C0A6F021EC01F016BEF28E7C
:102F100052D0166AF2BE168EF29E6AC0A5F069C043
:102F2000A4F0A76B1BC0A6F034EC01F016BEF28E25
:102F300002C097F001C096F00250685C3CE303E1E8
:102F40009651675C38E381866AC096F0962B9607A7
:102F5000D8B40BD0166AF2BE168EF29EFF0EA66F84
:102F600021EC01F016BEF28EF2D7166AF2BE168E72
:102F7000F29E69C0A6F021EC01F016BEF28E819699
:102F80006AC096F0962B9607D8B40BD0166AF2BE9C
:102F9000168EF29EFF0EA66F21EC01F016BEF28E89
:102FA000F2D7166AF2BE168EF29E69C0A6F021EC28
:102FB00001F016BEF28E1A50100805E11D500F08E0
:102FC00002E3D9EC07F01B50140802E105EC08F00D
:102FD0001750310801E103D01A2A1B2A3FD7175096
:102FE0003108D8A490D21E500A08D8A071D11EC0B2
:102FF0001BF01B501408D8A06AD11BC01EF0166A23
:10300000F2BE168EF29E6AC0A5F069C0A4F0A76B4E
:1030100019C0A6F034EC01F016BEF28E02C097F093
:1030200001C096F00250645CD8A097D004E196519C
:10303000635CD8A092D0166AF2BE168EF29E6AC069
:10304000A5F069C0A4F0A76B1AC0A6F034EC01F09B
:1030500016BEF28E02C097F001C096F00250665C78
:1030600041E303E19651655C3DE381848186818281
:103070006AC096F0962B9607D8B40BD0166AF2BEAB
:10308000168EF29EFF0EA66F21EC01F016BEF28E98
:10309000F2D7166AF2BE168EF29E69C0A6F021EC37
:1030A00001F016BEF28E8194819681926AC096F0EC
:1030B000962B9607D8B40BD0166AF2BE168EF29EE7
:1030C000FF0EA66F21EC01F016BEF28EF2D7166A43
:1030D000F2BE168EF29E69C0A6F021EC01F016BE7B
:1030E000F28E3AD0818681826AC096F0962B96073E
:1030F000D8B40BD0166AF2BE168EF29EFF0EA66FE3
:1031000021EC01F016BEF28EF2D7166AF2BE168ED0
:10311000F29E69C0A6F021EC01F016BEF28E8196F7
:1031200081926AC096F0962B9607D8B40BD0166A97
:10313000F2BE168EF29EFF0EA66F21EC01F016BEB7
:10314000F28EF2D7166AF2BE168EF29E69C0A6F013
:1031500021EC01F016BEF28EA7D0166AF2BE168ED2
:10316000F29E6AC0A5F069C0A4F0A76B1AC0A6F0D1
:1031700034EC01F016BEF28E02C097F001C096F05A
:103180000250665C3FE303E19651655C3BE381845A
:1031900081866AC096F0962B9607D8B40BD0166A33
:1031A000F2BE168EF29EFF0EA66F21EC01F016BE47
:1031B000F28EF2D7166AF2BE168EF29E69C0A6F0A3
:1031C00021EC01F016BEF28E819481966AC096F0D1
:1031D000962B9607D8B40BD0166AF2BE168EF29EC6
:1031E000FF0EA66F21EC01F016BEF28EF2D7166A22
:1031F000F2BE168EF29E69C0A6F021EC01F016BE5A
:10320000F28E52D0166AF2BE168EF29E6AC0A5F0F9
:1032100069C0A4F0A76B1BC0A6F034EC01F016BE89
:10322000F28E02C097F001C096F00250685C3CE359
:1032300003E19651675C38E381866AC096F0962B6D
:103240009607D8B40BD0166AF2BE168EF29EFF0E09
:10325000A66F21EC01F016BEF28EF2D7166AF2BE0E
:10326000168EF29E69C0A6F021EC01F016BEF28E19
:1032700081966AC096F0962B9607D8B40BD0166A42
:10328000F2BE168EF29EFF0EA66F21EC01F016BE66
:10329000F28EF2D7166AF2BE168EF29E69C0A6F0C2
:1032A00021EC01F016BEF28E19500A0802E1ADECD5
:1032B00007F01B50140802E105EC08F01A50100842
:1032C00002E1D9EC07F0192A1A2A1B2A92D61BD13F
:1032D0001CC019F019500A08D8A015D119C01CF04B
:1032E000166AF2BE168EF29E6AC0A5F069C0A4F0FE
:1032F000A76B1AC0A6F034EC01F016BEF28E02C025
:1033000097F001C096F00250665CD8A097D004E117
:103310009651655CD8A092D0166AF2BE168EF29EC7
:103320006AC0A5F069C0A4F0A76B1BC0A6F034EC7E
:1033300001F016BEF28E02C097F001C096F0025066
:10334000685C41E303E19651675C3DE381848186DB
:1033500081826AC096F0962B9607D8B40BD0166A75
:10336000F2BE168EF29EFF0EA66F21EC01F016BE85
:10337000F28EF2D7166AF2BE168EF29E69C0A6F0E1
:1033800021EC01F016BEF28E8194819681926AC082
:1033900096F0962B9607D8B40BD0166AF2BE168E0E
:1033A000F29EFF0EA66F21EC01F016BEF28EF2D750
:1033B000166AF2BE168EF29E69C0A6F021EC01F0EC
:1033C00016BEF28E3AD0818481826AC096F0962B26
:1033D0009607D8B40BD0166AF2BE168EF29EFF0E78
:1033E000A66F21EC01F016BEF28EF2D7166AF2BE7D
:1033F000168EF29E69C0A6F021EC01F016BEF28E88
:10340000819481926AC096F0962B9607D8B40BD01F
:10341000166AF2BE168EF29EFF0EA66F21EC01F028
:1034200016BEF28EF2D7166AF2BE168EF29E69C0F2
:10343000A6F021EC01F016BEF28E52D0166AF2BE52
:10344000168EF29E6AC0A5F069C0A4F0A76B19C0E1
:10345000A6F034EC01F016BEF28E02C097F001C067
:1034600096F00250645C3CE303E19651635C38E300
:1034700081826AC096F0962B9607D8B40BD0166A54
:10348000F2BE168EF29EFF0EA66F21EC01F016BE64
:10349000F28EF2D7166AF2BE168EF29E69C0A6F0C0
:1034A00021EC01F016BEF28E81926AC096F0962B46
:1034B0009607D8B40BD0166AF2BE168EF29EFF0E97
:1034C000A66F21EC01F016BEF28EF2D7166AF2BE9C
:1034D000168EF29E69C0A6F021EC01F016BEF28EA7
:1034E00019500A0802E1ADEC07F01B50140802E184
:1034F00005EC08F01A50100802E1D9EC07F01B2A7D
:103500001A2A192AE7D6FFD2010E1A6E1A5010088D
:10351000D8A0BAD01AC01DF0166AF2BE168EF29E5E
:103520006AC0A5F069C0A4F0A76B1BC0A6F034EC7C
:1035300001F016BEF28E02C097F001C096F0025064
:10354000685C3FE303E16750965D3BE281868184DE
:103550006AC096F0962B9607D8B40BD0166AF2BEC6
:10356000168EF29EFF0EA66F21EC01F016BEF28EB3
:10357000F2D7166AF2BE168EF29E69C0A6F021EC52
:1035800001F016BEF28E819681946AC096F0962B59
:103590009607D8B40BD0166AF2BE168EF29EFF0EB6
:1035A000A66F21EC01F016BEF28EF2D7166AF2BEBB
:1035B000168EF29E69C0A6F021EC01F016BEF28EC6
:1035C00052D0166AF2BE168EF29E6AC0A5F069C08D
:1035D000A4F0A76B1AC0A6F034EC01F016BEF28E70
:1035E00002C097F001C096F00250665C3CE303E134
:1035F0009651655C38E381846AC096F0962B9607F5
:10360000D8B40BD0166AF2BE168EF29EFF0EA66FCD
:1036100021EC01F016BEF28EF2D7166AF2BE168EBB
:10362000F29E69C0A6F021EC01F016BEF28E8194E4
:103630006AC096F0962B9607D8B40BD0166AF2BEE5
:10364000168EF29EFF0EA66F21EC01F016BEF28ED2
:10365000F2D7166AF2BE168EF29E69C0A6F021EC71
:1036600001F016BEF28E1A50100802E1D9EC07F0F4
:103670001B50140802E105EC08F01750310801E175
:1036800003D01B2A1A2A42D717503108D8A43BD29C
:103690001E500A08D8A01CD11DC01AF01A501008DC
:1036A000D8A015D11AC01DF0166AF2BE168EF29E71
:1036B0006AC0A5F069C0A4F0A76B19C0A6F034ECED
:1036C00001F016BEF28E02C097F001C096F00250D3
:1036D000645CD8A097D004E19651635CD8A092D0E6
:1036E000166AF2BE168EF29E6AC0A5F069C0A4F0FA
:1036F000A76B1BC0A6F034EC01F016BEF28E02C020
:1037000097F001C096F00250685C41E303E19651E6
:10371000675C3DE38184818681826AC096F0962B46
:103720009607D8B40BD0166AF2BE168EF29EFF0E24
:10373000A66F21EC01F016BEF28EF2D7166AF2BE29
:10374000168EF29E69C0A6F021EC01F016BEF28E34
:103750008194819681926AC096F0962B9607D8B490
:103760000BD0166AF2BE168EF29EFF0EA66F21ECEB
:1037700001F016BEF28EF2D7166AF2BE168EF29ED7
:1037800069C0A6F021EC01F016BEF28E3AD0818419
:1037900081826AC096F0962B9607D8B40BD0166A31
:1037A000F2BE168EF29EFF0EA66F21EC01F016BE41
:1037B000F28EF2D7166AF2BE168EF29E69C0A6F09D
:1037C00021EC01F016BEF28E819481926AC096F0CF
:1037D000962B9607D8B40BD0166AF2BE168EF29EC0
:1037E000FF0EA66F21EC01F016BEF28EF2D7166A1C
:1037F000F2BE168EF29E69C0A6F021EC01F016BE54
:10380000F28E52D0166AF2BE168EF29E6AC0A5F0F3
:1038100069C0A4F0A76B1AC0A6F034EC01F016BE84
:10382000F28E02C097F001C096F00250665C3CE355
:1038300003E19651655C38E381846AC096F0962B6B
:103840009607D8B40BD0166AF2BE168EF29EFF0E03
:10385000A66F21EC01F016BEF28EF2D7166AF2BE08
:10386000168EF29E69C0A6F021EC01F016BEF28E13
:1038700081946AC096F0962B9607D8B40BD0166A3E
:10388000F2BE168EF29EFF0EA66F21EC01F016BE60
:10389000F28EF2D7166AF2BE168EF29E69C0A6F0BC
:1038A00021EC01F016BEF28E19500A0802E1ADECCF
:1038B00007F01B50140802E105EC08F01A5010083C
:1038C00002E1D9EC07F01B2A192A1A2AE7D61BD1E4
:1038D0001DC01AF01A501008D8A015D11AC01DF03A
:1038E000166AF2BE168EF29E6AC0A5F069C0A4F0F8
:1038F000A76B19C0A6F034EC01F016BEF28E02C020
:1039000097F001C096F00250645CD8A097D004E113
:103910009651635CD8A092D0166AF2BE168EF29EC3
:103920006AC0A5F069C0A4F0A76B1BC0A6F034EC78
:1039300001F016BEF28E02C097F001C096F0025060
:10394000685C41E303E19651675C3DE381848186D5
:1039500081826AC096F0962B9607D8B40BD0166A6F
:10396000F2BE168EF29EFF0EA66F21EC01F016BE7F
:10397000F28EF2D7166AF2BE168EF29E69C0A6F0DB
:1039800021EC01F016BEF28E8194819681926AC07C
:1039900096F0962B9607D8B40BD0166AF2BE168E08
:1039A000F29EFF0EA66F21EC01F016BEF28EF2D74A
:1039B000166AF2BE168EF29E69C0A6F021EC01F0E6
:1039C00016BEF28E3AD0818481826AC096F0962B20
:1039D0009607D8B40BD0166AF2BE168EF29EFF0E72
:1039E000A66F21EC01F016BEF28EF2D7166AF2BE77
:1039F000168EF29E69C0A6F021EC01F016BEF28E82
:103A0000819481926AC096F0962B9607D8B40BD019
:103A1000166AF2BE168EF29EFF0EA66F21EC01F022
:103A200016BEF28EF2D7166AF2BE168EF29E69C0EC
:103A3000A6F021EC01F016BEF28E52D0166AF2BE4C
:103A4000168EF29E6AC0A5F069C0A4F0A76B1AC0DA
:103A5000A6F034EC01F016BEF28E02C097F001C061
:103A600096F00250665C3CE303E19651655C38E3F6
:103A700081846AC096F0962B9607D8B40BD0166A4C
:103A8000F2BE168EF29EFF0EA66F21EC01F016BE5E
:103A9000F28EF2D7166AF2BE168EF29E69C0A6F0BA
:103AA00021EC01F016BEF28E81946AC096F0962B3E
:103AB0009607D8B40BD0166AF2BE168EF29EFF0E91
:103AC000A66F21EC01F016BEF28EF2D7166AF2BE96
:103AD000168EF29E69C0A6F021EC01F016BEF28EA1
:103AE00019500A0802E1ADEC07F01B50140802E17E
:103AF00005EC08F01A50100802E1D9EC07F0192A79
:103B00001B2A1A2AE7D637EF1EF081923DEF1EF0EE
:103B1000819443EF1EF0819649EF1EF0F86AD09E23
:103B2000078EEA6AE96A810EAF6EA60EAC6E900E41
:103B3000AB6E196A1A6A1B6A436A446A456A090EBF
:103B4000646EC40E636E0F0E666EA00E656E130E6D
:103B5000686E880E676E6A6AFA0E696EC180C182ED
:103B6000C184C196830ED56ED76A010ED66EC00E83
:103B7000F212936A816A186A58EF07F08E0EF66E99
:103B80000E0EF76E166AF2BE168EF29E38EC05F037
:103B900016BEF28E166AF2BE168EF29E640EA66FE6
:103BA00021EC01F016BEF28E940EF66E0E0EF76E3C
:103BB000166AF2BE168EF29E38EC05F016BEF28E34
:103BC000960EF66E0E0EF76E166AF2BE168EF29E08
:103BD00038EC05F016BEF28E166AF2BE168EF29E14
:103BE000020EA66FA76F04EC05F016BEF28EA20EB1
:103BF000F66E0E0EF76E166AF2BE168EF29E38EC58
:103C000005F016BEF28E166AF2BE168EF29E640E95
:103C1000A66F21EC01F016BEF28E819C6D6A010E3A
:103C2000736E020E796E196A1A6A1B6A9D8AF28A8D
:103C3000182C30D0AE0EF66E0E0EF76E166AF2BE6F
:103C4000168EF29E38EC05F016BEF28E1750310833
:103C500003E131EF08F00BD01750320803E18CEF8D
:103C60000DF005D01750330802E1E5EF12F01750C0
:103C7000610803E1196A1C6A48D71750620803E11A
:103C80001A6A1D6A45D71750630803E11B6A1E6A4A
:083C900042D7186ACDD70300EA
:020000040030CA
:0E00000000220E0E000181000FC00FE00F4025
:00000001FF
;PIC18F452
;CRC=94AF  CREATED="05-nov-12 21:32"
