:0400000053EF0AF0C0
:08000800046ED8CF05F0E0CF33
:1000100006F00001E9CF0CF0EACF07F0E1CF08F0DD
:10002000E2CF09F0D9CF0AF0DACF0BF0F3CF12F01C
:10003000F4CF13F0FACF14F000C00EF001C00FF0AF
:1000400002C010F003C011F0F2AA2AEF00F0F2B4DF
:100050007DEF00F09DAA30EF00F09EBA60EF00F057
:100060000EC000F00FC001F010C002F011C003F08C
:100070000CC0E9FF07C0EAFF078E08C0E1FF09C016
:10008000E2FF0AC0D9FF0BC0DAFF12C0F3FF13C0B2
:10009000F4FF14C0FAFF045006C0E0FF05C0D8FF0B
:1000A0001000F2CF0DF0F29EF76ABC0FF66E000E54
:1000B000F7220900F5500DBEF28E1200280C010641
:1000C0009EAAFED7AECF17F0010E186E9E9A30EFA3
:1000D00000F0EA6A3B0EE96EEF500EE0010E016E91
:1000E000006A002EFED7012EFBD74A0E006E002EAE
:1000F000FED700D0EF2EF2D7000C040E295C386E2C
:10010000000E2A58396E3A6E3A2A3A06D8B404D00C
:10011000FF0E3B6EDEDFF9D738C03BF0DADF817CC3
:100120008170D76A010ED66EF29430EF00F00C00A9
:1001300070726F6365736F20310070726F636573E7
:100140006F2031000C0070726F6365736F20320096
:1001500070726F6365736F2032000C0070726F6392
:1001600065736F20330070726F6365736F203300A7
:100170000C0070726F6365736F20340070726F6370
:1001800065736F203400686F6C6100000C00636F52
:100190006D70726162616E646F0070726F6365731F
:1001A0006F2E2E2E00000C000C00736973742E6FDE
:1001B0007065722E2058414B000073697374656D31
:1001C00061206F706572617469766F2058414B00D1
:1001D00035B002D08C9801D08C88959835B202D079
:1001E0008C9A01D08C8A959A35B402D08C9C01D01F
:1001F0008C8C959C35B602D08C9E01D08C8E959EB1
:1002000000008C84959400D08C949594000C366AF0
:100210009588000E83B8010E3612958A000E83BAB7
:10022000010E006ED890003600503612958C000EEC
:1002300083BC010E006E00360036FC0E0016005026
:100240003612958E000E83BE010E006E003600360B
:100250000036F80E00160050361236C001F0000CC1
:100260009588958A958C958E8C82959200008C84C9
:1002700095940000CCDF01C035F08C94959400007B
:100280008C8495940000C3DF01C034F08C94959465
:100290009598959A959C959E3538006EF00E0016AF
:1002A00000503410016E58EF01F08C909590D8D723
:1002B00001C034F001BEFBD7325202E18C9001D074
:1002C0008C80959000008C92959200008C9495946F
:1002D0003338346E0F0E341634C035F079DF3350B6
:1002E0000F0B346E356E74DF000C9598959A959CC3
:1002F000959E9594959095928C9095908C929592D0
:100300008C949594166AF2BE168EF29E0F0E3B6E7A
:10031000E0DE16BEF28E010E2B6E2B5003080EE3AC
:10032000030E356E55DF166AF2BE168EF29E050E6E
:100330003B6ECFDE16BEF28E2B2AEFD7020E356E45
:1003400047DF2B6A2B5003080EE3036A2B50F2CFD2
:100350002CF0F29EA6DE2CBEF28E2C6E326A336E2C
:10036000A4DF2B2AEFD785EF0AF02F2C01D003D082
:10037000400E306E01D0306A010E2E5C30263050B7
:100380008009316E326A336E90DF000C2D500C0AFA
:1003900005E0060A11E0020A15E019D0326A010EE2
:1003A000336E83DF166AF2BE168EF29E020E3B6E2D
:1003B00090DE16BEF28E11D0010E2E6E020E2F6E42
:1003C000D4DF0BD0326A100E336E6FDF06D0010E11
:1003D000326E2DC033F069DF00D0F9EF01F0090073
:1003E000F5520CE0F6CF2BF0F7CF2CF0F5CF2DF037
:1003F000CDD72BC0F6FF2CC0F7FFF1D7000C2B5048
:100400002D02F3CF01F0F4CF00F02E02F3500026BE
:100410002C502D02F3500020026E000C0900F55202
:100420000DE0F6CF2BF0F7CF2CF0F5509EA8FED7BD
:10043000AD6E2BC0F6FF2CC0F7FFF0D7000C2E0ED0
:10044000F66E010EF76ECBDF300EF66E010EF76E14
:10045000C6DF3A0EF66E010EF76EE0DF0D0E9EA8B7
:10046000FED7AD6E0A0E9EA8FED7AD6E8182000C3F
:10047000440EF66E010EF76EB2DF460EF66E010EFA
:10048000F76EADDF500EF66E010EF76EC7DF0D0E84
:100490009EA8FED7AD6E0A0E9EA8FED7AD6E8184D3
:1004A000000C5A0EF66E010EF76E99DF5C0EF66EBA
:1004B000010EF76E94DF660EF66E010EF76EAEDF7C
:1004C0000D0E9EA8FED7AD6E0A0E9EA8FED7AD6E8D
:1004D0008186000C700EF66E010EF76E80DF720ED4
:1004E000F66E010EF76E7BDF7C0EF66E010EF76E78
:1004F00095DF0D0E9EA8FED7AD6E0A0E9EA8FED704
:10050000AD6E8188000C010E196E1950060859E372
:1005100019C01DF02AC02CF029C02BF02E6A19C07A
:100520002DF06DDF02C02CF001C02BF00250225CD8
:1005300039E303E121502B5C35E281822AC02BF0A4
:100540002B2A2B06D8B40AD0166AF2BE168EF29E5B
:10055000FF0E3B6EBEDD16BEF28EF3D7166AF2BEFC
:10056000168EF29E29C03BF0B4DD16BEF28E81924B
:100570002AC02BF02B2A2B06D8B40AD0166AF2BE5A
:10058000168EF29EFF0E3B6EA4DD16BEF28EF3D7E2
:10059000166AF2BE168EF29E29C03BF09ADD16BE98
:1005A000F28E01D04CDF1750320801E10AD017500B
:1005B000330801E106D01750340801E102D0192AAE
:1005C000A4D717503208D8A4CDEF08F0010E1A6E48
:1005D0001A500808D8A0AAD01AC01EF02AC02CF0C1
:1005E00029C02BF02E6A19C02DF009DF02C02CF0B3
:1005F00001C02BF00250225C3BE303E12B50215C55
:1006000037E3818481822AC02BF02B2A2B06D8B4B1
:100610000AD0166AF2BE168EF29EFF0E3B6E59DDB0
:1006200016BEF28EF3D7166AF2BE168EF29E29C05F
:100630003BF04FDD16BEF28E819281942AC02BF0E2
:100640002B2A2B06D8B40AD0166AF2BE168EF29E5A
:10065000FF0E3B6E3EDD16BEF28EF3D7166AF2BE7B
:10066000168EF29E29C03BF034DD16BEF28E47D0C6
:100670002AC02CF029C02BF02E6A1AC02DF0BFDE44
:1006800002C02CF001C02BF00250245C38E303E1DF
:1006900023502B5C34E281842AC02BF02B2A2B06BA
:1006A000D8B40AD0166AF2BE168EF29EFF0E3B6ECA
:1006B00010DD16BEF28EF3D7166AF2BE168EF29ECB
:1006C00029C03BF006DD16BEF28E81942AC02BF0C5
:1006D0002B2A2B06D8B40AD0166AF2BE168EF29ECA
:1006E000FF0E3B6EF6DC16BEF28EF3D7166AF2BE34
:1006F000168EF29E29C03BF0ECDC16BEF28E19502D
:10070000060805E11D50050802E399DE04D01A50E1
:10071000080801E1ADDE1750330801E107D017509A
:10072000340801E103D0192A1A2A52D71750330886
:10073000D8A46CD2010E1B6E1B500C08D8A0FED0A2
:100740001BC01FF02AC02CF029C02BF02E6A19C044
:100750002DF055DE02C02CF001C02BF00250225CBF
:100760003DE303E121502B5C39E281868184818263
:100770002AC02BF02B2A2B06D8B40AD0166AF2BE58
:10078000168EF29EFF0E3B6EA4DC16BEF28EF3D7E1
:10079000166AF2BE168EF29E29C03BF09ADC16BE97
:1007A000F28E8196819281942AC02BF02B2A2B06FF
:1007B000D8B40AD0166AF2BE168EF29EFF0E3B6EB9
:1007C00088DC16BEF28EF3D7166AF2BE168EF29E43
:1007D00029C03BF07EDC16BEF28E93D02AC02CF0EE
:1007E00029C02BF02E6A1AC02DF009DE02C02CF0B1
:1007F00001C02BF00250245C3BE303E123502B5C4F
:1008000037E2818681842AC02BF02B2A2B06D8B4AC
:100810000AD0166AF2BE168EF29EFF0E3B6E59DCAF
:1008200016BEF28EF3D7166AF2BE168EF29E29C05D
:100830003BF04FDC16BEF28E819681942AC02BF0DD
:100840002B2A2B06D8B40AD0166AF2BE168EF29E58
:10085000FF0E3B6E3EDC16BEF28EF3D7166AF2BE7A
:10086000168EF29E29C03BF034DC16BEF28E49D0C3
:100870002AC02CF029C02BF02E6A1BC02DF0BFDD42
:1008800002C02CF001C02BF00250265C3AE303E1D9
:1008900025502B5C36E281862AC02BF02B2A2B06B2
:1008A000D8B40AD0166AF2BE168EF29EFF0E3B6EC8
:1008B00010DC16BEF28EF3D7166AF2BE168EF29ECA
:1008C00029C03BF006DC16BEF28E81962AC02BF0C2
:1008D0002B2A2B06D8B40BD0166AF2BE168EF29EC7
:1008E000FF0E3B6E69EC00F016BEF28EF2D7166A70
:1008F000F2BE168EF29E29C03BF069EC00F016BEE7
:10090000F28E1950060804E11D50050801E397DD39
:100910001A50080804E11E50070801E3A9DD1B5026
:100920000C0804E11F500B0801E3BBDD175034082D
:1009300001E104D0192A1A2A1B2AFED617503408BE
:10094000D8A464D1010E1C6E1C501008D8A05ED132
:100950001CC020F02AC02CF029C02BF02E6A19C030
:100960002DF04DDD02C02CF001C02BF00250225CB6
:1009700043E303E121502B5C3FE28188818681843F
:1009800081822AC02BF02B2A2B06D8B40BD0166AF2
:10099000F2BE168EF29EFF0E3B6E69EC00F016BEA4
:1009A000F28EF2D7166AF2BE168EF29E29C03BF086
:1009B00069EC00F016BEF28E819881968194819246
:1009C0002AC02BF02B2A2B06D8B40BD0166AF2BE05
:1009D000168EF29EFF0E3B6E69EC00F016BEF28E94
:1009E000F2D7166AF2BE168EF29E29C03BF069EC71
:1009F00000F016BEF28EE9D02AC02CF029C02BF0F0
:100A00002E6A1AC02DF0FBDC02C02CF001C02BF0C6
:100A10000250245C41E303E123502B5C3DE28188DA
:100A2000818681842AC02BF02B2A2B06D8B40BD0C8
:100A3000166AF2BE168EF29EFF0E3B6E69EC00F057
:100A400016BEF28EF2D7166AF2BE168EF29E29C03C
:100A50003BF069EC00F016BEF28E8198819681948D
:100A60002AC02BF02B2A2B06D8B40BD0166AF2BE64
:100A7000168EF29EFF0E3B6E69EC00F016BEF28EF3
:100A8000F2D7166AF2BE168EF29E29C03BF069ECD0
:100A900000F016BEF28E99D02AC02CF029C02BF09F
:100AA0002E6A1BC02DF0ABDC02C02CF001C02BF075
:100AB0000250265C3FE303E125502B5C3BE281883A
:100AC00081862AC02BF02B2A2B06D8B40BD0166AAD
:100AD000F2BE168EF29EFF0E3B6E69EC00F016BE63
:100AE000F28EF2D7166AF2BE168EF29E29C03BF045
:100AF00069EC00F016BEF28E819881962AC02BF028
:100B00002B2A2B06D8B40BD0166AF2BE168EF29E94
:100B1000FF0E3B6E69EC00F016BEF28EF2D7166A3D
:100B2000F2BE168EF29E29C03BF069EC00F016BEB4
:100B3000F28E4BD02AC02CF029C02BF02E6A1CC09C
:100B40002DF05DDC02C02CF001C02BF00250285CBF
:100B50003CE303E127502B5C38E281882AC02BF06C
:100B60002B2A2B06D8B40BD0166AF2BE168EF29E34
:100B7000FF0E3B6E69EC00F016BEF28EF2D7166ADD
:100B8000F2BE168EF29E29C03BF069EC00F016BE54
:100B9000F28E81982AC02BF02B2A2B06D8B40BD0CA
:100BA000166AF2BE168EF29EFF0E3B6E69EC00F0E6
:100BB00016BEF28EF2D7166AF2BE168EF29E29C0CB
:100BC0003BF069EC00F016BEF28E1950060804E105
:100BD0001D50050801E333DC1A50080804E11E50DB
:100BE000070801E345DC1B500C0804E11F500B080B
:100BF00001E357DC1C50100804E120500F0801E30A
:100C000069DC192A1A2A1B2A1C2A9ED61750340876
:100C1000D8A4C3D2010E1C6E1C501008D8A00ED14F
:100C20001CC020F02AC02CF029C02BF02E6A19C05D
:100C30002DF0FFEC01F002C02CF001C02BF00250AF
:100C4000225C41E303E121502B5C3DE281888184F9
:100C500081822AC02BF02B2A2B06D8B40BD0166A1F
:100C6000F2BE168EF29EFF0E3B6E69EC00F016BED1
:100C7000F28EF2D7166AF2BE168EF29E29C03BF0B3
:100C800069EC00F016BEF28E8198819481922AC0A0
:100C90002BF02B2A2B06D8B40BD0166AF2BE168E78
:100CA000F29EFF0E3B6E69EC00F016BEF28EF2D79C
:100CB000166AF2BE168EF29E29C03BF069EC00F077
:100CC00016BEF28E9BD02AC02CF029C02BF02E6AC3
:100CD0001AC02DF0FFEC01F002C02CF001C02BF087
:100CE0000250245C3FE303E123502B5C3BE281880C
:100CF00081842AC02BF02B2A2B06D8B40BD0166A7D
:100D0000F2BE168EF29EFF0E3B6E69EC00F016BE30
:100D1000F28EF2D7166AF2BE168EF29E29C03BF012
:100D200069EC00F016BEF28E819881942AC02BF0F7
:100D30002B2A2B06D8B40BD0166AF2BE168EF29E62
:100D4000FF0E3B6E69EC00F016BEF28EF2D7166A0B
:100D5000F2BE168EF29E29C03BF069EC00F016BE82
:100D6000F28E4CD02AC02CF029C02BF02E6A1CC069
:100D70002DF0FFEC01F002C02CF001C02BF002506E
:100D8000285C3CE303E127502B5C38E281882AC0D1
:100D90002BF02B2A2B06D8B40BD0166AF2BE168E77
:100DA000F29EFF0E3B6E69EC00F016BEF28EF2D79B
:100DB000166AF2BE168EF29E29C03BF069EC00F076
:100DC00016BEF28E81982AC02BF02B2A2B06D8B49F
:100DD0000BD0166AF2BE168EF29EFF0E3B6E69ECC9
:100DE00000F016BEF28EF2D7166AF2BE168EF29E92
:100DF00029C03BF069EC00F016BEF28E19500608CF
:100E000005E11D50050802E31FEC02F01A50080826
:100E100005E11E50070802E338EC02F01C501008F0
:100E200005E120500F0802E36AEC02F01750330886
:100E300001E104D0192A1A2A1C2AEED617503308C9
:100E4000D8A4ABD1010E1B6E1B500C08D8A066D1E4
:100E50001BC01FF02AC02CF029C02BF02E6A19C02D
:100E60002DF0FFEC01F002C02CF001C02BF002507D
:100E7000225C43E303E121502B5C3FE281888186C1
:100E8000818481822AC02BF02B2A2B06D8B40BD068
:100E9000166AF2BE168EF29EFF0E3B6E69EC00F0F3
:100EA00016BEF28EF2D7166AF2BE168EF29E29C0D8
:100EB0003BF069EC00F016BEF28E81988196819429
:100EC00081922AC02BF02B2A2B06D8B40BD0166A9D
:100ED000F2BE168EF29EFF0E3B6E69EC00F016BE5F
:100EE000F28EF2D7166AF2BE168EF29E29C03BF041
:100EF00069EC00F016BEF28EECD02AC02CF029C0AE
:100F00002BF02E6A1AC02DF0FFEC01F002C02CF07D
:100F100001C02BF00250245C41E303E123502B5C21
:100F20003DE28188818681842AC02BF02B2A2B0602
:100F3000D8B40BD0166AF2BE168EF29EFF0E3B6E30
:100F400069EC00F016BEF28EF2D7166AF2BE168E6B
:100F5000F29E29C03BF069EC00F016BEF28E81983B
:100F6000819681942AC02BF02B2A2B06D8B40BD063
:100F7000166AF2BE168EF29EFF0E3B6E69EC00F012
:100F800016BEF28EF2D7166AF2BE168EF29E29C0F7
:100F90003BF069EC00F016BEF28E9BD02AC02CF01C
:100FA00029C02BF02E6A1BC02DF0FFEC01F002C00F
:100FB0002CF001C02BF00250265C3FE303E12550EA
:100FC0002B5C3BE2818881862AC02BF02B2A2B06E2
:100FD000D8B40BD0166AF2BE168EF29EFF0E3B6E90
:100FE00069EC00F016BEF28EF2D7166AF2BE168ECB
:100FF000F29E29C03BF069EC00F016BEF28E81989B
:1010000081962AC02BF02B2A2B06D8B40BD0166A57
:10101000F2BE168EF29EFF0E3B6E69EC00F016BE1D
:10102000F28EF2D7166AF2BE168EF29E29C03BF0FF
:1010300069EC00F016BEF28E4CD02AC02CF029C00C
:101040002BF02E6A1CC02DF0FFEC01F002C02CF03A
:1010500001C02BF00250285C3CE303E127502B5CDD
:1010600038E281882AC02BF02B2A2B06D8B40BD06B
:10107000166AF2BE168EF29EFF0E3B6E69EC00F011
:1010800016BEF28EF2D7166AF2BE168EF29E29C0F6
:101090003BF069EC00F016BEF28E81982AC02BF06E
:1010A0002B2A2B06D8B40BD0166AF2BE168EF29EEF
:1010B000FF0E3B6E69EC00F016BEF28EF2D7166A98
:1010C000F2BE168EF29E29C03BF069EC00F016BE0F
:1010D000F28E1950060805E11D50050802E31FECC9
:1010E00002F01A50080805E11E50070802E338EC28
:1010F00002F01B500C0805E11F500B0802E351ECF5
:1011000002F01C50100805E120500F0802E36AECC1
:1011100002F0192A1A2A1C2A1B2A96D61C501008DB
:101120003AE381882AC02BF02B2A2B06D8B40BD0A7
:10113000166AF2BE168EF29EFF0E3B6E69EC00F050
:1011400016BEF28EF2D7166AF2BE168EF29E29C035
:101150003BF069EC00F016BEF28E81982AC02BF0AD
:101160002B2A2B06D8B40BD0166AF2BE168EF29E2E
:10117000FF0E3B6E69EC00F016BEF28EF2D7166AD7
:10118000F2BE168EF29E29C03BF069EC00F016BE4E
:10119000F28E1C2A01D001D0C1D717503308D8A431
:1011A000BED0010E1B6E1B500C08D8A0B8D01BC0BF
:1011B0001FF02AC02CF029C02BF02E6A19C02DF088
:1011C000FFEC01F002C02CF001C02BF00250225CB9
:1011D0003FE303E121502B5C3BE2818681822AC000
:1011E0002BF02B2A2B06D8B40BD0166AF2BE168E23
:1011F000F29EFF0E3B6E69EC00F016BEF28EF2D747
:10120000166AF2BE168EF29E29C03BF069EC00F021
:1012100016BEF28E819681922AC02BF02B2A2B06C5
:10122000D8B40BD0166AF2BE168EF29EFF0E3B6E3D
:1012300069EC00F016BEF28EF2D7166AF2BE168E78
:10124000F29E29C03BF069EC00F016BEF28E4CD045
:101250002AC02CF029C02BF02E6A1BC02DF0FFEC09
:1012600001F002C02CF001C02BF00250265C3CE3E0
:1012700003E125502B5C38E281862AC02BF02B2A13
:101280002B06D8B40BD0166AF2BE168EF29EFF0E55
:101290003B6E69EC00F016BEF28EF2D7166AF2BE13
:1012A000168EF29E29C03BF069EC00F016BEF28E5D
:1012B00081962AC02BF02B2A2B06D8B40BD0166AA5
:1012C000F2BE168EF29EFF0E3B6E69EC00F016BE6B
:1012D000F28EF2D7166AF2BE168EF29E29C03BF04D
:1012E00069EC00F016BEF28E1950060805E11D509B
:1012F000050802E31FEC02F01B500C0805E11F502B
:101300000B0802E351EC02F01750340801E107D05A
:101310001750320801E103D0192A1B2A44D717506D
:101320003408D8A4BED0010E1C6E1C501008D8A0E2
:10133000B8D01CC020F02AC02CF029C02BF02E6A97
:1013400019C02DF0FFEC01F002C02CF001C02BF011
:101350000250225C3FE303E121502B5C3BE2818899
:1013600081822AC02BF02B2A2B06D8B40BD0166A08
:10137000F2BE168EF29EFF0E3B6E69EC00F016BEBA
:10138000F28EF2D7166AF2BE168EF29E29C03BF09C
:1013900069EC00F016BEF28E819881922AC02BF083
:1013A0002B2A2B06D8B40BD0166AF2BE168EF29EEC
:1013B000FF0E3B6E69EC00F016BEF28EF2D7166A95
:1013C000F2BE168EF29E29C03BF069EC00F016BE0C
:1013D000F28E4CD02AC02CF029C02BF02E6A1CC0F3
:1013E0002DF0FFEC01F002C02CF001C02BF00250F8
:1013F000285C3CE303E127502B5C38E281882AC05B
:101400002BF02B2A2B06D8B40BD0166AF2BE168E00
:10141000F29EFF0E3B6E69EC00F016BEF28EF2D724
:10142000166AF2BE168EF29E29C03BF069EC00F0FF
:1014300016BEF28E81982AC02BF02B2A2B06D8B428
:101440000BD0166AF2BE168EF29EFF0E3B6E69EC52
:1014500000F016BEF28EF2D7166AF2BE168EF29E1B
:1014600029C03BF069EC00F016BEF28E1950060858
:1014700005E11D50050802E31FEC02F01C501008A6
:1014800005E12050050802E36AEC02F0175033082A
:1014900001E107D01750320801E103D0192A1C2AB4
:1014A00044D7C6EF0AF0F86AD09E078EEA6AE96A66
:1014B000190EAF6EA60EAC6E900EAB6E196A1A6A5C
:1014C0001B6A1C6A050E226EDC0E216E070E246E4E
:1014D000D00E236E0B0E266EB80E256E0F0E286EE4
:1014E000A00E276E2A6AFA0E296EC180C182C184BD
:1014F000C196830ED56ED76A010ED66EC00EF2125B
:10150000936A816A186A75EF01F0860EF66E010E15
:10151000F76EEFEC01F0166AF2BE168EF29E640EC4
:101520003B6E69EC00F016BEF28E8C0EF66E010E6C
:10153000F76EEFEC01F08E0EF66E010EF76EEFEC2B
:1015400001F0020E2E6E2F6EB5EC01F09A0EF66EC3
:10155000010EF76EEFEC01F0166AF2BE168EF29EE7
:10156000640E3B6E69EC00F016BEF28E819C9D8A83
:10157000F28A182C39D0A60EF66E010EF76EEFEC3B
:1015800001F01750310802E183EF02F017503208E2
:1015900002E138EC02F01750330802E151EC02F09E
:1015A0001750340802E16AEC02F0175073081BE18F
:1015B000A80EF66E010EF76EEFEC01F0AA0EF66EB5
:1015C000010EF76EEFEC01F0BA0EF66E010EF76E3B
:1015D0000EEC02F00D0E9EA8FED7AD6E0A0E9EA870
:0C15E000FED7AD6E818A186AC4D70300E4
:020000040030CA
:0E00000000210E0E000181000FC00FE00F4026
:00000001FF
;PIC18F452
;CRC=56B1  CREATED="29-oct-12 07:33"
