:040000006BEF00F0B2
:08000800046ED8CF05F0E0CF33
:1000100006F00001E9CF0CF0EACF07F0E1CF08F0DD
:10002000E2CF09F0D9CF0AF0DACF0BF0F3CF12F01C
:10003000F4CF13F0FACF14F000C00EF001C00FF0AF
:1000400002C010F003C011F0F2AA2AEF00F0F2B4DF
:100050005FEF00F00EC000F00FC001F010C002F022
:1000600011C003F00CC0E9FF07C0EAFF078E08C00B
:10007000E1FF09C0E2FF0AC0D9FF0BC0DAFF12C0DE
:10008000F3FF13C0F4FF14C0FAFF045006C0E0FFF2
:1000900005C0D8FF1000EA6A170EE96EEF500DE0B8
:1000A000060E016E006A002EFED7012EFBD77B0ED6
:1000B000006E002EFED7EF2EF3D762EF00F0F60EA3
:1000C000176EE9D7162A81728174D76A010ED66E2F
:1000D000F2942AEF00F0F86AD09E078EEA6AE96A85
:1000E000810EAF6EA60EAC6E900EAB6E166AC1801E
:1000F000C182C184C196830ED56ED76A010ED66EB9
:10010000C00EF2129D8AF28A936A956A010E816E80
:04011000836A0300FB
:020000040030CA
:0E00000000220E0E000181000FC00FE00F4025
:00000001FF
;PIC18F452
;CRC=C004  CREATED="06-nov-12 16:21"
