:1000000015EF00F0EA6A060EE96EEF500DE0060EFD
:10001000016E006A002EFED7012EFBD77B0E006E0C
:10002000002EFED7EF2EF3D7000CF86AD09EEA6AB6
:10003000E96A810EAF6EA60EAC6E900EAB6EC180FB
:10004000C182C184C196936A956A816A836A8190EC
:100050008192819483848386040E056EFA0E066E67
:10006000D1DF052EFBD781808182818483948396A2
:10007000040E056EFA0E066EC5DF052EFBD7E7D718
:0200800003007B
:020000040030CA
:0E00000000220E0E000181000FC00FE00F4025
:00000001FF
;PIC18F452
;CRC=689C  CREATED="05-nov-12 12:03"
