:0400000059EF21F0A3
:08000800046ED8CF05F0E0CF33
:1000100006F00001E9CF0CF0EACF07F0E1CF08F0DD
:10002000E2CF09F0D9CF0AF0DACF0BF0F3CF12F01C
:10003000F4CF13F0FACF14F000C00EF001C00FF0AF
:1000400002C010F003C011F0F2AA2AEF00F0F2B4DF
:10005000D3EF05F09DAA30EF00F09EBA09EF01F052
:100060000EC000F00FC001F010C002F011C003F08C
:100070000CC0E9FF07C0EAFF078E08C0E1FF09C016
:10008000E2FF0AC0D9FF0BC0DAFF12C0F3FF13C0B2
:10009000F4FF14C0FAFF045006C0E0FF05C0D8FF0B
:1000A0001000F2CF0DF0F29EF76ABC0FF66E000E54
:1000B000F7220900F5500DBEF28E1200280C010641
:1000C000F76AD00FF66E000EF7220900F550120005
:1000D000766163696F00F76AE60FF66E000EF7222D
:1000E0000900F5501200656A65637574616E646F8E
:1000F0000000F76A020FF66E010EF7220900F550B4
:1001000012006361726761646F00F76A1A0FF66E1E
:10011000010EF7220900F55012006E6F2068617918
:100120002070726F6365736F7300F76A3A0FF66E33
:10013000010EF7220900F5501200736F6C6F2065F5
:100140006C2070726F6365736F203100F76A5C0F0B
:10015000F66E010EF7220900F550120070726F63FF
:1001600065736F732031207920320000F76A7C0FAD
:10017000F66E010EF7220900F550120070726F63DF
:1001800065736F732031207920330000F76A9C0F6C
:10019000F66E010EF7220900F5501200736F6C6FB6
:1001A00020656C2070726F6365736F203200F76A90
:1001B000BE0FF66E010EF7220900F5501200736FA4
:1001C0006C6F20656C2070726F6365736F203300F5
:1001D000F76AE00FF66E010EF7220900F5501200E3
:1001E00070726F6365736F73203220792033000063
:1001F000F76A000FF66E020EF7220900F5501200A2
:1002000070726F6365736F7320312C3220792033E5
:1002100000009EAAFED7AECF17F0010E186E175041
:10022000760804E1010E0201376F000117507008D3
:1002300004E1010E0201386F00011750730804E158
:10024000010E0201396F00019E9A30EF00F0020E9C
:10025000EA6E9A0EE96EEF500DE0060E016E006A2E
:10026000002EFED7012EFBD77B0E006E002EFED790
:10027000EF2EF3D7000C020198519A03F3CF01F04F
:10028000F4CF00F09B03F350002699519A03F350EA
:100290000020026E0001000C02019753D8A49FD0E9
:1002A000996B19C098F25EC29BF25DC29AF200018E
:1002B000E2DF02C099F201C098F20201985315E101
:1002C000995313E1020EEA6E130EE96EF2CF98F223
:1002D000F29E000E0001F4DE0A000900F550EE6EF9
:1002E0000009FBE1020198BFF28E3B6B3A6B406B59
:1002F000996B19C098F25EC29BF25DC29AF200013E
:10030000BADF02C099F201C098F20201985302E1EB
:10031000995338E0996B19C098F25EC29BF25DC2A6
:100320009AF20001A8DF02C099F201C098F202011E
:100330000250585D27E303E15751985D23E2020E16
:10034000EA6E130EE96EF2CF98F2F29E000E0001F3
:10035000C2DE0A000900F550EE6E0009FBE1020161
:1003600098BFF28E996B19C098F25EC29BF25DC283
:100370009AF2000180DF02C03BF201C03AF2010EA6
:100380000201406F996B19C098F25EC29BF25DC288
:100390009AF2000170DF02C099F201C098F20201E6
:1003A0005851025C1CE303E15751985D18E3020EBB
:1003B000EA6E130EE96EF2CF98F2F29E000E000183
:1003C00098DE0A000900F550EE6E0009FBE102011B
:1003D00098BFF28E58C23BF257C23AF2406B972D4B
:1003E0009FD0996B1AC098F25EC29BF25DC29AF2DE
:1003F000000141DF02C099F201C098F20201985356
:1004000015E1995313E1020EEA6E1F0EE96EF2CF69
:1004100098F2F29E000E000153DE0A000900F5502A
:10042000EE6E0009FBE1020198BFF28E3D6B3C6B62
:10043000416B996B1AC098F25EC29BF25DC29AF250
:10044000000119DF02C099F201C098F2020198532D
:1004500002E1995338E0996B1AC098F25EC29BF2A0
:100460005DC29AF2000107DF02C099F201C098F262
:10047000020102505A5D27E303E15951985D23E2DE
:10048000020EEA6E1F0EE96EF2CF98F2F29E000E97
:10049000000121DE0A000900F550EE6E0009FBE1C3
:1004A000020198BFF28E996B1AC098F25EC29BF25D
:1004B0005DC29AF20001DFDE02C03DF201C03CF2F3
:1004C000010E0201416F996B1AC098F25EC29BF255
:1004D0005DC29AF20001CFDE02C099F201C098F22B
:1004E00002015A51025C1CE303E15951985D18E383
:1004F000020EEA6E1F0EE96EF2CF98F2F29E000E27
:100500000001F7DD0A000900F550EE6E0009FBE17D
:10051000020198BFF28E5AC23DF259C23CF2416BC1
:1005200097510208D8A49FD0996B1BC098F25EC265
:100530009BF25DC29AF200019EDE02C099F201C0F8
:1005400098F20201985315E1995313E1020EEA6EF5
:100550002B0EE96EF2CF98F2F29E000E0001B0DD94
:100560000A000900F550EE6E0009FBE1020198BF98
:10057000F28E3F6B3E6B426B996B1BC098F25EC272
:100580009BF25DC29AF2000176DE02C099F201C0D0
:1005900098F20201985302E1995338E0996B1BC01D
:1005A00098F25EC29BF25DC29AF2000164DE02C064
:1005B00099F201C098F2020102505C5D27E303E169
:1005C0005B51985D23E2020EEA6E2B0EE96EF2CFCC
:1005D00098F2F29E000E00017EDD0A000900F5503F
:1005E000EE6E0009FBE1020198BFF28E996B1BC011
:1005F00098F25EC29BF25DC29AF200013CDE02C03C
:100600003FF201C03EF2010E0201426F996B1BC026
:1006100098F25EC29BF25DC29AF200012CDE02C02B
:1006200099F201C098F202015C51025C1CE303E103
:100630005B51985D18E3020EEA6E2B0EE96EF2CF65
:1006400098F2F29E000E000154DD0A000900F550F8
:10065000EE6E0009FBE1020198BFF28E5CC23FF230
:100660005BC23EF2426B0001000C0900F5520DE046
:10067000F6CF97F2F7CF98F2F5509EA8FED7AD6E61
:1006800097C2F6FF98C2F7FFF0D7000C02019A510B
:10069000016A995D03E299C200F00CD0006A080E6D
:1006A0009B6F993700369A51005CD8B0006E0136C6
:1006B0009B2FF7D70001000C015097C299F2640EEE
:1006C00002019A6F0001E2DF00C097F20150300E84
:1006D00008E1020198A30ED098B70CD098B9200E6B
:1006E00004D00201989798999881012601509EA8FC
:1006F000FED7AD6E97C299F20A0E9A6F0001C6DF5F
:1007000000C097F20150300E08E1020198B70BD0FB
:1007100098A109D098B9200E0001012601509EA889
:10072000FED7AD6E0201300E972797519EA8FED7D7
:10073000AD6E0001000C0900F6CF98F2F7CF99F2E8
:10074000F5509EA8FED7AD6E98C2F6FF99C2F7FF8E
:100750000201972F01D002D00001EDD70001000C5B
:10076000EACF9FF2E9CF9EF202019839F0099A6F21
:100770009A27E20F9B6F320F9D6F98510F0B9B27AB
:100780009B279D27E90F9C6F9C279C2797390F0B70
:100790009C279D279C379D379D1F9D3797510F0B99
:1007A0009D279A37070E996F0A0E9C079D27FDE338
:1007B0009B079C27FDE39A079B27FDE399079A2750
:1007C000FDE3020EEA6E990EE96E070E9E159E9DE0
:1007D000E9269D0EE95CD8B49E8DEF50006E08E1CD
:1007E0009EBD06D09EB90CD09EB702D0200E03D07D
:1007F0009E879E99300E002600509EA8FED7AD6EB3
:10080000EE509EADE6D70001000CEF5210E0EACFAB
:1008100098F2E9CF97F2EF509EA8FED7AD6E98C23E
:10082000EAFF97C2E9FFE92AD8B4EA2AEED7000C1A
:100830000201975317E1985315E1995313E1020E02
:10084000EA6E430EE96EF2CF9AF2F29E000E0001BC
:100850005CDC0A000900F550EE6E0009FBE10201C4
:100860009ABFF28E972D17D0985315E1995313E143
:10087000020EEA6E430EE96EF2CF9AF2F29E000E7D
:10088000000153DC0A000900F550EE6E0009FBE19F
:1008900002019ABFF28E972D17D0982D15D099533B
:1008A00013E1020EEA6E430EE96EF2CF9AF2F29E67
:1008B000000E00014BDC0A000900F550EE6E000945
:1008C000FBE102019ABFF28E972D17D0985315E1E4
:1008D000992D13D0020EEA6E430EE96EF2CF9AF212
:1008E000F29E000E000142DC0A000900F550EE6E97
:1008F0000009FBE102019ABFF28E975317E1982D90
:1009000015D0995313E1020EEA6E430EE96EF2CF51
:100910009AF2F29E000E000139DC0A000900F5503F
:10092000EE6E0009FBE102019ABFF28E975317E1C8
:10093000985315E1992D13D0020EEA6E430EE96E1D
:10094000F2CF9AF2F29E000E000131DC0A0009009B
:10095000F550EE6E0009FBE102019ABFF28E97534B
:1009600017E1982D15D0992D13D0020EEA6E430E83
:10097000E96EF2CF9AF2F29E000E000129DC0A0025
:100980000900F550EE6E0009FBE102019ABFF28EFC
:10099000972D17D0982D15D0992D13D0020EEA6EF1
:1009A000430EE96EF2CF9AF2F29E000E000120DCB7
:1009B0000A000900F550EE6E0009FBE102019ABF42
:1009C000F28E00011DEF07F00201A26B9588000E68
:1009D00083B8010EA213958A000E83BA010E006E31
:1009E000D89000360050A213958C000E83BC010EE7
:1009F000006E00360036FC0E00160050A213958ED5
:100A0000000E83BE010E006E003600360036F80E72
:100A100000160050A213A2C201F00001000C95883C
:100A2000958A958C958E8C82959200008C849594F5
:100A30000000CADF01C0A1F28C94959400008C8460
:100A4000959400D000D00000BFDF01C0A0F28C94CC
:100A500095949598959A959C959E0201A139006E62
:100A6000F00E00160050A011016E0001000C0201F2
:100A7000A1B102D08C9801D08C889598A1B302D0F6
:100A80008C9A01D08C8A959AA1B502D08C9C01D009
:100A90008C8C959CA1B702D08C9E01D08C8E959E9B
:100AA00000008C849594030E006E002EFED78C946B
:100AB00095940001000C8C909590B1DF01C0A0F2DC
:100AC000020101AE02D00001F8D79E5302E18C90E2
:100AD00001D08C80959000008C92959200008C94AF
:100AE00095949F39A06F0F0EA017A0C2A1F200012C
:100AF000BEDF02019F510F0BA06FA16F0001B7DF96
:100B0000000C02019B2D01D003D0400E9C6F01D040
:100B10009C6B010E9A5D9C279C5180099D6F9E6B7A
:100B20009F6F0001C8DF000C020199510C0A0001FF
:100B300005E0060A10E0020A16E01CD002019E6BD6
:100B4000010E9F6F0001B7DF020E02019A6F0001D4
:100B500027EC01F017D0010E02019A6F020E9B6F75
:100B60000001CFDF0FD002019E6B100E9F6F0001BE
:100B7000A2DF08D0010E02019E6F99C29FF2000110
:100B80009ADF00D0000C0900F5520CE0F6CF97F286
:100B9000F7CF98F2F5CF99F2C7DF97C2F6FF98C268
:100BA000F7FFF1D7000C040E02015D5D976F000E98
:100BB0005E59986F996F992B9907D8B407D0FF0E9B
:100BC0009A6F000127EC01F00201F6D797C29AF262
:100BD000000127EC01F0817C817017507608D8A4C1
:100BE0003CD10201372D01D002D0000136D161C2C3
:100BF00097F200014CEC01F067C297F24CEC01F067
:100C00006DC297F24CEC01F03BC266F23AC265F25B
:100C10003DC26CF23CC26BF23FC272F23EC271F254
:100C200002013C513A25976F3D513B21986F3E514F
:100C300097255F6F3F519821606FC80EF66E0E0EBC
:100C4000F76E000112DD0D0E9EA8FED7AD6E0A0EE6
:100C50009EA8FED7AD6ED60EF66E0E0EF76E05DDB3
:100C60000D0E9EA8FED7AD6E0A0E9EA8FED7AD6EE5
:100C700061C297F2180E0201986F00011DDD090E86
:100C8000F66E0F0EF76E0B0E0201976F000153DD2B
:100C9000100EE96E0201986B640E976F000160DD23
:100CA000170EF66E0F0EF76E0C0E0201976F000115
:100CB00042DD100EE96E66C298F265C297F250DD11
:100CC000260EF66E0F0EF76E0C0E0201976F0001E6
:100CD00032DD020EEA6E130EE96E97DD0D0E9EA850
:100CE000FED7AD6E0A0E9EA8FED7AD6E67C297F214
:100CF000180E0201986F0001DFDC370EF66E0F0E42
:100D0000F76E0B0E0201976F000115DD100EE96EF4
:100D10000201986BC80E976F000122DD450EF66E3A
:100D20000F0EF76E0C0E0201976F000104DD100E1E
:100D3000E96E6CC298F26BC297F212DD540EF66E39
:100D40000F0EF76E0C0E0201976F0001F4DC020E1D
:100D5000EA6E1F0EE96E59DD0D0E9EA8FED7AD6E30
:100D60000A0E9EA8FED7AD6E6DC297F2180E020154
:100D7000986F0001A1DC650EF66E0F0EF76E0B0E7C
:100D80000201976F0001D7DC100EE96E010E02011F
:100D9000986F2C0E976F0001E3DC730EF66E0F0E4A
:100DA000F76E0C0E0201976F0001C5DC100EE96EA4
:100DB00072C298F271C297F2D3DC820EF66E0F0EF9
:100DC000F76E0C0E0201976F0001B5DC020EEA6EA1
:100DD0002B0EE96E1ADD0D0E9EA8FED7AD6E0A0E23
:100DE0009EA8FED7AD6E900EF66E0F0EF76E0D0E2E
:100DF0000201976F00019FDC100EE96E60C298F24D
:100E00005FC297F2ADDC200E9EA8FED7AD6E200E1D
:100E10009EA8FED7AD6EA20EF66E0F0EF76E25DC05
:100E200040C273F241C274F242C275F273C297F2C9
:100E300074C298F275C299F2FBD4020EEA6E430EA8
:100E4000E96EE3DC0D0E9EA8FED7AD6E0A0E9EA8DD
:100E5000FED7AD6E0201376B00011750700808E134
:100E60000201382D01D002D0000102D0386B000100
:100E70001750730823E10201392D01D002D000017F
:100E80001DD0B60EF66E0F0EF76E00017CDEB80EAA
:100E9000F66E0F0EF76E77DEC80EF66E0F0EF76E5B
:100EA00035EC03F00D0E9EA8FED7AD6E0A0E9EA87F
:100EB000FED7AD6E818A0201396B0001D76A010E3F
:100EC000D66EF29430EF00F07665722070726F6328
:100ED00065736F73000069642020202020646972AC
:100EE0002D696E6963696F202020202020202074E6
:100EF00069656D706F2020202020202020206573E0
:100F00007461646F0000253175202020202020208E
:100F100020202020254C752020202020202020204B
:100F2000202020254C75202020202020202020203B
:100F30002020000025317520202020202020202086
:100F40002020254C7520202020202020202020201B
:100F500020254C752020202020202020202020200B
:100F60000000253175202020202020202020202056
:100F7000254C7520202020202020202020202025E6
:100F80004C75202020202020202020202020000020
:100F90006163756D756C61646F72203D20254C75C1
:100FA0000000202D2D2D2D202076657220636F6C82
:100FB00061203A2020000C00736973742E6F7065F5
:100FC000722E2058414B000073697374656D612067
:100FD0006F706572617469766F2058414B000C0028
:100FE00070726F6365736F20310070726F63657329
:100FF0006F2031000C0070726F6365736F203200D8
:1010000070726F6365736F2032000C0070726F63D3
:1010100065736F20330070726F6365736F203300E8
:101020000C0070726F6365736F20410041000C000B
:1010300070726F6365736F20420042000C00707223
:101040006F6365736F20430043000C0070726F6321
:1010500065736F2044004400686F6C6100000C00F1
:10106000636F6D70726162616E646F0070726F6346
:1010700065736F2E2E2E00000C009598959A959C06
:10108000959E9594959095928C9095908C92959232
:101090008C949594166AF2BE168EF29E0F0E020183
:1010A0009A6F000127EC01F016BEF28E010E0201CC
:1010B0008A6F8A51030819E3166AF2BE168EF29EF1
:1010C000030EA16F0001D3DC16BEF28E166AF2BECB
:1010D000168EF29E050E02019A6F000127EC01F0B8
:1010E00016BEF28E02018A2BE4D7166AF2BE168E65
:1010F000F29E020EA16F0001BADC16BEF28E020152
:101100008A6B8A51030819E3036A8A51F2CF8BF282
:10111000F29E000151EC00F002018BBFF28E8B6F4A
:10112000166AF2BE168EF29E9E6B9F6F0001C3DCA4
:1011300016BEF28E02018A2BE4D700018BEF21F05C
:10114000DE0EF66E0F0EF76E166AF2BE168EF29E69
:101150001ADD16BEF28EE00EF66E0F0EF76E166AF0
:10116000F2BE168EF29E0FDD16BEF28EEA0EF66EFF
:101170000F0EF76E166AF2BE168EF29E35EC03F075
:1011800016BEF28E0D0E9EA8FED7AD6E0A0E9EA85C
:10119000FED7AD6E8182000CF40EF66E0F0EF76E68
:1011A000166AF2BE168EF29EEEDC16BEF28EF60EB9
:1011B000F66E0F0EF76E166AF2BE168EF29EE3DC26
:1011C00016BEF28E000EF66E100EF76E166AF2BEA6
:1011D000168EF29E35EC03F016BEF28E0D0E9EA812
:1011E000FED7AD6E0A0E9EA8FED7AD6E8184000CB0
:1011F0000A0EF66E100EF76E166AF2BE168EF29E8C
:10120000C2DC16BEF28E0C0EF66E100EF76E166A6B
:10121000F2BE168EF29EB7DC16BEF28E160EF66E7B
:10122000100EF76E166AF2BE168EF29E35EC03F0C3
:1012300016BEF28E0D0E9EA8FED7AD6E0A0E9EA8AB
:10124000FED7AD6E8186000C010E196E19500A088A
:10125000D8A070D019C01CF0166AF2BE168EF29E8D
:101260005EC299F25DC298F202019B6B19C09AF2BC
:1012700000013BEC01F016BEF28E02C08BF201C001
:101280008AF202010250585D45E303E157518A5D3D
:1012900041E281825EC28AF28A2B8A07D8B40DD0DD
:1012A000166AF2BE168EF29EFF0E9A6F000127ECB0
:1012B00001F016BEF28E0201F0D7166AF2BE168E4B
:1012C000F29E5DC29AF2000127EC01F016BEF28E8A
:1012D00081925EC28AF202018A2B8A07D8B40DD0AD
:1012E000166AF2BE168EF29EFF0E9A6F000127EC70
:1012F00001F016BEF28E0201F0D7166AF2BE168E0B
:10130000F29E5DC29AF2000127EC01F016BEF28E49
:1013100003D00201000114DF1750320801E10AD0A6
:101320001750330801E106D01750610801E102D0DF
:10133000192A8CD717503208D8A425D2010E1A6E5C
:101340001A501008D8A0D8D01AC01DF0166AF2BEE4
:10135000168EF29E5EC299F25DC298F202019B6BFC
:1013600019C09AF200013BEC01F016BEF28E02C0E9
:101370008BF201C08AF202010250585D47E303E19B
:101380008A51575D43E3818481825EC28AF28A2B4F
:101390008A07D8B40DD0166AF2BE168EF29EFF0EE2
:1013A0009A6F000127EC01F016BEF28E0201F0D711
:1013B000166AF2BE168EF29E5DC29AF2000127EC0A
:1013C00001F016BEF28E819281945EC28AF2020111
:1013D0008A2B8A07D8B40DD0166AF2BE168EF29EFA
:1013E000FF0E9A6F000127EC01F016BEF28E02018B
:1013F000F0D7166AF2BE168EF29E5DC29AF2000116
:1014000027EC01F016BEF28E5CD00201166AF2BE25
:10141000168EF29E5EC299F25DC298F29B6B1AC064
:101420009AF200013BEC01F016BEF28E02C08BF284
:1014300001C08AF2020102505A5D44E303E15951AE
:101440008A5D40E281845EC28AF28A2B8A07D8B420
:101450000DD0166AF2BE168EF29EFF0E9A6F000134
:1014600027EC01F016BEF28E0201F0D7166AF2BE2A
:10147000168EF29E5DC29AF2000127EC01F016BEB4
:10148000F28E81945EC28AF202018A2B8A07D8B456
:101490000DD0166AF2BE168EF29EFF0E9A6F0001F4
:1014A00027EC01F016BEF28E0201F0D7166AF2BEEA
:1014B000168EF29E5DC29AF2000127EC01F016BE74
:1014C000F28E020119500A0807E11C50090804E3D2
:1014D000000136DE06D002011A50100803E10001B7
:1014E0005BDE02011750330803E1000105D0020161
:1014F000192A1A2A000124D717503308D8A442D138
:10150000010E1B6E1B501408D8A03CD11BC01EF04E
:10151000166AF2BE168EF29E5EC299F25DC298F213
:1015200002019B6B19C09AF200013BEC01F016BE60
:10153000F28E02C08BF201C08AF202010250585DA5
:1015400049E303E157518A5D45E2818681848182C6
:101550005EC28AF28A2B8A07D8B40DD0166AF2BE10
:10156000168EF29EFF0E9A6F000127EC01F016BE58
:10157000F28E0201F0D7166AF2BE168EF29E5DC29E
:101580009AF2000127EC01F016BEF28E819681924C
:1015900081945EC28AF202018A2B8A07D8B40DD0E8
:1015A000166AF2BE168EF29EFF0E9A6F000127ECAD
:1015B00001F016BEF28E0201F0D7166AF2BE168E48
:1015C000F29E5DC29AF2000127EC01F016BEF28E87
:1015D000BBD00201166AF2BE168EF29E5EC299F26E
:1015E0005DC298F29B6B1AC09AF200013BEC01F0CD
:1015F00016BEF28E02C08BF201C08AF202010250C6
:101600005A5D47E303E159518A5D43E28186818453
:101610005EC28AF28A2B8A07D8B40DD0166AF2BE4F
:10162000168EF29EFF0E9A6F000127EC01F016BE97
:10163000F28E0201F0D7166AF2BE168EF29E5DC2DD
:101640009AF2000127EC01F016BEF28E8196819489
:101650005EC28AF202018A2B8A07D8B40DD0166ABC
:10166000F2BE168EF29EFF0E9A6F000127EC01F07B
:1016700016BEF28E0201F0D7166AF2BE168EF29EE8
:101680005DC29AF2000127EC01F016BEF28E5CD02A
:101690000201166AF2BE168EF29E5EC299F25DC219
:1016A00098F29B6B1BC09AF200013BEC01F016BE56
:1016B000F28E02C08BF201C08AF2020102505C5D20
:1016C00044E303E15B518A5D40E281865EC28AF2B7
:1016D0008A2B8A07D8B40DD0166AF2BE168EF29EF7
:1016E000FF0E9A6F000127EC01F016BEF28E020188
:1016F000F0D7166AF2BE168EF29E5DC29AF2000113
:1017000027EC01F016BEF28E81965EC28AF20201CB
:101710008A2B8A07D8B40DD0166AF2BE168EF29EB6
:10172000FF0E9A6F000127EC01F016BEF28E020147
:10173000F0D7166AF2BE168EF29E5DC29AF20001D2
:1017400027EC01F016BEF28E020119500A0806E1DC
:101750001C50090803E30001F3DC02011A501008D1
:1017600006E11D500F0803E3000116DD02011B50C6
:10177000140803E100013CDD0201192A1A2A1B2A80
:101780000001C0D671D317503308D8A46DD3010E11
:101790001B6E1B501408D8A0D7D01BC01EF0166AB1
:1017A000F2BE168EF29E5EC299F25DC298F20201FE
:1017B0009B6B19C09AF200013BEC01F016BEF28E51
:1017C00002C08BF201C08AF202010250585D47E369
:1017D00003E157518A5D43E2818681825EC28AF2CB
:1017E0008A2B8A07D8B40DD0166AF2BE168EF29EE6
:1017F000FF0E9A6F000127EC01F016BEF28E020177
:10180000F0D7166AF2BE168EF29E5DC29AF2000101
:1018100027EC01F016BEF28E819681925EC28AF2AA
:1018200002018A2B8A07D8B40DD0166AF2BE168E32
:10183000F29EFF0E9A6F000127EC01F016BEF28EA9
:101840000201F0D7166AF2BE168EF29E5DC29AF2BF
:10185000000127EC01F016BEF28E5CD00201166A80
:10186000F2BE168EF29E5EC299F25DC298F29B6B3A
:101870001BC09AF200013BEC01F016BEF28E02C0D2
:101880008BF201C08AF2020102505C5D44E303E185
:101890008A515B5D40E381865EC28AF28A2B8A07A9
:1018A000D8B40DD0166AF2BE168EF29EFF0E9A6F55
:1018B000000127EC01F016BEF28E0201F0D7166A85
:1018C000F2BE168EF29E5DC29AF2000127EC01F084
:1018D00016BEF28E81965EC28AF202018A2B8A07B8
:1018E000D8B40DD0166AF2BE168EF29EFF0E9A6F15
:1018F000000127EC01F016BEF28E0201F0D7166A45
:10190000F2BE168EF29E5DC29AF2000127EC01F043
:1019100016BEF28E020119500A0806E11C50090891
:1019200003E300010DDC02011B50140803E1000178
:101930005FDC02011750320803E1000105D002010B
:10194000192A1B2A000125D717503208D8A48CD297
:101950001E500408D8A043D11EC01BF01B50140811
:10196000D8A03CD11BC01EF0166AF2BE168EF29EA5
:101970005EC299F25DC298F202019B6B19C09AF2A5
:1019800000013BEC01F016BEF28E02C08BF201C0EA
:101990008AF202010250585D49E303E18A51575D22
:1019A00045E38184818681825EC28AF28A2B8A071E
:1019B000D8B40DD0166AF2BE168EF29EFF0E9A6F44
:1019C000000127EC01F016BEF28E0201F0D7166A74
:1019D000F2BE168EF29E5DC29AF2000127EC01F073
:1019E00016BEF28E8194819681925EC28AF20201C5
:1019F0008A2B8A07D8B40DD0166AF2BE168EF29ED4
:101A0000FF0E9A6F000127EC01F016BEF28E020164
:101A1000F0D7166AF2BE168EF29E5DC29AF20001EF
:101A200027EC01F016BEF28EBBD00201166AF2BEA0
:101A3000168EF29E5EC299F25DC298F29B6B1AC03E
:101A40009AF200013BEC01F016BEF28E02C08BF25E
:101A500001C08AF2020102505A5D47E303E18A5154
:101A6000595D43E3818481865EC28AF28A2B8A07AC
:101A7000D8B40DD0166AF2BE168EF29EFF0E9A6F83
:101A8000000127EC01F016BEF28E0201F0D7166AB3
:101A9000F2BE168EF29E5DC29AF2000127EC01F0B2
:101AA00016BEF28E819481965EC28AF202018A2B62
:101AB0008A07D8B40DD0166AF2BE168EF29EFF0EBB
:101AC0009A6F000127EC01F016BEF28E0201F0D7EA
:101AD000166AF2BE168EF29E5DC29AF2000127ECE3
:101AE00001F016BEF28E5CD00201166AF2BE168EAE
:101AF000F29E5EC299F25DC298F29B6B1BC09AF295
:101B000000013BEC01F016BEF28E02C08BF201C068
:101B10008AF2020102505C5D44E303E18A515B5D9D
:101B200040E381865EC28AF28A2B8A07D8B40DD040
:101B3000166AF2BE168EF29EFF0E9A6F000127EC17
:101B400001F016BEF28E0201F0D7166AF2BE168EB2
:101B5000F29E5DC29AF2000127EC01F016BEF28EF1
:101B600081965EC28AF202018A2B8A07D8B40DD010
:101B7000166AF2BE168EF29EFF0E9A6F000127ECD7
:101B800001F016BEF28E0201F0D7166AF2BE168E72
:101B9000F29E5DC29AF2000127EC01F016BEF28EB1
:101BA000020119500A0807E11C50090804E300016A
:101BB000A0EC08F002011B50140804E10001F8EC4D
:101BC00008F002011A50100804E10001CCEC08F002
:101BD0000201192A1A2A1B2A0001C0D645D1010E7A
:101BE0001A6E1A501008D8A03FD11AC01DF0166AFC
:101BF000F2BE168EF29E5EC299F25DC298F20201AA
:101C00009B6B19C09AF200013BEC01F016BEF28EFC
:101C100002C08BF201C08AF202010250585D49E312
:101C200003E18A51575D45E38184818681825EC2EA
:101C30008AF28A2B8A07D8B40DD0166AF2BE168EA5
:101C4000F29EFF0E9A6F000127EC01F016BEF28E95
:101C50000201F0D7166AF2BE168EF29E5DC29AF2AB
:101C6000000127EC01F016BEF28E819481968192DC
:101C70005EC28AF202018A2B8A07D8B40DD0166A96
:101C8000F2BE168EF29EFF0E9A6F000127EC01F055
:101C900016BEF28E0201F0D7166AF2BE168EF29EC2
:101CA0005DC29AF2000127EC01F016BEF28EBBD0A5
:101CB0000201166AF2BE168EF29E5EC299F25DC2F3
:101CC00098F29B6B1BC09AF200013BEC01F016BE30
:101CD000F28E02C08BF201C08AF2020102505C5DFA
:101CE00047E303E18A515B5D43E3818481865EC201
:101CF0008AF28A2B8A07D8B40DD0166AF2BE168EE5
:101D0000F29EFF0E9A6F000127EC01F016BEF28ED4
:101D10000201F0D7166AF2BE168EF29E5DC29AF2EA
:101D2000000127EC01F016BEF28E819481965EC20E
:101D30008AF202018A2B8A07D8B40DD0166AF2BE45
:101D4000168EF29EFF0E9A6F000127EC01F016BE70
:101D5000F28E0201F0D7166AF2BE168EF29E5DC2B6
:101D60009AF2000127EC01F016BEF28E5CD002015F
:101D7000166AF2BE168EF29E5EC299F25DC298F2AB
:101D80009B6B1AC09AF200013BEC01F016BEF28E7A
:101D900002C08BF201C08AF2020102505A5D44E394
:101DA00003E18A51595D40E381845EC28AF28A2B45
:101DB0008A07D8B40DD0166AF2BE168EF29EFF0EB8
:101DC0009A6F000127EC01F016BEF28E0201F0D7E7
:101DD000166AF2BE168EF29E5DC29AF2000127ECE0
:101DE00001F016BEF28E81945EC28AF202018A2B45
:101DF0008A07D8B40DD0166AF2BE168EF29EFF0E78
:101E00009A6F000127EC01F016BEF28E0201F0D7A6
:101E1000166AF2BE168EF29E5DC29AF2000127EC9F
:101E200001F016BEF28E020119500A0807E11C509B
:101E3000090804E30001A0EC08F002011B5014089B
:101E400007E11E50130804E30001F8EC08F002015A
:101E50001A50100804E10001CCEC08F00201192A24
:101E60001B2A1A2A0001BDD600EF22F0010E1A6EBD
:101E70001A5010086DE31AC01DF0166AF2BE168ED5
:101E8000F29E5EC299F25DC298F202019B6B1AC08B
:101E90009AF200013BEC01F016BEF28E02C08BF20A
:101EA00001C08AF2020102505A5D45E303E1595133
:101EB0008A5D41E281845EC28AF28A2B8A07D8B4A5
:101EC0000DD0166AF2BE168EF29EFF0E9A6F0001BA
:101ED00027EC01F016BEF28E0201F0D7166AF2BEB0
:101EE000168EF29E5DC29AF2000127EC01F016BE3A
:101EF000F28E81945EC28AF202018A2B8A07D8B4DC
:101F00000DD0166AF2BE168EF29EFF0E9A6F000179
:101F100027EC01F016BEF28E0201F0D7166AF2BE6F
:101F2000168EF29E5DC29AF2000127EC01F016BEF9
:101F3000F28E04D002010001CCEC08F017503108F9
:101F400001E106D01750330801E102D01A2A90D7D8
:101F500017503108D8A471D31D500608D8A0E0D07E
:101F60001DC01AF01A501008D8A0D9D01AC01DF000
:101F7000166AF2BE168EF29E5EC299F25DC298F2A9
:101F800002019B6B19C09AF200013BEC01F016BEF6
:101F9000F28E02C08BF201C08AF202010250585D3B
:101FA00047E303E18A51575D43E3818481825EC246
:101FB0008AF28A2B8A07D8B40DD0166AF2BE168E22
:101FC000F29EFF0E9A6F000127EC01F016BEF28E12
:101FD0000201F0D7166AF2BE168EF29E5DC29AF228
:101FE000000127EC01F016BEF28E819281945EC250
:101FF0008AF202018A2B8A07D8B40DD0166AF2BE83
:10200000168EF29EFF0E9A6F000127EC01F016BEAD
:10201000F28E0201F0D7166AF2BE168EF29E5DC2F3
:102020009AF2000127EC01F016BEF28E5CD002019C
:10203000166AF2BE168EF29E5EC299F25DC298F2E8
:102040009B6B1AC09AF200013BEC01F016BEF28EB7
:1020500002C08BF201C08AF2020102505A5D44E3D1
:1020600003E159518A5D40E281845EC28AF28A2B83
:102070008A07D8B40DD0166AF2BE168EF29EFF0EF5
:102080009A6F000127EC01F016BEF28E0201F0D724
:10209000166AF2BE168EF29E5DC29AF2000127EC1D
:1020A00001F016BEF28E81945EC28AF202018A2B82
:1020B0008A07D8B40DD0166AF2BE168EF29EFF0EB5
:1020C0009A6F000127EC01F016BEF28E0201F0D7E4
:1020D000166AF2BE168EF29E5DC29AF2000127ECDD
:1020E00001F016BEF28E020119500A0807E11C50D9
:1020F000090804E30001A0EC08F002011A501008DE
:1021000004E10001CCEC08F002011750330803E1B0
:10211000000105D00201192A1A2A000123D7E2D0B2
:10212000010E196E19500A08D8A0DCD019C01CF095
:10213000166AF2BE168EF29E5EC299F25DC298F2E7
:1021400002019B6B1AC09AF200013BEC01F016BE33
:10215000F28E02C08BF201C08AF2020102505A5D77
:1021600047E303E18A51595D43E3818481825EC282
:102170008AF28A2B8A07D8B40DD0166AF2BE168E60
:10218000F29EFF0E9A6F000127EC01F016BEF28E50
:102190000201F0D7166AF2BE168EF29E5DC29AF266
:1021A000000127EC01F016BEF28E819281945EC28E
:1021B0008AF202018A2B8A07D8B40DD0166AF2BEC1
:1021C000168EF29EFF0E9A6F000127EC01F016BEEC
:1021D000F28E0201F0D7166AF2BE168EF29E5DC232
:1021E0009AF2000127EC01F016BEF28E5CD00201DB
:1021F000166AF2BE168EF29E5EC299F25DC298F227
:102200009B6B19C09AF200013BEC01F016BEF28EF6
:1022100002C08BF201C08AF202010250585D44E311
:1022200003E157518A5D40E281825EC28AF28A2BC5
:102230008A07D8B40DD0166AF2BE168EF29EFF0E33
:102240009A6F000127EC01F016BEF28E0201F0D762
:10225000166AF2BE168EF29E5DC29AF2000127EC5B
:1022600001F016BEF28E81925EC28AF202018A2BC2
:102270008A07D8B40DD0166AF2BE168EF29EFF0EF3
:102280009A6F000127EC01F016BEF28E0201F0D722
:10229000166AF2BE168EF29E5DC29AF2000127EC1B
:1022A00001F016BEF28E020119500A0807E11C5017
:1022B000090804E30001A0EC08F002011A5010081C
:1022C00007E11D500F0804E30001CCEC08F0020107
:1022D0001750330803E1000105D002011A2A192A18
:1022E000000120D717503308D8A4A6D1010E1B6EC9
:1022F0001B501408D8A0A0D11BC01EF0166AF2BE55
:10230000168EF29E5EC299F25DC298F202019B6B3C
:1023100019C09AF200013BEC01F016BEF28E02C029
:102320008BF201C08AF202010250585DD8A0A9D0F8
:1023300004E157518A5DD8B0A4D0166AF2BE168E59
:10234000F29E5EC299F25DC298F29B6B1AC09AF23D
:1023500000013BEC01F016BEF28E02C08BF201C010
:102360008AF2020102505A5D49E303E18A51595D44
:1023700045E38184818681825EC28AF28A2B8A0744
:10238000D8B40DD0166AF2BE168EF29EFF0E9A6F6A
:10239000000127EC01F016BEF28E0201F0D7166A9A
:1023A000F2BE168EF29E5DC29AF2000127EC01F099
:1023B00016BEF28E8194819681925EC28AF20201EB
:1023C0008A2B8A07D8B40DD0166AF2BE168EF29EFA
:1023D000FF0E9A6F000127EC01F016BEF28E02018B
:1023E000F0D7166AF2BE168EF29E5DC29AF2000116
:1023F00027EC01F016BEF28E42D002018186818266
:102400005EC28AF28A2B8A07D8B40DD0166AF2BE51
:10241000168EF29EFF0E9A6F000127EC01F016BE99
:10242000F28E0201F0D7166AF2BE168EF29E5DC2DF
:102430009AF2000127EC01F016BEF28E819681928D
:102440005EC28AF202018A2B8A07D8B40DD0166ABE
:10245000F2BE168EF29EFF0E9A6F000127EC01F07D
:1024600016BEF28E0201F0D7166AF2BE168EF29EEA
:102470005DC29AF2000127EC01F016BEF28EBBD0CD
:102480000201166AF2BE168EF29E5EC299F25DC21B
:1024900098F29B6B1AC09AF200013BEC01F016BE59
:1024A000F28E02C08BF201C08AF2020102505A5D24
:1024B00047E303E159518A5D43E2818681845EC22C
:1024C0008AF28A2B8A07D8B40DD0166AF2BE168E0D
:1024D000F29EFF0E9A6F000127EC01F016BEF28EFD
:1024E0000201F0D7166AF2BE168EF29E5DC29AF213
:1024F000000127EC01F016BEF28E819681945EC237
:102500008AF202018A2B8A07D8B40DD0166AF2BE6D
:10251000168EF29EFF0E9A6F000127EC01F016BE98
:10252000F28E0201F0D7166AF2BE168EF29E5DC2DE
:102530009AF2000127EC01F016BEF28E5CD0020187
:10254000166AF2BE168EF29E5EC299F25DC298F2D3
:102550009B6B1BC09AF200013BEC01F016BEF28EA1
:1025600002C08BF201C08AF2020102505C5D44E3BA
:1025700003E15B518A5D40E281865EC28AF28A2B6A
:102580008A07D8B40DD0166AF2BE168EF29EFF0EE0
:102590009A6F000127EC01F016BEF28E0201F0D70F
:1025A000166AF2BE168EF29E5DC29AF2000127EC08
:1025B00001F016BEF28E81965EC28AF202018A2B6B
:1025C0008A07D8B40DD0166AF2BE168EF29EFF0EA0
:1025D0009A6F000127EC01F016BEF28E0201F0D7CF
:1025E000166AF2BE168EF29E5DC29AF2000127ECC8
:1025F00001F016BEF28E020119500A0807E11C50C4
:10260000090804E30001A0EC08F002011A501008C8
:1026100007E11D500F0804E30001CCEC08F00201B3
:102620001B50140804E10001F8EC08F00201192A1B
:102630001A2A1B2A00015CD626D217503308D8A4C8
:1026400022D2010E1B6E1B501408D8A0D9D01BC07B
:102650001EF0166AF2BE168EF29E5EC299F25DC23E
:1026600098F202019B6B1AC09AF200013BEC01F058
:1026700016BEF28E02C08BF201C08AF20201025035
:102680005A5D47E303E159518A5D43E281868184C3
:102690005EC28AF28A2B8A07D8B40DD0166AF2BEBF
:1026A000168EF29EFF0E9A6F000127EC01F016BE07
:1026B000F28E0201F0D7166AF2BE168EF29E5DC24D
:1026C0009AF2000127EC01F016BEF28E81968194F9
:1026D0005EC28AF202018A2B8A07D8B40DD0166A2C
:1026E000F2BE168EF29EFF0E9A6F000127EC01F0EB
:1026F00016BEF28E0201F0D7166AF2BE168EF29E58
:102700005DC29AF2000127EC01F016BEF28E5CD099
:102710000201166AF2BE168EF29E5EC299F25DC288
:1027200098F29B6B1BC09AF200013BEC01F016BEC5
:10273000F28E02C08BF201C08AF2020102505C5D8F
:1027400044E303E18A515B5D40E381865EC28AF225
:102750008A2B8A07D8B40DD0166AF2BE168EF29E66
:10276000FF0E9A6F000127EC01F016BEF28E0201F7
:10277000F0D7166AF2BE168EF29E5DC29AF2000182
:1027800027EC01F016BEF28E81965EC28AF202013B
:102790008A2B8A07D8B40DD0166AF2BE168EF29E26
:1027A000FF0E9A6F000127EC01F016BEF28E0201B7
:1027B000F0D7166AF2BE168EF29E5DC29AF2000142
:1027C00027EC01F016BEF28E02011A50100807E144
:1027D0001D500F0804E30001CCEC08F002011B506F
:1027E000140804E10001F8EC08F002011750310868
:1027F00003E1000105D002011A2A1B2A000123D798
:1028000017503108D8A43FD11EC01BF01B5014082C
:10281000D8A039D11BC01EF0166AF2BE168EF29EE9
:102820005EC299F25DC298F202019B6B19C09AF2E6
:1028300000013BEC01F016BEF28E02C08BF201C02B
:102840008AF202010250585D49E303E18A51575D63
:1028500045E38184818681825EC28AF28A2B8A075F
:10286000D8B40DD0166AF2BE168EF29EFF0E9A6F85
:10287000000127EC01F016BEF28E0201F0D7166AB5
:10288000F2BE168EF29E5DC29AF2000127EC01F0B4
:1028900016BEF28E8194819681925EC28AF2020106
:1028A0008A2B8A07D8B40DD0166AF2BE168EF29E15
:1028B000FF0E9A6F000127EC01F016BEF28E0201A6
:1028C000F0D7166AF2BE168EF29E5DC29AF2000131
:1028D00027EC01F016BEF28EBBD00201166AF2BEE2
:1028E000168EF29E5EC299F25DC298F29B6B1AC080
:1028F0009AF200013BEC01F016BEF28E02C08BF2A0
:1029000001C08AF2020102505A5D47E303E18A5195
:10291000595D43E3818481865EC28AF28A2B8A07ED
:10292000D8B40DD0166AF2BE168EF29EFF0E9A6FC4
:10293000000127EC01F016BEF28E0201F0D7166AF4
:10294000F2BE168EF29E5DC29AF2000127EC01F0F3
:1029500016BEF28E819481965EC28AF202018A2BA3
:102960008A07D8B40DD0166AF2BE168EF29EFF0EFC
:102970009A6F000127EC01F016BEF28E0201F0D72B
:10298000166AF2BE168EF29E5DC29AF2000127EC24
:1029900001F016BEF28E5CD00201166AF2BE168EEF
:1029A000F29E5EC299F25DC298F29B6B1BC09AF2D6
:1029B00000013BEC01F016BEF28E02C08BF201C0AA
:1029C0008AF2020102505C5D44E303E18A515B5DDF
:1029D00040E381865EC28AF28A2B8A07D8B40DD082
:1029E000166AF2BE168EF29EFF0E9A6F000127EC59
:1029F00001F016BEF28E0201F0D7166AF2BE168EF4
:102A0000F29E5DC29AF2000127EC01F016BEF28E32
:102A100081965EC28AF202018A2B8A07D8B40DD051
:102A2000166AF2BE168EF29EFF0E9A6F000127EC18
:102A300001F016BEF28E0201F0D7166AF2BE168EB3
:102A4000F29E5DC29AF2000127EC01F016BEF28EF2
:102A5000020119500A0804E10001A0EC08F002018B
:102A60001B50140804E10001F8EC08F002011A50B0
:102A7000100804E10001CCEC08F00201192A1A2A1E
:102A80001B2A0001C3D60CEF22F0010E1B6E1A5058
:102A900014086DE31BC01EF0166AF2BE168EF29E7D
:102AA0005EC299F25DC298F202019B6B1BC09AF262
:102AB00000013BEC01F016BEF28E02C08BF201C0A9
:102AC0008AF2020102505C5D45E303E15B518A5DDD
:102AD00041E281865EC28AF28A2B8A07D8B40DD081
:102AE000166AF2BE168EF29EFF0E9A6F000127EC58
:102AF00001F016BEF28E0201F0D7166AF2BE168EF3
:102B0000F29E5DC29AF2000127EC01F016BEF28E31
:102B100081965EC28AF202018A2B8A07D8B40DD050
:102B2000166AF2BE168EF29EFF0E9A6F000127EC17
:102B300001F016BEF28E0201F0D7166AF2BE168EB2
:102B4000F29E5DC29AF2000127EC01F016BEF28EF1
:102B500004D002010001F8EC08F01750310801E13F
:102B600006D01750320801E102D01B2A90D7175027
:102B70003108D8A413EF1AF01E500A08D8A0E0D0EC
:102B80001EC01BF01B501408D8A0D9D01BC01EF0CB
:102B9000166AF2BE168EF29E5EC299F25DC298F27D
:102BA00002019B6B19C09AF200013BEC01F016BECA
:102BB000F28E02C08BF201C08AF202010250585D0F
:102BC00047E303E18A51575D43E3818681825EC218
:102BD0008AF28A2B8A07D8B40DD0166AF2BE168EF6
:102BE000F29EFF0E9A6F000127EC01F016BEF28EE6
:102BF0000201F0D7166AF2BE168EF29E5DC29AF2FC
:102C0000000127EC01F016BEF28E819281965EC221
:102C10008AF202018A2B8A07D8B40DD0166AF2BE56
:102C2000168EF29EFF0E9A6F000127EC01F016BE81
:102C3000F28E0201F0D7166AF2BE168EF29E5DC2C7
:102C40009AF2000127EC01F016BEF28E5CD0020170
:102C5000166AF2BE168EF29E5EC299F25DC298F2BC
:102C60009B6B1BC09AF200013BEC01F016BEF28E8A
:102C700002C08BF201C08AF2020102505C5D44E3A3
:102C800003E15B518A5D40E281865EC28AF28A2B53
:102C90008A07D8B40DD0166AF2BE168EF29EFF0EC9
:102CA0009A6F000127EC01F016BEF28E0201F0D7F8
:102CB000166AF2BE168EF29E5DC29AF2000127ECF1
:102CC00001F016BEF28E81965EC28AF202018A2B54
:102CD0008A07D8B40DD0166AF2BE168EF29EFF0E89
:102CE0009A6F000127EC01F016BEF28E0201F0D7B8
:102CF000166AF2BE168EF29E5DC29AF2000127ECB1
:102D000001F016BEF28E020119500A0807E11C50AC
:102D1000090804E30001A0EC08F002011B501408AC
:102D200004E10001F8EC08F002011750320803E159
:102D3000000105D00201192A1B2A000123D7DFD088
:102D4000010E196E19500A08D8A0D9D019C01CF06C
:102D5000166AF2BE168EF29E5EC299F25DC298F2BB
:102D600002019B6B1BC09AF200013BEC01F016BE06
:102D7000F28E02C08BF201C08AF2020102505C5D49
:102D800047E303E18A515B5D43E3818681825EC252
:102D90008AF28A2B8A07D8B40DD0166AF2BE168E34
:102DA000F29EFF0E9A6F000127EC01F016BEF28E24
:102DB0000201F0D7166AF2BE168EF29E5DC29AF23A
:102DC000000127EC01F016BEF28E819281965EC260
:102DD0008AF202018A2B8A07D8B40DD0166AF2BE95
:102DE000168EF29EFF0E9A6F000127EC01F016BEC0
:102DF000F28E0201F0D7166AF2BE168EF29E5DC206
:102E00009AF2000127EC01F016BEF28E5CD00201AE
:102E1000166AF2BE168EF29E5EC299F25DC298F2FA
:102E20009B6B19C09AF200013BEC01F016BEF28ECA
:102E300002C08BF201C08AF202010250585D44E3E5
:102E400003E157518A5D40E281825EC28AF28A2B99
:102E50008A07D8B40DD0166AF2BE168EF29EFF0E07
:102E60009A6F000127EC01F016BEF28E0201F0D736
:102E7000166AF2BE168EF29E5DC29AF2000127EC2F
:102E800001F016BEF28E81925EC28AF202018A2B96
:102E90008A07D8B40DD0166AF2BE168EF29EFF0EC7
:102EA0009A6F000127EC01F016BEF28E0201F0D7F6
:102EB000166AF2BE168EF29E5DC29AF2000127ECEF
:102EC00001F016BEF28E020119500A0804E1000159
:102ED000A0EC08F002011B50140807E11E50130873
:102EE00004E30001F8EC08F002011750320803E196
:102EF000000105D002011B2A192A000123D717500F
:102F00003208D8A48ED21E500408D8A046D1010E93
:102F10001B6E1B501408D8A03FD11BC01EF0166AB0
:102F2000F2BE168EF29E5EC299F25DC298F2020166
:102F30009B6B19C09AF200013BEC01F016BEF28EB9
:102F400002C08BF201C08AF202010250585D49E3CF
:102F500003E157518A5D45E28184818681825EC2A8
:102F60008AF28A2B8A07D8B40DD0166AF2BE168E62
:102F7000F29EFF0E9A6F000127EC01F016BEF28E52
:102F80000201F0D7166AF2BE168EF29E5DC29AF268
:102F9000000127EC01F016BEF28E81948196819299
:102FA0005EC28AF202018A2B8A07D8B40DD0166A53
:102FB000F2BE168EF29EFF0E9A6F000127EC01F012
:102FC00016BEF28E0201F0D7166AF2BE168EF29E7F
:102FD0005DC29AF2000127EC01F016BEF28EBBD062
:102FE0000201166AF2BE168EF29E5EC299F25DC2B0
:102FF00098F29B6B1AC09AF200013BEC01F016BEEE
:10300000F28E02C08BF201C08AF2020102505A5DB8
:1030100047E303E159518A5D43E2818681845EC2C0
:103020008AF28A2B8A07D8B40DD0166AF2BE168EA1
:10303000F29EFF0E9A6F000127EC01F016BEF28E91
:103040000201F0D7166AF2BE168EF29E5DC29AF2A7
:10305000000127EC01F016BEF28E819681945EC2CB
:103060008AF202018A2B8A07D8B40DD0166AF2BE02
:10307000168EF29EFF0E9A6F000127EC01F016BE2D
:10308000F28E0201F0D7166AF2BE168EF29E5DC273
:103090009AF2000127EC01F016BEF28E5CD002011C
:1030A000166AF2BE168EF29E5EC299F25DC298F268
:1030B0009B6B1BC09AF200013BEC01F016BEF28E36
:1030C00002C08BF201C08AF2020102505C5D44E34F
:1030D00003E15B518A5D40E281865EC28AF28A2BFF
:1030E0008A07D8B40DD0166AF2BE168EF29EFF0E75
:1030F0009A6F000127EC01F016BEF28E0201F0D7A4
:10310000166AF2BE168EF29E5DC29AF2000127EC9C
:1031100001F016BEF28E81965EC28AF202018A2BFF
:103120008A07D8B40DD0166AF2BE168EF29EFF0E34
:103130009A6F000127EC01F016BEF28E0201F0D763
:10314000166AF2BE168EF29E5DC29AF2000127EC5C
:1031500001F016BEF28E020119500A0807E11C5058
:10316000090804E30001A0EC08F002011A5010085D
:1031700007E11D500F0804E30001CCEC08F0020148
:103180001B50140804E10001F8EC08F00201192AB0
:103190001A2A1B2A0001BDD644D1010E1A6E1A50FC
:1031A0001008D8A03ED11AC01DF0166AF2BE168EC5
:1031B000F29E5EC299F25DC298F202019B6B19C049
:1031C0009AF200013BEC01F016BEF28E02C08BF2C7
:1031D00001C08AF202010250585DD8A0A9D004E1D2
:1031E00057518A5DD8B0A4D0166AF2BE168EF29EF0
:1031F0005EC299F25DC298F29B6B1BC09AF200010D
:103200003BEC01F016BEF28E02C08BF201C08AF2D6
:10321000020102505C5D49E303E15B518A5D45E2D6
:103220008184818681825EC28AF28A2B8A07D8B421
:103230000DD0166AF2BE168EF29EFF0E9A6F000136
:1032400027EC01F016BEF28E0201F0D7166AF2BE2C
:10325000168EF29E5DC29AF2000127EC01F016BEB6
:10326000F28E8194819681925EC28AF202018A2B4B
:103270008A07D8B40DD0166AF2BE168EF29EFF0EE3
:103280009A6F000127EC01F016BEF28E0201F0D712
:10329000166AF2BE168EF29E5DC29AF2000127EC0B
:1032A00001F016BEF28E42D00201818481825EC29C
:1032B0008AF28A2B8A07D8B40DD0166AF2BE168E0F
:1032C000F29EFF0E9A6F000127EC01F016BEF28EFF
:1032D0000201F0D7166AF2BE168EF29E5DC29AF215
:1032E000000127EC01F016BEF28E819481925EC23D
:1032F0008AF202018A2B8A07D8B40DD0166AF2BE70
:10330000168EF29EFF0E9A6F000127EC01F016BE9A
:10331000F28E0201F0D7166AF2BE168EF29E5DC2E0
:103320009AF2000127EC01F016BEF28E5CD0020189
:10333000166AF2BE168EF29E5EC299F25DC298F2D5
:103340009B6B1AC09AF200013BEC01F016BEF28EA4
:1033500002C08BF201C08AF2020102505A5D44E3BE
:1033600003E159518A5D40E281845EC28AF28A2B70
:103370008A07D8B40DD0166AF2BE168EF29EFF0EE2
:103380009A6F000127EC01F016BEF28E0201F0D711
:10339000166AF2BE168EF29E5DC29AF2000127EC0A
:1033A00001F016BEF28E81945EC28AF202018A2B6F
:1033B0008A07D8B40DD0166AF2BE168EF29EFF0EA2
:1033C0009A6F000127EC01F016BEF28E0201F0D7D1
:1033D000166AF2BE168EF29E5DC29AF2000127ECCA
:1033E00001F016BEF28E020119500A0807E11C50C6
:1033F000090804E30001A0EC08F002011A501008CB
:1034000004E10001CCEC08F002011B50140804E1B7
:103410000001F8EC08F00201192A1B2A1A2A0001FF
:10342000BED64EEF21F017503208D8A44EEF21F04F
:103430001E500408D8A0E7EF1DF0010E1B6E1B50B4
:103440001408D8A0D9D01BC01EF0166AF2BE168E82
:10345000F29E5EC299F25DC298F202019B6B1AC0A5
:103460009AF200013BEC01F016BEF28E02C08BF224
:1034700001C08AF2020102505A5D47E303E159514B
:103480008A5D43E2818681845EC28AF28A2B8A0742
:10349000D8B40DD0166AF2BE168EF29EFF0E9A6F49
:1034A000000127EC01F016BEF28E0201F0D7166A79
:1034B000F2BE168EF29E5DC29AF2000127EC01F078
:1034C00016BEF28E819681945EC28AF202018A2B28
:1034D0008A07D8B40DD0166AF2BE168EF29EFF0E81
:1034E0009A6F000127EC01F016BEF28E0201F0D7B0
:1034F000166AF2BE168EF29E5DC29AF2000127ECA9
:1035000001F016BEF28E5CD00201166AF2BE168E73
:10351000F29E5EC299F25DC298F29B6B1BC09AF25A
:1035200000013BEC01F016BEF28E02C08BF201C02E
:103530008AF2020102505C5D44E303E18A515B5D63
:1035400040E381865EC28AF28A2B8A07D8B40DD006
:10355000166AF2BE168EF29EFF0E9A6F000127ECDD
:1035600001F016BEF28E0201F0D7166AF2BE168E78
:10357000F29E5DC29AF2000127EC01F016BEF28EB7
:1035800081965EC28AF202018A2B8A07D8B40DD0D6
:10359000166AF2BE168EF29EFF0E9A6F000127EC9D
:1035A00001F016BEF28E0201F0D7166AF2BE168E38
:1035B000F29E5DC29AF2000127EC01F016BEF28E77
:1035C00002011A50100807E11D500F0804E3000122
:1035D000CCEC08F002011B50140804E10001F8ECE7
:1035E00008F002011750310803E1000105D0020183
:1035F0001A2A1B2A000123D717503108D8A4E6D273
:103600001E500A08D8A0A1D11EC01BF01B501408E0
:10361000D8A09AD11BC01EF0166AF2BE168EF29E7A
:103620005EC299F25DC298F202019B6B19C09AF2D8
:1036300000013BEC01F016BEF28E02C08BF201C01D
:103640008AF202010250585DD8A0A9D004E18A5143
:10365000575DD8A0A4D0166AF2BE168EF29E5EC246
:1036600099F25DC298F29B6B1AC09AF200013BEC92
:1036700001F016BEF28E02C08BF201C08AF2020186
:1036800002505A5D49E303E18A51595D45E3818463
:10369000818681825EC28AF28A2B8A07D8B40DD0D5
:1036A000166AF2BE168EF29EFF0E9A6F000127EC8C
:1036B00001F016BEF28E0201F0D7166AF2BE168E27
:1036C000F29E5DC29AF2000127EC01F016BEF28E66
:1036D0008194819681925EC28AF202018A2B8A07C6
:1036E000D8B40DD0166AF2BE168EF29EFF0E9A6FF7
:1036F000000127EC01F016BEF28E0201F0D7166A27
:10370000F2BE168EF29E5DC29AF2000127EC01F025
:1037100016BEF28E42D00201818681825EC28AF29A
:103720008A2B8A07D8B40DD0166AF2BE168EF29E86
:10373000FF0E9A6F000127EC01F016BEF28E020117
:10374000F0D7166AF2BE168EF29E5DC29AF20001A2
:1037500027EC01F016BEF28E819681925EC28AF24B
:1037600002018A2B8A07D8B40DD0166AF2BE168ED3
:10377000F29EFF0E9A6F000127EC01F016BEF28E4A
:103780000201F0D7166AF2BE168EF29E5DC29AF260
:10379000000127EC01F016BEF28EBBD00201166AC2
:1037A000F2BE168EF29E5EC299F25DC298F29B6BDB
:1037B0001AC09AF200013BEC01F016BEF28E02C074
:1037C0008BF201C08AF2020102505A5D47E303E125
:1037D0008A51595D43E3818481865EC28AF28A2BD5
:1037E0008A07D8B40DD0166AF2BE168EF29EFF0E6E
:1037F0009A6F000127EC01F016BEF28E0201F0D79D
:10380000166AF2BE168EF29E5DC29AF2000127EC95
:1038100001F016BEF28E819481965EC28AF2020198
:103820008A2B8A07D8B40DD0166AF2BE168EF29E85
:10383000FF0E9A6F000127EC01F016BEF28E020116
:10384000F0D7166AF2BE168EF29E5DC29AF20001A1
:1038500027EC01F016BEF28E5CD00201166AF2BEB1
:10386000168EF29E5EC299F25DC298F29B6B1BC0EF
:103870009AF200013BEC01F016BEF28E02C08BF210
:1038800001C08AF2020102505C5D44E303E18A5107
:103890005B5D40E381865EC28AF28A2B8A07D8B4D8
:1038A0000DD0166AF2BE168EF29EFF0E9A6F0001C0
:1038B00027EC01F016BEF28E0201F0D7166AF2BEB6
:1038C000168EF29E5DC29AF2000127EC01F016BE40
:1038D000F28E81965EC28AF202018A2B8A07D8B4E0
:1038E0000DD0166AF2BE168EF29EFF0E9A6F000180
:1038F00027EC01F016BEF28E0201F0D7166AF2BE76
:10390000168EF29E5DC29AF2000127EC01F016BEFF
:10391000F28E020119500A0804E10001A0EC08F03F
:1039200002011B50140804E10001F8EC08F0020148
:103930001A50100804E10001CCEC08F00201192A29
:103940001A2A1B2A000162D641D11CC019F0195055
:103950000A08D8A03BD119C01CF0166AF2BE168E18
:10396000F29E5EC299F25DC298F202019B6B1AC090
:103970009AF200013BEC01F016BEF28E02C08BF20F
:1039800001C08AF2020102505A5DD8A0A9D004E118
:103990008A51595DD8A0A4D0166AF2BE168EF29E46
:1039A0005EC299F25DC298F29B6B1BC09AF2000155
:1039B0003BEC01F016BEF28E02C08BF201C08AF21F
:1039C000020102505C5D49E303E18A515B5D45E31E
:1039D0008184818681825EC28AF28A2B8A07D8B46A
:1039E0000DD0166AF2BE168EF29EFF0E9A6F00017F
:1039F00027EC01F016BEF28E0201F0D7166AF2BE75
:103A0000168EF29E5DC29AF2000127EC01F016BEFE
:103A1000F28E8194819681925EC28AF202018A2B93
:103A20008A07D8B40DD0166AF2BE168EF29EFF0E2B
:103A30009A6F000127EC01F016BEF28E0201F0D75A
:103A4000166AF2BE168EF29E5DC29AF2000127EC53
:103A500001F016BEF28E42D00201818481825EC2E4
:103A60008AF28A2B8A07D8B40DD0166AF2BE168E57
:103A7000F29EFF0E9A6F000127EC01F016BEF28E47
:103A80000201F0D7166AF2BE168EF29E5DC29AF25D
:103A9000000127EC01F016BEF28E819481925EC285
:103AA0008AF202018A2B8A07D8B40DD0166AF2BEB8
:103AB000168EF29EFF0E9A6F000127EC01F016BEE3
:103AC000F28E0201F0D7166AF2BE168EF29E5DC229
:103AD0009AF2000127EC01F016BEF28E5CD00201D2
:103AE000166AF2BE168EF29E5EC299F25DC298F21E
:103AF0009B6B19C09AF200013BEC01F016BEF28EEE
:103B000002C08BF201C08AF202010250585D44E308
:103B100003E18A51575D40E381825EC28AF28A2BBB
:103B20008A07D8B40DD0166AF2BE168EF29EFF0E2A
:103B30009A6F000127EC01F016BEF28E0201F0D759
:103B4000166AF2BE168EF29E5DC29AF2000127EC52
:103B500001F016BEF28E81925EC28AF202018A2BB9
:103B60008A07D8B40DD0166AF2BE168EF29EFF0EEA
:103B70009A6F000127EC01F016BEF28E0201F0D719
:103B8000166AF2BE168EF29E5DC29AF2000127EC12
:103B900001F016BEF28E020119500A0804E100017C
:103BA000A0EC08F002011B50140804E10001F8EC3D
:103BB00008F002011A50100804E10001CCEC08F0F2
:103BC00002011B2A1A2A192A0001C1D667D3010E45
:103BD0001A6E1A501008D8A0D6D01AC01DF0166A56
:103BE000F2BE168EF29E5EC299F25DC298F202019A
:103BF0009B6B1BC09AF200013BEC01F016BEF28EEB
:103C000002C08BF201C08AF2020102505C5D47E300
:103C100003E15B518A5D43E2818681845EC28AF260
:103C20008A2B8A07D8B40DD0166AF2BE168EF29E81
:103C3000FF0E9A6F000127EC01F016BEF28E020112
:103C4000F0D7166AF2BE168EF29E5DC29AF200019D
:103C500027EC01F016BEF28E819681945EC28AF244
:103C600002018A2B8A07D8B40DD0166AF2BE168ECE
:103C7000F29EFF0E9A6F000127EC01F016BEF28E45
:103C80000201F0D7166AF2BE168EF29E5DC29AF25B
:103C9000000127EC01F016BEF28E5CD00201166A1C
:103CA000F2BE168EF29E5EC299F25DC298F29B6BD6
:103CB0001AC09AF200013BEC01F016BEF28E02C06F
:103CC0008BF201C08AF2020102505A5D44E303E123
:103CD0008A51595D40E381845EC28AF28A2B8A0749
:103CE000D8B40DD0166AF2BE168EF29EFF0E9A6FF1
:103CF000000127EC01F016BEF28E0201F0D7166A21
:103D0000F2BE168EF29E5DC29AF2000127EC01F01F
:103D100016BEF28E81945EC28AF202018A2B8A0755
:103D2000D8B40DD0166AF2BE168EF29EFF0E9A6FB0
:103D3000000127EC01F016BEF28E0201F0D7166AE0
:103D4000F2BE168EF29E5DC29AF2000127EC01F0DF
:103D500016BEF28E02011A50100804E10001CCECEC
:103D600008F002011B50140804E10001F8EC08F00F
:103D700002011750310803E1000105D002011B2A9E
:103D80001A2A000126D717503108D8A487D21E500E
:103D90000A08D8A042D11DC01AF01A501008D8A0A5
:103DA0003BD11AC01DF0166AF2BE168EF29E5EC29C
:103DB00099F25DC298F202019B6B19C09AF2000160
:103DC0003BEC01F016BEF28E02C08BF201C08AF20B
:103DD00002010250585DD8A0A9D004E18A51575D74
:103DE000D8A0A4D0166AF2BE168EF29E5EC299F2D8
:103DF0005DC298F29B6B1BC09AF200013BEC01F094
:103E000016BEF28E02C08BF201C08AF2020102508D
:103E10005C5D49E303E18A515B5D45E38184818612
:103E200081825EC28AF28A2B8A07D8B40DD0166AC4
:103E3000F2BE168EF29EFF0E9A6F000127EC01F083
:103E400016BEF28E0201F0D7166AF2BE168EF29EF0
:103E50005DC29AF2000127EC01F016BEF28E819449
:103E6000819681925EC28AF202018A2B8A07D8B4B7
:103E70000DD0166AF2BE168EF29EFF0E9A6F0001EA
:103E800027EC01F016BEF28E0201F0D7166AF2BEE0
:103E9000168EF29E5DC29AF2000127EC01F016BE6A
:103EA000F28E42D00201818481825EC28AF28A2B24
:103EB0008A07D8B40DD0166AF2BE168EF29EFF0E97
:103EC0009A6F000127EC01F016BEF28E0201F0D7C6
:103ED000166AF2BE168EF29E5DC29AF2000127ECBF
:103EE00001F016BEF28E819481925EC28AF20201C6
:103EF0008A2B8A07D8B40DD0166AF2BE168EF29EAF
:103F0000FF0E9A6F000127EC01F016BEF28E02013F
:103F1000F0D7166AF2BE168EF29E5DC29AF20001CA
:103F200027EC01F016BEF28E5CD00201166AF2BEDA
:103F3000168EF29E5EC299F25DC298F29B6B1AC019
:103F40009AF200013BEC01F016BEF28E02C08BF239
:103F500001C08AF2020102505A5D44E303E18A5132
:103F6000595D40E381845EC28AF28A2B8A07D8B405
:103F70000DD0166AF2BE168EF29EFF0E9A6F0001E9
:103F800027EC01F016BEF28E0201F0D7166AF2BEDF
:103F9000168EF29E5DC29AF2000127EC01F016BE69
:103FA000F28E81945EC28AF202018A2B8A07D8B40B
:103FB0000DD0166AF2BE168EF29EFF0E9A6F0001A9
:103FC00027EC01F016BEF28E0201F0D7166AF2BE9F
:103FD000168EF29E5DC29AF2000127EC01F016BE29
:103FE000F28E020119500A0804E10001A0EC08F069
:103FF00002011B50140804E10001F8EC08F0020172
:104000001A50100804E10001CCEC08F002011B2A50
:10401000192A1A2A0001C1D641D11DC01AF01A501E
:104020001008D8A03BD11AC01DF0166AF2BE168E39
:10403000F29E5EC299F25DC298F202019B6B19C0BA
:104040009AF200013BEC01F016BEF28E02C08BF238
:1040500001C08AF202010250585DD8A0A9D004E143
:104060008A51575DD8A0A4D0166AF2BE168EF29E71
:104070005EC299F25DC298F29B6B1BC09AF200017E
:104080003BEC01F016BEF28E02C08BF201C08AF248
:10409000020102505C5D49E303E18A515B5D45E347
:1040A0008184818681825EC28AF28A2B8A07D8B493
:1040B0000DD0166AF2BE168EF29EFF0E9A6F0001A8
:1040C00027EC01F016BEF28E0201F0D7166AF2BE9E
:1040D000168EF29E5DC29AF2000127EC01F016BE28
:1040E000F28E8194819681925EC28AF202018A2BBD
:1040F0008A07D8B40DD0166AF2BE168EF29EFF0E55
:104100009A6F000127EC01F016BEF28E0201F0D783
:10411000166AF2BE168EF29E5DC29AF2000127EC7C
:1041200001F016BEF28E42D00201818481825EC20D
:104130008AF28A2B8A07D8B40DD0166AF2BE168E80
:10414000F29EFF0E9A6F000127EC01F016BEF28E70
:104150000201F0D7166AF2BE168EF29E5DC29AF286
:10416000000127EC01F016BEF28E819481925EC2AE
:104170008AF202018A2B8A07D8B40DD0166AF2BEE1
:10418000168EF29EFF0E9A6F000127EC01F016BE0C
:10419000F28E0201F0D7166AF2BE168EF29E5DC252
:1041A0009AF2000127EC01F016BEF28E5CD00201FB
:1041B000166AF2BE168EF29E5EC299F25DC298F247
:1041C0009B6B1AC09AF200013BEC01F016BEF28E16
:1041D00002C08BF201C08AF2020102505A5D44E330
:1041E00003E18A51595D40E381845EC28AF28A2BE1
:1041F0008A07D8B40DD0166AF2BE168EF29EFF0E54
:104200009A6F000127EC01F016BEF28E0201F0D782
:10421000166AF2BE168EF29E5DC29AF2000127EC7B
:1042200001F016BEF28E81945EC28AF202018A2BE0
:104230008A07D8B40DD0166AF2BE168EF29EFF0E13
:104240009A6F000127EC01F016BEF28E0201F0D742
:10425000166AF2BE168EF29E5DC29AF2000127EC3B
:1042600001F016BEF28E020119500A0804E10001A5
:10427000A0EC08F002011B50140804E10001F8EC66
:1042800008F002011A50100804E10001CCEC08F01B
:104290000201192A1B2A1A2A0001C1D60CEF22F0AA
:1042A000819212EF22F0819418EF22F081961EEF96
:1042B00022F0F86AD09E078EEA6AE96A810EAF6E34
:1042C000A60EAC6E900EAB6E196A1A6A1B6A0201DA
:1042D000376B386B396B090E586FC40E576F0F0E62
:1042E0005A6FA00E596F130E5C6F880E5B6F5E6B7A
:1042F000FA0E5D6FC180C182C184C196830ED56EF6
:10430000D76A010ED66EC00EF212936A816A186ADD
:1043100000013DEF08F0580EF66E100EF76E166AAB
:10432000F2BE168EF29EC3EC05F016BEF28E166A31
:10433000F2BE168EF29E640E02019A6F000127EC07
:1043400001F016BEF28E5E0EF66E100EF76E166A55
:10435000F2BE168EF29EC3EC05F016BEF28E600E13
:10436000F66E100EF76E166AF2BE168EF29EC3EC53
:1043700005F016BEF28E166AF2BE168EF29E020E80
:1043800002019A6F9B6F000181EC05F016BEF28E60
:104390006C0EF66E100EF76E166AF2BE168EF29E58
:1043A000C3EC05F016BEF28E166AF2BE168EF29EB1
:1043B000640E02019A6F000127EC01F016BEF28E26
:1043C000819C0201616B010E676F020E6D6F196AAD
:1043D0001A6A1B6A9D8AF28A182C32D0780EF66E01
:1043E000100EF76E166AF2BE168EF29E0001C3EC36
:1043F00005F016BEF28E1750310803E124EF09F0E4
:104400000BD01750320803E136EF0FF005D01750EC
:10441000330802E145EF15F01750610803E1196A0E
:104420001C6A3ED71750620803E11A6A1D6A3BD71F
:104430001750630803E11B6A1E6A38D7186A020125
:04444000CBD70300D3
:020000040030CA
:0E00000000220E0E000181000FC00FE00F4025
:00000001FF
;PIC18F452
;CRC=BD00  CREATED="27-Nov-12 17:20"
