:0400000079EF1DF087
:08000800046ED8CF05F0E0CF33
:1000100006F00001E9CF0CF0EACF07F0E1CF08F0DD
:10002000E2CF09F0D9CF0AF0DACF0BF0F3CF12F01C
:10003000F4CF13F0FACF14F000C00EF001C00FF0AF
:1000400002C010F003C011F0F2AA2AEF00F0F2B4DF
:10005000FFEF04F09DAA30EF00F09EBA0BEF01F025
:100060000EC000F00FC001F010C002F011C003F08C
:100070000CC0E9FF07C0EAFF078E08C0E1FF09C016
:10008000E2FF0AC0D9FF0BC0DAFF12C0F3FF13C0B2
:10009000F4FF14C0FAFF045006C0E0FF05C0D8FF0B
:1000A0001000F2CF0DF0F29EF76ABC0FF66E000E54
:1000B000F7220900F5500DBEF28E1200280C010641
:1000C000F76AD00FF66E000EF7220900F550120005
:1000D00070617369766F0000F76AE80FF66E000EC4
:1000E000F7220900F5501200656A65637574616E48
:1000F000646F0000F76A040FF66E010EF722090024
:10010000F550120066696E616C697A6F0000F76ADB
:100110001E0FF66E010EF7220900F55012006E6FE9
:10012000206861792070726F6365736F7300F76A7E
:100130003E0FF66E010EF7220900F5501200736FA4
:100140006C6F20656C2070726F6365736F20310077
:10015000F76A600FF66E010EF7220900F5501200E3
:1001600070726F6365736F732031207920320000E5
:10017000F76A800FF66E010EF7220900F5501200A3
:1001800070726F6365736F732031207920330000C4
:10019000F76AA00FF66E010EF7220900F550120063
:1001A000736F6C6F20656C2070726F6365736F2066
:1001B0003200F76AC20FF66E010EF7220900F55001
:1001C0001200736F6C6F20656C2070726F636573C3
:1001D0006F203300F76AE40FF66E010EF722090074
:1001E000F550120070726F6365736F73203220795F
:1001F00020330000F76A040FF66E020EF7220900A2
:10020000F550120070726F6365736F7320312C327A
:100210002079203300009EAAFED7AECF1AF0010E3F
:100220001B6E1A50760802E1010E466E1A507008D5
:1002300002E1010E476E1A50730802E1010E486E8A
:100240009E9A30EF00F0EA6A940EE96EEF500DE0EE
:10025000060E016E006A002EFED7012EFBD77B0E24
:10026000006E002EFED7EF2EF3D7000C92519403B0
:10027000F3CF01F0F4CF00F09503F3500026935133
:100280009403F3500020026E000C9153D8A48CD03C
:10029000936B1CC092F06DC095F06CC094F0E6DFDB
:1002A00002C093F001C092F0925312E1935310E117
:1002B000EA6A220EE96EF2CF92F0F29E000E00DFA3
:1002C0000A000900F550EE6E0009FBE192BFF28EC4
:1002D0004A6A496A4F6A936B1CC092F06DC095F0F0
:1002E0006CC094F0C3DF02C093F001C092F092534F
:1002F00002E1935331E0936B1CC092F06DC095F016
:100300006CC094F0B3DF02C093F001C092F00250D1
:10031000675C22E303E16650925D1EE2EA6A220E08
:10032000E96EF2CF92F0F29E000ED6DE0A000900CE
:10033000F550EE6E0009FBE192BFF28E936B1CC08C
:1003400092F06DC095F06CC094F090DF02C04AF05E
:1003500001C049F0010E4F6E936B1CC092F06DC04E
:1003600095F06CC094F082DF02C093F001C092F06F
:100370006750025C19E303E16650925D15E3EA6A97
:10038000220EE96EF2CF92F0F29E000EB3DE0A006A
:100390000900F550EE6E0009FBE192BFF28E67C0D6
:1003A0004AF066C049F04F6A912D8CD0936B1DC006
:1003B00092F06DC095F06CC094F058DF02C093F0DD
:1003C00001C092F0925312E1935310E1EA6A2E0EAB
:1003D000E96EF2CF92F0F29E000E72DE0A00090082
:1003E000F550EE6E0009FBE192BFF28E4C6A4B6A4B
:1003F000506A936B1DC092F06DC095F06CC094F084
:1004000035DF02C093F001C092F0925302E19353A2
:1004100031E0936B1DC092F06DC095F06CC094F00C
:1004200025DF02C093F001C092F00250695C22E324
:1004300003E16850925D1EE2EA6A2E0EE96EF2CF89
:1004400092F0F29E000E48DE0A000900F550EE6EB2
:100450000009FBE192BFF28E936B1DC092F06DC05C
:1004600095F06CC094F002DF02C04CF001C04BF07C
:10047000010E506E936B1DC092F06DC095F06CC074
:1004800094F0F4DE02C093F001C092F06950025C77
:1004900019E303E16850925D15E3EA6A2E0EE96EF6
:1004A000F2CF92F0F29E000E25DE0A000900F55010
:1004B000EE6E0009FBE192BFF28E69C04CF068C09D
:1004C0004BF0506A91510208D8A48CD0936B1EC097
:1004D00092F06DC095F06CC094F0C8DE02C093F04D
:1004E00001C092F0925312E1935310E1EA6A3A0E7E
:1004F000E96EF2CF92F0F29E000EE2DD0A000900F2
:10050000F550EE6E0009FBE192BFF28E4E6A4D6A25
:10051000516A936B1EC092F06DC095F06CC094F060
:10052000A5DE02C093F001C092F0925302E1935312
:1005300031E0936B1EC092F06DC095F06CC094F0EA
:1005400095DE02C093F001C092F002506B5C22E392
:1005500003E16A50925D1EE2EA6A3A0EE96EF2CF5A
:1005600092F0F29E000EB8DD0A000900F550EE6E22
:100570000009FBE192BFF28E936B1EC092F06DC03A
:1005800095F06CC094F072DE02C04EF001C04DF0E8
:10059000010E516E936B1EC092F06DC095F06CC051
:1005A00094F064DE02C093F001C092F06B50025CE4
:1005B00019E303E16A50925D15E3EA6A3A0EE96EC7
:1005C000F2CF92F0F29E000E95DD0A000900F55080
:1005D000EE6E0009FBE192BFF28E6BC04EF06AC076
:1005E0004DF0516A000C0900F5520DE0F6CF91F084
:1005F000F7CF92F0F5509EA8FED7AD6E91C0F6FFF2
:1006000092C0F7FFF0D7000C9451016A935D03E2AA
:1006100093C000F00CD0006A080E956F9337003637
:100620009451005CD8B0006E0136952FF7D7000CBE
:10063000015091C093F0640E946FE6DF00C091F01A
:100640000150300E07E192A30DD092B70BD092B9B2
:10065000200E03D0929792999281012601509EA874
:10066000FED7AD6E91C093F00A0E946FCDDF00C03F
:1006700091F00150300E06E192B709D092A107D057
:1006800092B9200E012601509EA8FED7AD6E300E05
:10069000912791519EA8FED7AD6E000C0900F6CFB0
:1006A00092F0F7CF93F0F5509EA8FED7AD6E92C0B2
:1006B000F6FF93C0F7FF912FF1D7000CEACF99F026
:1006C000E9CF98F09239F009946F9427E20F956F73
:1006D000320F976F92510F0B952795279727E90FA8
:1006E000966F9627962791390F0B9627972796375F
:1006F0009737971F973791510F0B97279437070E0E
:10070000936F0A0E96079727FDE395079627FDE35B
:1007100094079527FDE393079427FDE3EA6A930E78
:10072000E96E070E9815989DE926970EE95CD8B4F6
:10073000988DEF50006E08E198BD06D098B90CD0A6
:1007400098B702D0200E03D098879899300E0026D3
:1007500000509EA8FED7AD6EEE5098ADE6D7000CC7
:10076000EF5210E0EACF92F0E9CF91F0EF509EA85F
:10077000FED7AD6E92C0EAFF91C0E9FFE92AD8B476
:10078000EA2AEED7000C915314E1925312E19353ED
:1007900010E1EA6A520EE96EF2CF94F0F29E000E7A
:1007A000B6DC0A000900F550EE6E0009FBE194BFCB
:1007B000F28E912D14D0925312E1935310E1EA6A14
:1007C000520EE96EF2CF94F0F29E000EB0DC0A00F9
:1007D0000900F550EE6E0009FBE194BFF28E912DF9
:1007E00014D0922D12D0935310E1EA6A520EE96EA2
:1007F000F2CF94F0F29E000EABDC0A000900F55037
:10080000EE6E0009FBE194BFF28E912D14D092534D
:1008100012E1932D10D0EA6A520EE96EF2CF94F0F5
:10082000F29E000EA5DC0A000900F550EE6E0009EC
:10083000FBE194BFF28E915314E1922D12D09353A9
:1008400010E1EA6A520EE96EF2CF94F0F29E000EC9
:100850009FDC0A000900F550EE6E0009FBE194BF31
:10086000F28E915314E1925312E1932D10D0EA6A63
:10087000520EE96EF2CF94F0F29E000E9ADC0A005E
:100880000900F550EE6E0009FBE194BFF28E915322
:1008900014E1922D12D0932D10D0EA6A520EE96E17
:1008A000F2CF94F0F29E000E95DC0A000900F5509C
:1008B000EE6E0009FBE194BFF28E912D14D0922DC3
:1008C00012D0932D10D0EA6A520EE96EF2CF94F056
:1008D000F29E000E8FDC0A000900F550EE6E000952
:1008E000FBE194BFF28E34EF06F0F00E956E83803C
:1008F00000008386000083380F0B9B6F83960000F7
:10090000838600D000D0000083380F0B9A6F839647
:10091000000E956E9B39006EF00E001600509A1175
:10092000016E000C9B39F00B006E0F0E831400104B
:10093000836E00008386030E006E002EFED7839622
:10094000000C8394D2DF01C09AF001BEFBD798A1BE
:10095000839498B183840000839000008396993932
:100960009A6F0F0E9A179AC09BF0DCDF99510F0B0C
:100970009A6F9B6FD7DF000C952D01D003D0400EEE
:10098000966F01D0966B010E945D96279651800963
:10099000976F986B996FD5DF000C93510C0A05E0A7
:1009A000060A0BE0020A0FE013D0986B010E996F54
:1009B000C8DF020E946F47DC11D0010E946F020E57
:1009C000956FDADF0BD0986B100E996FBADF06D0F7
:1009D000010E986F93C099F0B4DF00D0000C0900AD
:1009E000F5520CE0F6CF91F0F7CF92F0F5CF93F0FF
:1009F000D4DF91C0F6FF92C0F7FFF1D7000C040ED0
:100A00006C5C916F000E6D58926F936F932B9307F0
:100A1000D8B404D0FF0E946F16DCF9D791C094F0CF
:100A200012DC817C81701A507608D8A42AD1462C19
:100A300028D1FDCF17F0FECF18F0FFCF19F070C00E
:100A400091F023DC76C091F020DC7CC091F01DDCBD
:100A50004AC075F049C074F04CC07BF04BC07AF0CE
:100A60004EC081F04DC080F04B504924916F4C50E6
:100A70004A20926F4D5091256E6E4E5092216F6EAE
:100A8000D60EF66E0C0EF76EAEDD0D0E9EA8FED7DE
:100A9000AD6E0A0E9EA8FED7AD6EE40EF66E0C0E7D
:100AA000F76EA1DD0D0E9EA8FED7AD6E0A0E9EA8B4
:100AB000FED7AD6E70C091F0180E926FB9DD190EB1
:100AC000F66E0D0EF76E110E916FE8DD100EE96EE9
:100AD000926B640E916FF2DD2D0EF66E0D0EF76EB9
:100AE000120E916FDBDD100EE96E75C092F074C0CE
:100AF00091F0E4DD420EF66E0D0EF76E0C0E916F66
:100B0000CDDDEA6A220EE96E2BDE0D0E9EA8FED721
:100B1000AD6E0A0E9EA8FED7AD6E76C091F0180E8F
:100B2000926F86DD530EF66E0D0EF76E110E916FFD
:100B3000B5DD100EE96E926BC80E916FBFDD670ECA
:100B4000F66E0D0EF76E120E916FA8DD100EE96EA7
:100B50007BC092F07AC091F0B1DD7C0EF66E0D0E86
:100B6000F76E0C0E916F9ADDEA6A2E0EE96EF8DDD3
:100B70000D0E9EA8FED7AD6E0A0E9EA8FED7AD6ED6
:100B80007CC091F0180E926F53DD8D0EF66E0D0E37
:100B9000F76E110E916F82DD100EE96E010E926FED
:100BA0002C0E916F8BDDA10EF66E0D0EF76E120EF0
:100BB000916F74DD100EE96E81C092F080C091F0EB
:100BC0007DDDB60EF66E0D0EF76E0C0E916F66DDC6
:100BD000EA6A3A0EE96EC4DD0D0E9EA8FED7AD6E30
:100BE0000A0E9EA8FED7AD6EC40EF66E0D0EF76E01
:100BF000FADC17C091F01B0E926F1ADD18C091F04D
:100C00001B0E926F15DD19C091F01B0E926F10DD57
:100C1000200E9EA8FED7AD6EE20EF66E0D0EF76E9C
:100C20000F0E916F3BDD100EE96E6FC092F06EC03B
:100C300091F044DD200E9EA8FED7AD6E200E9EA83A
:100C4000FED7AD6EF60EF66E0D0EF76ECCDC4FC015
:100C500082F050C083F051C084F082C091F083C014
:100C600092F084C093F08FD5EA6A520EE96E78DD77
:100C70000D0E9EA8FED7AD6E0A0E9EA8FED7AD6ED5
:100C8000466A1A50700803E1472C01D0476A1A508F
:100C900073081BE1482C19D00A0EF66E0E0EF76E83
:100CA0009EDE0C0EF66E0E0EF76E99DE1C0EF66EC4
:100CB0000E0EF76E98DC0D0E9EA8FED7AD6E0A0ED6
:100CC0009EA8FED7AD6E818A486AD76A010ED66E9D
:100CD000F29430EF00F07665722070726F63657386
:100CE0006F730000696420202020206469722D69E0
:100CF0006E6963696F202020202020202020202082
:100D00007469656D706F20202020202020202065D0
:100D1000737461646F00253175202020202020200D
:100D200020202020202020202020254C752020203D
:100D300020202020202020202020202020202025AE
:100D40004C75202020202020202020202020000062
:100D50002531752020202020202020202020202028
:100D600020202020254C75202020202020202020FD
:100D7000202020202020202020254C7520202020ED
:100D80002020202020202020000025317520202038
:100D90002020202020202020202020202020254C22
:100DA00075202020202020202020202020202020EE
:100DB000202020254C7520202020202020202020AD
:100DC0002020000076616C6F722064656C20706377
:100DD000206F2069645F636F727269656E7465204D
:100DE000200020206163756D756C61646F72203D19
:100DF00020254C750000202D2D2D2D20207665728C
:100E000020636F6C61203A2020000C0073697374BA
:100E10002E6F7065722E2058414B000073697374F9
:100E2000656D61206F706572617469766F205841DD
:100E30004B000C0070726F6365736F20310070722D
:100E40006F6365736F2031000C0070726F636573A0
:100E50006F20320070726F6365736F2032000C0078
:100E600070726F6365736F20330070726F636573A8
:100E70006F203300686F6C6100000C00636F6D7051
:100E8000726162616E646F0070726F6365736F2E62
:100E90002E2E00000C00000E956E83948390839696
:100EA000166AF2BE168EF29E0F0E946F23EC01F0BE
:100EB00016BEF28E010E856F8551030815E3166A82
:100EC000F2BE168EF29E030E9B6F2CDD16BEF28EC6
:100ED000166AF2BE168EF29E050E946F23EC01F098
:100EE00016BEF28E852BE8D7166AF2BE168EF29EDB
:100EF000020E9B6F17DD16BEF28E856B85510308BF
:100F000015E3036A8551F2CF86F0F29E51EC00F0B2
:100F100086BFF28E866F166AF2BE168EF29E986BB0
:100F2000996F0FDD16BEF28E852BE8D7A9EF1DF065
:100F3000320EF66E0E0EF76E166AF2BE168EF29E28
:100F40004EDD16BEF28E340EF66E0E0EF76E166A7B
:100F5000F2BE168EF29E43DD16BEF28E3E0EF66E89
:100F60000E0EF76E166AF2BE168EF29EF3EC02F0CB
:100F700016BEF28E0D0E9EA8FED7AD6E0A0E9EA86E
:100F8000FED7AD6E8182000C480EF66E0E0EF76E27
:100F9000166AF2BE168EF29E22DD16BEF28E4A0E42
:100FA000F66E0E0EF76E166AF2BE168EF29E17DD04
:100FB00016BEF28E540EF66E0E0EF76E166AF2BE66
:100FC000168EF29EF3EC02F016BEF28E0D0E9EA867
:100FD000FED7AD6E0A0E9EA8FED7AD6E8184000CC2
:100FE0005E0EF66E0E0EF76E166AF2BE168EF29E4C
:100FF000F6DC16BEF28E600EF66E0E0EF76E166AF8
:10100000F2BE168EF29EEBDC16BEF28E6A0EF66E05
:101010000E0EF76E166AF2BE168EF29EF3EC02F01A
:1010200016BEF28E0D0E9EA8FED7AD6E0A0E9EA8BD
:10103000FED7AD6E8186000C010E1C6E1C500A0896
:1010400064E31CC01FF0166AF2BE168EF29E6DC0DD
:1010500093F06CC092F0956B1CC094F036EC01F0EC
:1010600016BEF28E02C086F001C085F00250675CA9
:101070003DE303E16650855D39E281826DC085F014
:10108000852B8507D8B40BD0166AF2BE168EF29E59
:10109000FF0E946F23EC01F016BEF28EF2D7166AA3
:1010A000F2BE168EF29E6CC094F023EC01F016BED8
:1010B000F28E81926DC085F0852B8507D8B40BD058
:1010C000166AF2BE168EF29EFF0E946F23EC01F0AC
:1010D00016BEF28EF2D7166AF2BE168EF29E6CC063
:1010E00094F023EC01F016BEF28E01D021DF1A50ED
:1010F000320801E10AD01A50330801E106D01A5033
:10110000610801E102D01C2A99D71A503208D8A4EC
:10111000E3D1010E1D6E1D501008D8A0BCD01DC01B
:1011200020F0166AF2BE168EF29E6DC093F06CC06F
:1011300092F0956B1CC094F036EC01F016BEF28E66
:1011400002C086F001C085F00250675C3FE303E116
:101150008551665C3BE3818481826DC085F0852B7F
:101160008507D8B40BD0166AF2BE168EF29EFF0E1B
:10117000946F23EC01F016BEF28EF2D7166AF2BE1F
:10118000168EF29E6CC094F023EC01F016BEF28E27
:10119000819281946DC085F0852B8507D8B40BD0E2
:1011A000166AF2BE168EF29EFF0E946F23EC01F0CB
:1011B00016BEF28EF2D7166AF2BE168EF29E6CC082
:1011C00094F023EC01F016BEF28E52D0166AF2BEF5
:1011D000168EF29E6DC093F06CC092F0956B1DC0A0
:1011E00094F036EC01F016BEF28E02C086F001C01B
:1011F00085F00250695C3CE303E16850855D38E2AC
:1012000081846DC085F0852B8507D8B40BD0166A14
:10121000F2BE168EF29EFF0E946F23EC01F016BE06
:10122000F28EF2D7166AF2BE168EF29E6CC094F061
:1012300023EC01F016BEF28E81946DC085F0852BF3
:101240008507D8B40BD0166AF2BE168EF29EFF0E3A
:10125000946F23EC01F016BEF28EF2D7166AF2BE3E
:10126000168EF29E6CC094F023EC01F016BEF28E46
:101270001C500A0805E11F50090802E359DE04D09A
:101280001D50100801E180DE1A50330801E103D03F
:101290001C2A1D2A40D71A503308D8A41CD1010E8D
:1012A0001E6E1E501408D8A016D11EC021F0166A5A
:1012B000F2BE168EF29E6DC093F06CC092F0956BEC
:1012C0001CC094F036EC01F016BEF28E02C086F01F
:1012D00001C085F00250675C41E303E16650855D23
:1012E0003DE28186818481826DC085F0852B8507F2
:1012F000D8B40BD0166AF2BE168EF29EFF0E946F13
:1013000023EC01F016BEF28EF2D7166AF2BE168EEC
:10131000F29E6CC094F023EC01F016BEF28E819622
:10132000819281946DC085F0852B8507D8B40BD050
:10133000166AF2BE168EF29EFF0E946F23EC01F039
:1013400016BEF28EF2D7166AF2BE168EF29E6CC0F0
:1013500094F023EC01F016BEF28EA7D0166AF2BE0E
:10136000168EF29E6DC093F06CC092F0956B1DC00E
:1013700094F036EC01F016BEF28E02C086F001C089
:1013800085F00250695C3FE303E16850855D3BE214
:10139000818681846DC085F0852B8507D8B40BD0FC
:1013A000166AF2BE168EF29EFF0E946F23EC01F0C9
:1013B00016BEF28EF2D7166AF2BE168EF29E6CC080
:1013C00094F023EC01F016BEF28E819681946DC0EC
:1013D00085F0852B8507D8B40BD0166AF2BE168E21
:1013E000F29EFF0E946F23EC01F016BEF28EF2D740
:1013F000166AF2BE168EF29E6CC094F023EC01F0D9
:1014000016BEF28E52D0166AF2BE168EF29E6DC0D5
:1014100093F06CC092F0956B1EC094F036EC01F026
:1014200016BEF28E02C086F001C085F002506B5CE1
:101430003CE303E16A50855D38E281866DC085F04A
:10144000852B8507D8B40BD0166AF2BE168EF29E95
:10145000FF0E946F23EC01F016BEF28EF2D7166ADF
:10146000F2BE168EF29E6CC094F023EC01F016BE14
:10147000F28E81966DC085F0852B8507D8B40BD090
:10148000166AF2BE168EF29EFF0E946F23EC01F0E8
:1014900016BEF28EF2D7166AF2BE168EF29E6CC09F
:1014A00094F023EC01F016BEF28E1C500A0804E101
:1014B0001F50090801E33CDD1D50100804E12050D5
:1014C0000F0801E361DD1E50140801E189DD1C2ACB
:1014D0001D2A1E2AE6D609D31A503308D8A405D3EC
:1014E000010E1E6E1E501408D8A0BBD01EC021F0E5
:1014F000166AF2BE168EF29E6DC093F06CC092F02A
:10150000956B1CC094F036EC01F016BEF28E02C052
:1015100086F001C085F00250675C3FE303E166504E
:10152000855D3BE2818681826DC085F0852B8507D4
:10153000D8B40BD0166AF2BE168EF29EFF0E946FD0
:1015400023EC01F016BEF28EF2D7166AF2BE168EAA
:10155000F29E6CC094F023EC01F016BEF28E8196E0
:1015600081926DC085F0852B8507D8B40BD0166AA3
:10157000F2BE168EF29EFF0E946F23EC01F016BEA3
:10158000F28EF2D7166AF2BE168EF29E6CC094F0FE
:1015900023EC01F016BEF28E52D0166AF2BE168E01
:1015A000F29E6DC093F06CC092F0956B1EC094F0EB
:1015B00036EC01F016BEF28E02C086F001C085F056
:1015C00002506B5C3CE303E185516A5C38E3818641
:1015D0006DC085F0852B8507D8B40BD0166AF2BE96
:1015E000168EF29EFF0E946F23EC01F016BEF28E63
:1015F000F2D7166AF2BE168EF29E6CC094F023ECFF
:1016000001F016BEF28E81966DC085F0852B8507A0
:10161000D8B40BD0166AF2BE168EF29EFF0E946FEF
:1016200023EC01F016BEF28EF2D7166AF2BE168EC9
:10163000F29E6CC094F023EC01F016BEF28E1C50AA
:101640000A0804E11F50090801E372DC1E50140867
:1016500001E1C6DC1A50320801E103D01C2A1E2A1F
:1016600041D71A503208D8A440D221500408D8A03B
:101670001DD121C01EF01E501408D8A016D11EC0C6
:1016800021F0166AF2BE168EF29E6DC093F06CC009
:1016900092F0956B1CC094F036EC01F016BEF28E01
:1016A00002C086F001C085F00250675C41E303E1AF
:1016B0008551665C3DE38184818681826DC085F0C1
:1016C000852B8507D8B40BD0166AF2BE168EF29E13
:1016D000FF0E946F23EC01F016BEF28EF2D7166A5D
:1016E000F2BE168EF29E6CC094F023EC01F016BE92
:1016F000F28E8194819681926DC085F0852B85074D
:10170000D8B40BD0166AF2BE168EF29EFF0E946FFE
:1017100023EC01F016BEF28EF2D7166AF2BE168ED8
:10172000F29E6CC094F023EC01F016BEF28EA7D0AE
:10173000166AF2BE168EF29E6DC093F06CC092F0E7
:10174000956B1DC094F036EC01F016BEF28E02C00F
:1017500086F001C085F00250695C3FE303E18551EA
:10176000685C3BE3818481866DC085F0852B8507AD
:10177000D8B40BD0166AF2BE168EF29EFF0E946F8E
:1017800023EC01F016BEF28EF2D7166AF2BE168E68
:10179000F29E6CC094F023EC01F016BEF28E8194A0
:1017A00081966DC085F0852B8507D8B40BD0166A5D
:1017B000F2BE168EF29EFF0E946F23EC01F016BE61
:1017C000F28EF2D7166AF2BE168EF29E6CC094F0BC
:1017D00023EC01F016BEF28E52D0166AF2BE168EBF
:1017E000F29E6DC093F06CC092F0956B1EC094F0A9
:1017F00036EC01F016BEF28E02C086F001C085F014
:1018000002506B5C3CE303E185516A5C38E38186FE
:101810006DC085F0852B8507D8B40BD0166AF2BE53
:10182000168EF29EFF0E946F23EC01F016BEF28E20
:10183000F2D7166AF2BE168EF29E6CC094F023ECBC
:1018400001F016BEF28E81966DC085F0852B85075E
:10185000D8B40BD0166AF2BE168EF29EFF0E946FAD
:1018600023EC01F016BEF28EF2D7166AF2BE168E87
:10187000F29E6CC094F023EC01F016BEF28E1C5068
:101880000A0805E11F50090802E398EC07F01E5012
:10189000140802E1F0EC07F01D50100802E1C4EC5E
:1018A00007F01C2A1D2A1E2AE6D61FD1010E1D6E26
:1018B0001D501008D8A019D11DC020F0166AF2BE24
:1018C000168EF29E6DC093F06CC092F0956B1CC0AA
:1018D00094F036EC01F016BEF28E02C086F001C024
:1018E00085F00250675C41E303E18551665C3DE3AE
:1018F0008184818681826DC085F0852B8507D8B46F
:101900000BD0166AF2BE168EF29EFF0E946F23EC79
:1019100001F016BEF28EF2D7166AF2BE168EF29E55
:101920006CC094F023EC01F016BEF28E8194819687
:1019300081926DC085F0852B8507D8B40BD0166ACF
:10194000F2BE168EF29EFF0E946F23EC01F016BECF
:10195000F28EF2D7166AF2BE168EF29E6CC094F02A
:1019600023EC01F016BEF28EA7D0166AF2BE168ED8
:10197000F29E6DC093F06CC092F0956B1EC094F017
:1019800036EC01F016BEF28E02C086F001C085F082
:1019900002506B5C3FE303E185516A5C3BE3818469
:1019A00081866DC085F0852B8507D8B40BD0166A6B
:1019B000F2BE168EF29EFF0E946F23EC01F016BE5F
:1019C000F28EF2D7166AF2BE168EF29E6CC094F0BA
:1019D00023EC01F016BEF28E819481966DC085F0E5
:1019E000852B8507D8B40BD0166AF2BE168EF29EF0
:1019F000FF0E946F23EC01F016BEF28EF2D7166A3A
:101A0000F2BE168EF29E6CC094F023EC01F016BE6E
:101A1000F28E52D0166AF2BE168EF29E6DC093F010
:101A20006CC092F0956B1DC094F036EC01F016BEC0
:101A3000F28E02C086F001C085F00250695C3CE382
:101A400003E18551685C38E381846DC085F0852BA6
:101A50008507D8B40BD0166AF2BE168EF29EFF0E22
:101A6000946F23EC01F016BEF28EF2D7166AF2BE26
:101A7000168EF29E6CC094F023EC01F016BEF28E2E
:101A800081946DC085F0852B8507D8B40BD0166A7C
:101A9000F2BE168EF29EFF0E946F23EC01F016BE7E
:101AA000F28EF2D7166AF2BE168EF29E6CC094F0D9
:101AB00023EC01F016BEF28E1C500A0805E11F50FF
:101AC000090802E398EC07F01E50140805E12150C4
:101AD000130802E3F0EC07F01D50100802E1C4EC1B
:101AE00007F01C2A1E2A1D2AE3D616EF1EF0010E4F
:101AF0001D6E1D50100861E31DC020F0166AF2BE75
:101B0000168EF29E6DC093F06CC092F0956B1DC066
:101B100094F036EC01F016BEF28E02C086F001C0E1
:101B200085F00250695C3DE303E16850855D39E270
:101B300081846DC085F0852B8507D8B40BD0166ADB
:101B4000F2BE168EF29EFF0E946F23EC01F016BECD
:101B5000F28EF2D7166AF2BE168EF29E6CC094F028
:101B600023EC01F016BEF28E81946DC085F0852BBA
:101B70008507D8B40BD0166AF2BE168EF29EFF0E01
:101B8000946F23EC01F016BEF28EF2D7166AF2BE05
:101B9000168EF29E6CC094F023EC01F016BEF28E0D
:101BA00002D0C4EC07F01A50310801E106D01A50F7
:101BB000330801E102D01D2A9CD71A503108D8A45D
:101BC00009D320500608D8A0C4D020C01DF01D5055
:101BD0001008D8A0BDD01DC020F0166AF2BE168E27
:101BE000F29E6DC093F06CC092F0956B1CC094F0A7
:101BF00036EC01F016BEF28E02C086F001C085F010
:101C00000250675C3FE303E18551665C3BE38184FE
:101C100081826DC085F0852B8507D8B40BD0166AFC
:101C2000F2BE168EF29EFF0E946F23EC01F016BEEC
:101C3000F28EF2D7166AF2BE168EF29E6CC094F047
:101C400023EC01F016BEF28E819281946DC085F076
:101C5000852B8507D8B40BD0166AF2BE168EF29E7D
:101C6000FF0E946F23EC01F016BEF28EF2D7166AC7
:101C7000F2BE168EF29E6CC094F023EC01F016BEFC
:101C8000F28E52D0166AF2BE168EF29E6DC093F09E
:101C90006CC092F0956B1DC094F036EC01F016BE4E
:101CA000F28E02C086F001C085F00250695C3CE310
:101CB00003E16850855D38E281846DC085F0852B35
:101CC0008507D8B40BD0166AF2BE168EF29EFF0EB0
:101CD000946F23EC01F016BEF28EF2D7166AF2BEB4
:101CE000168EF29E6CC094F023EC01F016BEF28EBC
:101CF00081946DC085F0852B8507D8B40BD0166A0A
:101D0000F2BE168EF29EFF0E946F23EC01F016BE0B
:101D1000F28EF2D7166AF2BE168EF29E6CC094F066
:101D200023EC01F016BEF28E1C500A0805E11F508C
:101D3000090802E398EC07F01D50100802E1C4EC1A
:101D400007F01A50330801E103D01C2A1D2A3FD79F
:101D5000C6D0010E1C6E1C500A08D8A0C0D01CC0F2
:101D60001FF0166AF2BE168EF29E6DC093F06CC024
:101D700092F0956B1DC094F036EC01F016BEF28E19
:101D800002C086F001C085F00250695C3FE303E1C8
:101D90008551685C3BE3818481826DC085F0852B31
:101DA0008507D8B40BD0166AF2BE168EF29EFF0ECF
:101DB000946F23EC01F016BEF28EF2D7166AF2BED3
:101DC000168EF29E6CC094F023EC01F016BEF28EDB
:101DD000819281946DC085F0852B8507D8B40BD096
:101DE000166AF2BE168EF29EFF0E946F23EC01F07F
:101DF00016BEF28EF2D7166AF2BE168EF29E6CC036
:101E000094F023EC01F016BEF28E52D0166AF2BEA8
:101E1000168EF29E6DC093F06CC092F0956B1CC054
:101E200094F036EC01F016BEF28E02C086F001C0CE
:101E300085F00250675C3CE303E16650855D38E263
:101E400081826DC085F0852B8507D8B40BD0166ACA
:101E5000F2BE168EF29EFF0E946F23EC01F016BEBA
:101E6000F28EF2D7166AF2BE168EF29E6CC094F015
:101E700023EC01F016BEF28E81926DC085F0852BA9
:101E80008507D8B40BD0166AF2BE168EF29EFF0EEE
:101E9000946F23EC01F016BEF28EF2D7166AF2BEF2
:101EA000168EF29E6CC094F023EC01F016BEF28EFA
:101EB0001C500A0805E11F50090802E398EC07F0DE
:101EC0001D50100805E120500F0802E3C4EC07F094
:101ED0001A50330801E103D01D2A1C2A3CD71A509E
:101EE0003308D8A476D1010E1E6E1E501408D8A057
:101EF00070D11EC021F0166AF2BE168EF29E6DC021
:101F000093F06CC092F0956B1CC094F036EC01F02D
:101F100016BEF28E02C086F001C085F00250675CEA
:101F2000D8A097D004E16650855DD8B092D0166AEB
:101F3000F2BE168EF29E6DC093F06CC092F0956B5F
:101F40001DC094F036EC01F016BEF28E02C086F091
:101F500001C085F00250695C41E303E18551685C92
:101F60003DE38184818681826DC085F0852B850764
:101F7000D8B40BD0166AF2BE168EF29EFF0E946F86
:101F800023EC01F016BEF28EF2D7166AF2BE168E60
:101F9000F29E6CC094F023EC01F016BEF28E819498
:101FA000819681926DC085F0852B8507D8B40BD0C2
:101FB000166AF2BE168EF29EFF0E946F23EC01F0AD
:101FC00016BEF28EF2D7166AF2BE168EF29E6CC064
:101FD00094F023EC01F016BEF28E3AD08186818215
:101FE0006DC085F0852B8507D8B40BD0166AF2BE7C
:101FF000168EF29EFF0E946F23EC01F016BEF28E49
:10200000F2D7166AF2BE168EF29E6CC094F023ECE4
:1020100001F016BEF28E819681926DC085F0852BFF
:102020008507D8B40BD0166AF2BE168EF29EFF0E4C
:10203000946F23EC01F016BEF28EF2D7166AF2BE50
:10204000168EF29E6CC094F023EC01F016BEF28E58
:10205000A7D0166AF2BE168EF29E6DC093F06CC0C9
:1020600092F0956B1DC094F036EC01F016BEF28E26
:1020700002C086F001C085F00250695C3FE303E1D5
:102080006850855D3BE2818681846DC085F0852B3B
:102090008507D8B40BD0166AF2BE168EF29EFF0EDC
:1020A000946F23EC01F016BEF28EF2D7166AF2BEE0
:1020B000168EF29E6CC094F023EC01F016BEF28EE8
:1020C000819681946DC085F0852B8507D8B40BD09F
:1020D000166AF2BE168EF29EFF0E946F23EC01F08C
:1020E00016BEF28EF2D7166AF2BE168EF29E6CC043
:1020F00094F023EC01F016BEF28E52D0166AF2BEB6
:10210000168EF29E6DC093F06CC092F0956B1EC05F
:1021100094F036EC01F016BEF28E02C086F001C0DB
:1021200085F002506B5C3CE303E16A50855D38E268
:1021300081866DC085F0852B8507D8B40BD0166AD3
:10214000F2BE168EF29EFF0E946F23EC01F016BEC7
:10215000F28EF2D7166AF2BE168EF29E6CC094F022
:1021600023EC01F016BEF28E81966DC085F0852BB2
:102170008507D8B40BD0166AF2BE168EF29EFF0EFB
:10218000946F23EC01F016BEF28EF2D7166AF2BEFF
:10219000168EF29E6CC094F023EC01F016BEF28E07
:1021A0001C500A0805E11F50090802E398EC07F0EB
:1021B0001D50100805E120500F0802E3C4EC07F0A1
:1021C0001E50140802E1F0EC07F01C2A1D2A1E2AFA
:1021D0008CD6E4D11A503308D8A4E0D1010E1E6E7B
:1021E0001E501408D8A0BDD01EC021F0166AF2BE41
:1021F000168EF29E6DC093F06CC092F0956B1DC070
:1022000094F036EC01F016BEF28E02C086F001C0EA
:1022100085F00250695C3FE303E16850855D3BE275
:10222000818681846DC085F0852B8507D8B40BD05D
:10223000166AF2BE168EF29EFF0E946F23EC01F02A
:1022400016BEF28EF2D7166AF2BE168EF29E6CC0E1
:1022500094F023EC01F016BEF28E819681946DC04D
:1022600085F0852B8507D8B40BD0166AF2BE168E82
:10227000F29EFF0E946F23EC01F016BEF28EF2D7A1
:10228000166AF2BE168EF29E6CC094F023EC01F03A
:1022900016BEF28E52D0166AF2BE168EF29E6DC037
:1022A00093F06CC092F0956B1EC094F036EC01F088
:1022B00016BEF28E02C086F001C085F002506B5C43
:1022C0003CE303E185516A5C38E381866DC085F0AB
:1022D000852B8507D8B40BD0166AF2BE168EF29EF7
:1022E000FF0E946F23EC01F016BEF28EF2D7166A41
:1022F000F2BE168EF29E6CC094F023EC01F016BE76
:10230000F28E81966DC085F0852B8507D8B40BD0F1
:10231000166AF2BE168EF29EFF0E946F23EC01F049
:1023200016BEF28EF2D7166AF2BE168EF29E6CC000
:1023300094F023EC01F016BEF28E1D50100805E15A
:1023400020500F0802E3C4EC07F01E50140802E10D
:10235000F0EC07F01A50310801E103D01D2A1E2AC3
:102360003FD71A503108D8A419D121C01EF01E50F1
:102370001408D8A013D11EC021F0166AF2BE168E22
:10238000F29E6DC093F06CC092F0956B1CC094F0FF
:1023900036EC01F016BEF28E02C086F001C085F068
:1023A0000250675C41E303E18551665C3DE3818453
:1023B000818681826DC085F0852B8507D8B40BD0CE
:1023C000166AF2BE168EF29EFF0E946F23EC01F099
:1023D00016BEF28EF2D7166AF2BE168EF29E6CC050
:1023E00094F023EC01F016BEF28E819481968192D6
:1023F0006DC085F0852B8507D8B40BD0166AF2BE68
:10240000168EF29EFF0E946F23EC01F016BEF28E34
:10241000F2D7166AF2BE168EF29E6CC094F023ECD0
:1024200001F016BEF28EA7D0166AF2BE168EF29E8C
:102430006DC093F06CC092F0956B1DC094F036ECBB
:1024400001F016BEF28E02C086F001C085F0025087
:10245000695C3FE303E18551685C3BE381848186ED
:102460006DC085F0852B8507D8B40BD0166AF2BEF7
:10247000168EF29EFF0E946F23EC01F016BEF28EC4
:10248000F2D7166AF2BE168EF29E6CC094F023EC60
:1024900001F016BEF28E819481966DC085F0852B79
:1024A0008507D8B40BD0166AF2BE168EF29EFF0EC8
:1024B000946F23EC01F016BEF28EF2D7166AF2BECC
:1024C000168EF29E6CC094F023EC01F016BEF28ED4
:1024D00052D0166AF2BE168EF29E6DC093F06CC09A
:1024E00092F0956B1EC094F036EC01F016BEF28EA1
:1024F00002C086F001C085F002506B5C3CE303E152
:1025000085516A5C38E381866DC085F0852B85072F
:10251000D8B40BD0166AF2BE168EF29EFF0E946FE0
:1025200023EC01F016BEF28EF2D7166AF2BE168EBA
:10253000F29E6CC094F023EC01F016BEF28E8196F0
:102540006DC085F0852B8507D8B40BD0166AF2BE16
:10255000168EF29EFF0E946F23EC01F016BEF28EE3
:10256000F2D7166AF2BE168EF29E6CC094F023EC7F
:1025700001F016BEF28E1C500A0802E198EC07F03A
:102580001E50140802E1F0EC07F01D50100802E1A3
:10259000C4EC07F01C2A1D2A1E2AE9D622EF1EF0E1
:1025A000010E1E6E1D50140861E31EC021F0166A54
:1025B000F2BE168EF29E6DC093F06CC092F0956BD9
:1025C0001EC094F036EC01F016BEF28E02C086F00A
:1025D00001C085F002506B5C3DE303E16A50855D0C
:1025E00039E281866DC085F0852B8507D8B40BD084
:1025F000166AF2BE168EF29EFF0E946F23EC01F067
:1026000016BEF28EF2D7166AF2BE168EF29E6CC01D
:1026100094F023EC01F016BEF28E81966DC085F029
:10262000852B8507D8B40BD0166AF2BE168EF29EA3
:10263000FF0E946F23EC01F016BEF28EF2D7166AED
:10264000F2BE168EF29E6CC094F023EC01F016BE22
:10265000F28E02D0F0EC07F01A50310801E106D0FA
:102660001A50320801E102D01E2A9CD71A503108B4
:10267000D8A40EEF17F021500A08D8A0C4D021C06A
:102680001EF01E501408D8A0BDD01EC021F0166A3E
:10269000F2BE168EF29E6DC093F06CC092F0956BF8
:1026A0001CC094F036EC01F016BEF28E02C086F02B
:1026B00001C085F00250675C3FE303E18551665C31
:1026C0003BE3818681826DC085F0852B8507D8B478
:1026D0000BD0166AF2BE168EF29EFF0E946F23EC9C
:1026E00001F016BEF28EF2D7166AF2BE168EF29E78
:1026F0006CC094F023EC01F016BEF28E81928196AC
:102700006DC085F0852B8507D8B40BD0166AF2BE54
:10271000168EF29EFF0E946F23EC01F016BEF28E21
:10272000F2D7166AF2BE168EF29E6CC094F023ECBD
:1027300001F016BEF28E52D0166AF2BE168EF29ECE
:102740006DC093F06CC092F0956B1EC094F036ECA7
:1027500001F016BEF28E02C086F001C085F0025074
:102760006B5C3CE303E16A50855D38E281866DC0B5
:1027700085F0852B8507D8B40BD0166AF2BE168E6D
:10278000F29EFF0E946F23EC01F016BEF28EF2D78C
:10279000166AF2BE168EF29E6CC094F023EC01F025
:1027A00016BEF28E81966DC085F0852B8507D8B454
:1027B0000BD0166AF2BE168EF29EFF0E946F23ECBB
:1027C00001F016BEF28EF2D7166AF2BE168EF29E97
:1027D0006CC094F023EC01F016BEF28E1C500A0877
:1027E00005E11F50090802E398EC07F01E50140899
:1027F00002E1F0EC07F01A50320801E103D01C2A84
:102800001E2A3FD7C3D0010E1C6E1C500A08D8A048
:10281000BDD01CC01FF0166AF2BE168EF29E6DC0AF
:1028200093F06CC092F0956B1EC094F036EC01F002
:1028300016BEF28E02C086F001C085F002506B5CBD
:102840003FE303E185516A5C3BE3818681826DC091
:1028500085F0852B8507D8B40BD0166AF2BE168E8C
:10286000F29EFF0E946F23EC01F016BEF28EF2D7AB
:10287000166AF2BE168EF29E6CC094F023EC01F044
:1028800016BEF28E819281966DC085F0852B8507EC
:10289000D8B40BD0166AF2BE168EF29EFF0E946F5D
:1028A00023EC01F016BEF28EF2D7166AF2BE168E37
:1028B000F29E6CC094F023EC01F016BEF28E52D062
:1028C000166AF2BE168EF29E6DC093F06CC092F046
:1028D000956B1CC094F036EC01F016BEF28E02C06F
:1028E00086F001C085F00250675C3CE303E166506E
:1028F000855D38E281826DC085F0852B8507D8B46F
:102900000BD0166AF2BE168EF29EFF0E946F23EC69
:1029100001F016BEF28EF2D7166AF2BE168EF29E45
:102920006CC094F023EC01F016BEF28E81926DC063
:1029300085F0852B8507D8B40BD0166AF2BE168EAB
:10294000F29EFF0E946F23EC01F016BEF28EF2D7CA
:10295000166AF2BE168EF29E6CC094F023EC01F063
:1029600016BEF28E1C500A0802E198EC07F01E50C9
:10297000140805E12150130802E3F0EC07F01A50A7
:10298000320801E103D01E2A1C2A3FD71A50320810
:10299000D8A442D221500408D8A020D1010E1E6E26
:1029A0001E501408D8A019D11EC021F0166AF2BE1C
:1029B000168EF29E6DC093F06CC092F0956B1CC0A9
:1029C00094F036EC01F016BEF28E02C086F001C023
:1029D00085F00250675C41E303E16650855D3DE2AE
:1029E0008184818681826DC085F0852B8507D8B46E
:1029F0000BD0166AF2BE168EF29EFF0E946F23EC79
:102A000001F016BEF28EF2D7166AF2BE168EF29E54
:102A10006CC094F023EC01F016BEF28E8194819686
:102A200081926DC085F0852B8507D8B40BD0166ACE
:102A3000F2BE168EF29EFF0E946F23EC01F016BECE
:102A4000F28EF2D7166AF2BE168EF29E6CC094F029
:102A500023EC01F016BEF28EA7D0166AF2BE168ED7
:102A6000F29E6DC093F06CC092F0956B1DC094F017
:102A700036EC01F016BEF28E02C086F001C085F081
:102A80000250695C3FE303E16850855D3BE281866B
:102A900081846DC085F0852B8507D8B40BD0166A6C
:102AA000F2BE168EF29EFF0E946F23EC01F016BE5E
:102AB000F28EF2D7166AF2BE168EF29E6CC094F0B9
:102AC00023EC01F016BEF28E819681946DC085F0E4
:102AD000852B8507D8B40BD0166AF2BE168EF29EEF
:102AE000FF0E946F23EC01F016BEF28EF2D7166A39
:102AF000F2BE168EF29E6CC094F023EC01F016BE6E
:102B0000F28E52D0166AF2BE168EF29E6DC093F00F
:102B10006CC092F0956B1EC094F036EC01F016BEBE
:102B2000F28E02C086F001C085F002506B5C3CE37F
:102B300003E16A50855D38E281866DC085F0852BA2
:102B40008507D8B40BD0166AF2BE168EF29EFF0E21
:102B5000946F23EC01F016BEF28EF2D7166AF2BE25
:102B6000168EF29E6CC094F023EC01F016BEF28E2D
:102B700081966DC085F0852B8507D8B40BD0166A79
:102B8000F2BE168EF29EFF0E946F23EC01F016BE7D
:102B9000F28EF2D7166AF2BE168EF29E6CC094F0D8
:102BA00023EC01F016BEF28E1C500A0805E11F50FE
:102BB000090802E398EC07F01D50100805E12050C9
:102BC0000F0802E3C4EC07F01E50140802E1F0EC19
:102BD00007F01C2A1D2A1E2AE3D61ED1010E1D6EE7
:102BE0001D501008D8A018D11DC020F0166AF2BEE2
:102BF000168EF29E6DC093F06CC092F0956B1CC067
:102C000094F036EC01F016BEF28E02C086F001C0E0
:102C100085F00250675CD8A097D004E16650855DCE
:102C2000D8B092D0166AF2BE168EF29E6DC093F0A6
:102C30006CC092F0956B1EC094F036EC01F016BE9D
:102C4000F28E02C086F001C085F002506B5C41E359
:102C500003E16A50855D3DE28184818681826DC099
:102C600085F0852B8507D8B40BD0166AF2BE168E78
:102C7000F29EFF0E946F23EC01F016BEF28EF2D797
:102C8000166AF2BE168EF29E6CC094F023EC01F030
:102C900016BEF28E8194819681926DC085F0852B4F
:102CA0008507D8B40BD0166AF2BE168EF29EFF0EC0
:102CB000946F23EC01F016BEF28EF2D7166AF2BEC4
:102CC000168EF29E6CC094F023EC01F016BEF28ECC
:102CD0003AD0818481826DC085F0852B8507D8B478
:102CE0000BD0166AF2BE168EF29EFF0E946F23EC86
:102CF00001F016BEF28EF2D7166AF2BE168EF29E62
:102D00006CC094F023EC01F016BEF28E8194819297
:102D10006DC085F0852B8507D8B40BD0166AF2BE3E
:102D2000168EF29EFF0E946F23EC01F016BEF28E0B
:102D3000F2D7166AF2BE168EF29E6CC094F023ECA7
:102D400001F016BEF28E52D0166AF2BE168EF29EB8
:102D50006DC093F06CC092F0956B1DC094F036EC92
:102D600001F016BEF28E02C086F001C085F002505E
:102D7000695C3CE303E16850855D38E281846DC0A5
:102D800085F0852B8507D8B40BD0166AF2BE168E57
:102D9000F29EFF0E946F23EC01F016BEF28EF2D776
:102DA000166AF2BE168EF29E6CC094F023EC01F00F
:102DB00016BEF28E81946DC085F0852B8507D8B440
:102DC0000BD0166AF2BE168EF29EFF0E946F23ECA5
:102DD00001F016BEF28EF2D7166AF2BE168EF29E81
:102DE0006CC094F023EC01F016BEF28E1C500A0861
:102DF00005E11F50090802E398EC07F01D50100888
:102E000002E1C4EC07F01E50140802E1F0EC07F0F8
:102E10001C2A1E2A1D2AE4D66EEF1DF01A50320815
:102E2000D8A46EEF1DF021500408D8A058D3010E8D
:102E30001E6E1E501408D8A0BDD01EC021F0166A08
:102E4000F2BE168EF29E6DC093F06CC092F0956B40
:102E50001DC094F036EC01F016BEF28E02C086F072
:102E600001C085F00250695C3FE303E16850855D75
:102E70003BE2818681846DC085F0852B8507D8B4BF
:102E80000BD0166AF2BE168EF29EFF0E946F23ECE4
:102E900001F016BEF28EF2D7166AF2BE168EF29EC0
:102EA0006CC094F023EC01F016BEF28E81968194F2
:102EB0006DC085F0852B8507D8B40BD0166AF2BE9D
:102EC000168EF29EFF0E946F23EC01F016BEF28E6A
:102ED000F2D7166AF2BE168EF29E6CC094F023EC06
:102EE00001F016BEF28E52D0166AF2BE168EF29E17
:102EF0006DC093F06CC092F0956B1EC094F036ECF0
:102F000001F016BEF28E02C086F001C085F00250BC
:102F10006B5C3CE303E185516A5C38E381866DC0FC
:102F200085F0852B8507D8B40BD0166AF2BE168EB5
:102F3000F29EFF0E946F23EC01F016BEF28EF2D7D4
:102F4000166AF2BE168EF29E6CC094F023EC01F06D
:102F500016BEF28E81966DC085F0852B8507D8B49C
:102F60000BD0166AF2BE168EF29EFF0E946F23EC03
:102F700001F016BEF28EF2D7166AF2BE168EF29EDF
:102F80006CC094F023EC01F016BEF28E1D501008B8
:102F900005E120500F0802E3C4EC07F01E501408AE
:102FA00002E1F0EC07F01A50310801E103D01D2ACC
:102FB0001E2A3FD71A503108D8A490D221500A08AF
:102FC000D8A071D121C01EF01E501408D8A06AD11B
:102FD0001EC021F0166AF2BE168EF29E6DC093F0EE
:102FE0006CC092F0956B1CC094F036EC01F016BEEC
:102FF000F28E02C086F001C085F00250675CD8A056
:1030000097D004E18551665CD8A092D0166AF2BED2
:10301000168EF29E6DC093F06CC092F0956B1DC041
:1030200094F036EC01F016BEF28E02C086F001C0BC
:1030300085F00250695C41E303E18551685C3DE342
:103040008184818681826DC085F0852B8507D8B407
:103050000BD0166AF2BE168EF29EFF0E946F23EC12
:1030600001F016BEF28EF2D7166AF2BE168EF29EEE
:103070006CC094F023EC01F016BEF28E8194819620
:1030800081926DC085F0852B8507D8B40BD0166A68
:10309000F2BE168EF29EFF0E946F23EC01F016BE68
:1030A000F28EF2D7166AF2BE168EF29E6CC094F0C3
:1030B00023EC01F016BEF28E3AD0818681826DC07B
:1030C00085F0852B8507D8B40BD0166AF2BE168E14
:1030D000F29EFF0E946F23EC01F016BEF28EF2D733
:1030E000166AF2BE168EF29E6CC094F023EC01F0CC
:1030F00016BEF28E819681926DC085F0852B850774
:10310000D8B40BD0166AF2BE168EF29EFF0E946FE4
:1031100023EC01F016BEF28EF2D7166AF2BE168EBE
:10312000F29E6CC094F023EC01F016BEF28EA7D094
:10313000166AF2BE168EF29E6DC093F06CC092F0CD
:10314000956B1DC094F036EC01F016BEF28E02C0F5
:1031500086F001C085F00250695C3FE303E18551D0
:10316000685C3BE3818481866DC085F0852B850793
:10317000D8B40BD0166AF2BE168EF29EFF0E946F74
:1031800023EC01F016BEF28EF2D7166AF2BE168E4E
:10319000F29E6CC094F023EC01F016BEF28E819486
:1031A00081966DC085F0852B8507D8B40BD0166A43
:1031B000F2BE168EF29EFF0E946F23EC01F016BE47
:1031C000F28EF2D7166AF2BE168EF29E6CC094F0A2
:1031D00023EC01F016BEF28E52D0166AF2BE168EA5
:1031E000F29E6DC093F06CC092F0956B1EC094F08F
:1031F00036EC01F016BEF28E02C086F001C085F0FA
:1032000002506B5C3CE303E185516A5C38E38186E4
:103210006DC085F0852B8507D8B40BD0166AF2BE39
:10322000168EF29EFF0E946F23EC01F016BEF28E06
:10323000F2D7166AF2BE168EF29E6CC094F023ECA2
:1032400001F016BEF28E81966DC085F0852B850744
:10325000D8B40BD0166AF2BE168EF29EFF0E946F93
:1032600023EC01F016BEF28EF2D7166AF2BE168E6D
:10327000F29E6CC094F023EC01F016BEF28E1C504E
:103280000A0802E198EC07F01E50140802E1F0EC85
:1032900007F01D50100802E1C4EC07F01C2A1D2A9B
:1032A0001E2A92D61BD11FC01CF01C500A08D8A0A1
:1032B00015D11CC01FF0166AF2BE168EF29E6DC0AC
:1032C00093F06CC092F0956B1DC094F036EC01F059
:1032D00016BEF28E02C086F001C085F00250695C15
:1032E000D8A097D004E18551685CD8A092D0166A26
:1032F000F2BE168EF29E6DC093F06CC092F0956B8C
:103300001EC094F036EC01F016BEF28E02C086F0BC
:1033100001C085F002506B5C41E303E185516A5CBA
:103320003DE38184818681826DC085F0852B850790
:10333000D8B40BD0166AF2BE168EF29EFF0E946FB2
:1033400023EC01F016BEF28EF2D7166AF2BE168E8C
:10335000F29E6CC094F023EC01F016BEF28E8194C4
:10336000819681926DC085F0852B8507D8B40BD0EE
:10337000166AF2BE168EF29EFF0E946F23EC01F0D9
:1033800016BEF28EF2D7166AF2BE168EF29E6CC090
:1033900094F023EC01F016BEF28E3AD08184818243
:1033A0006DC085F0852B8507D8B40BD0166AF2BEA8
:1033B000168EF29EFF0E946F23EC01F016BEF28E75
:1033C000F2D7166AF2BE168EF29E6CC094F023EC11
:1033D00001F016BEF28E819481926DC085F0852B2E
:1033E0008507D8B40BD0166AF2BE168EF29EFF0E79
:1033F000946F23EC01F016BEF28EF2D7166AF2BE7D
:10340000168EF29E6CC094F023EC01F016BEF28E84
:1034100052D0166AF2BE168EF29E6DC093F06CC04A
:1034200092F0956B1CC094F036EC01F016BEF28E53
:1034300002C086F001C085F00250675C3CE303E106
:103440008551665C38E381826DC085F0852B8507E8
:10345000D8B40BD0166AF2BE168EF29EFF0E946F91
:1034600023EC01F016BEF28EF2D7166AF2BE168E6B
:10347000F29E6CC094F023EC01F016BEF28E8192A5
:103480006DC085F0852B8507D8B40BD0166AF2BEC7
:10349000168EF29EFF0E946F23EC01F016BEF28E94
:1034A000F2D7166AF2BE168EF29E6CC094F023EC30
:1034B00001F016BEF28E1C500A0802E198EC07F0EB
:1034C0001E50140802E1F0EC07F01D50100802E154
:1034D000C4EC07F01E2A1D2A1C2AE7D6FFD2010ED3
:1034E0001D6E1D501008D8A0BAD01DC020F0166A5D
:1034F000F2BE168EF29E6DC093F06CC092F0956B8A
:103500001EC094F036EC01F016BEF28E02C086F0BA
:1035100001C085F002506B5C3FE303E16A50855DBA
:103520003BE2818681846DC085F0852B8507D8B408
:103530000BD0166AF2BE168EF29EFF0E946F23EC2D
:1035400001F016BEF28EF2D7166AF2BE168EF29E09
:103550006CC094F023EC01F016BEF28E819681943B
:103560006DC085F0852B8507D8B40BD0166AF2BEE6
:10357000168EF29EFF0E946F23EC01F016BEF28EB3
:10358000F2D7166AF2BE168EF29E6CC094F023EC4F
:1035900001F016BEF28E52D0166AF2BE168EF29E60
:1035A0006DC093F06CC092F0956B1DC094F036EC3A
:1035B00001F016BEF28E02C086F001C085F0025006
:1035C000695C3CE303E18551685C38E381846DC04C
:1035D00085F0852B8507D8B40BD0166AF2BE168EFF
:1035E000F29EFF0E946F23EC01F016BEF28EF2D71E
:1035F000166AF2BE168EF29E6CC094F023EC01F0B7
:1036000016BEF28E81946DC085F0852B8507D8B4E7
:103610000BD0166AF2BE168EF29EFF0E946F23EC4C
:1036200001F016BEF28EF2D7166AF2BE168EF29E28
:103630006CC094F023EC01F016BEF28E1D50100801
:1036400002E1C4EC07F01E50140802E1F0EC07F0B0
:103650001A50310801E103D01E2A1D2A42D71A5000
:103660003108D8A43BD221500A08D8A01CD120C0D0
:103670001DF01D501008D8A015D11DC020F0166AED
:10368000F2BE168EF29E6DC093F06CC092F0956BF8
:103690001CC094F036EC01F016BEF28E02C086F02B
:1036A00001C085F00250675CD8A097D004E1855135
:1036B000665CD8A092D0166AF2BE168EF29E6DC0DD
:1036C00093F06CC092F0956B1EC094F036EC01F054
:1036D00016BEF28E02C086F001C085F002506B5C0F
:1036E00041E303E185516A5C3DE381848186818207
:1036F0006DC085F0852B8507D8B40BD0166AF2BE55
:10370000168EF29EFF0E946F23EC01F016BEF28E21
:10371000F2D7166AF2BE168EF29E6CC094F023ECBD
:1037200001F016BEF28E8194819681926DC085F073
:10373000852B8507D8B40BD0166AF2BE168EF29E82
:10374000FF0E946F23EC01F016BEF28EF2D7166ACC
:10375000F2BE168EF29E6CC094F023EC01F016BE01
:10376000F28E3AD0818481826DC085F0852B8507E9
:10377000D8B40BD0166AF2BE168EF29EFF0E946F6E
:1037800023EC01F016BEF28EF2D7166AF2BE168E48
:10379000F29E6CC094F023EC01F016BEF28E819480
:1037A00081926DC085F0852B8507D8B40BD0166A41
:1037B000F2BE168EF29EFF0E946F23EC01F016BE41
:1037C000F28EF2D7166AF2BE168EF29E6CC094F09C
:1037D00023EC01F016BEF28E52D0166AF2BE168E9F
:1037E000F29E6DC093F06CC092F0956B1DC094F08A
:1037F00036EC01F016BEF28E02C086F001C085F0F4
:103800000250695C3CE303E18551685C38E38184E4
:103810006DC085F0852B8507D8B40BD0166AF2BE33
:10382000168EF29EFF0E946F23EC01F016BEF28E00
:10383000F2D7166AF2BE168EF29E6CC094F023EC9C
:1038400001F016BEF28E81946DC085F0852B850740
:10385000D8B40BD0166AF2BE168EF29EFF0E946F8D
:1038600023EC01F016BEF28EF2D7166AF2BE168E67
:10387000F29E6CC094F023EC01F016BEF28E1C5048
:103880000A0802E198EC07F01E50140802E1F0EC7F
:1038900007F01D50100802E1C4EC07F01E2A1C2A94
:1038A0001D2AE7D61BD120C01DF01D501008D8A03E
:1038B00015D11DC020F0166AF2BE168EF29E6DC0A4
:1038C00093F06CC092F0956B1CC094F036EC01F054
:1038D00016BEF28E02C086F001C085F00250675C11
:1038E000D8A097D004E18551665CD8A092D0166A22
:1038F000F2BE168EF29E6DC093F06CC092F0956B86
:103900001EC094F036EC01F016BEF28E02C086F0B6
:1039100001C085F002506B5C41E303E185516A5CB4
:103920003DE38184818681826DC085F0852B85078A
:10393000D8B40BD0166AF2BE168EF29EFF0E946FAC
:1039400023EC01F016BEF28EF2D7166AF2BE168E86
:10395000F29E6CC094F023EC01F016BEF28E8194BE
:10396000819681926DC085F0852B8507D8B40BD0E8
:10397000166AF2BE168EF29EFF0E946F23EC01F0D3
:1039800016BEF28EF2D7166AF2BE168EF29E6CC08A
:1039900094F023EC01F016BEF28E3AD0818481823D
:1039A0006DC085F0852B8507D8B40BD0166AF2BEA2
:1039B000168EF29EFF0E946F23EC01F016BEF28E6F
:1039C000F2D7166AF2BE168EF29E6CC094F023EC0B
:1039D00001F016BEF28E819481926DC085F0852B28
:1039E0008507D8B40BD0166AF2BE168EF29EFF0E73
:1039F000946F23EC01F016BEF28EF2D7166AF2BE77
:103A0000168EF29E6CC094F023EC01F016BEF28E7E
:103A100052D0166AF2BE168EF29E6DC093F06CC044
:103A200092F0956B1DC094F036EC01F016BEF28E4C
:103A300002C086F001C085F00250695C3CE303E1FE
:103A40008551685C38E381846DC085F0852B8507DE
:103A5000D8B40BD0166AF2BE168EF29EFF0E946F8B
:103A600023EC01F016BEF28EF2D7166AF2BE168E65
:103A7000F29E6CC094F023EC01F016BEF28E81949D
:103A80006DC085F0852B8507D8B40BD0166AF2BEC1
:103A9000168EF29EFF0E946F23EC01F016BEF28E8E
:103AA000F2D7166AF2BE168EF29E6CC094F023EC2A
:103AB00001F016BEF28E1C500A0802E198EC07F0E5
:103AC0001E50140802E1F0EC07F01D50100802E14E
:103AD000C4EC07F01C2A1E2A1D2AE7D622EF1EF08E
:103AE000819228EF1EF081942EEF1EF0819634EF24
:103AF0001EF0F86AD09E078EEA6AE96A810EAF6E00
:103B0000A60EAC6E900EAB6E1C6A1D6A1E6A466AEB
:103B1000476A486A090E676EC40E666E0F0E696EBC
:103B2000A00E686E130E6B6E880E6A6E6D6AFA0ECA
:103B30006C6EC180C182C184C196830ED56ED76A76
:103B4000010ED66EC00EF212936A816A1B6A4BEFA9
:103B500007F0740EF66E0E0EF76E166AF2BE168E33
:103B6000F29EEFEC04F016BEF28E166AF2BE168ECE
:103B7000F29E640E946F23EC01F016BEF28E7A0E64
:103B8000F66E0E0EF76E166AF2BE168EF29EEFEC11
:103B900004F016BEF28E7C0EF66E0E0EF76E166AEE
:103BA000F2BE168EF29EEFEC04F016BEF28E166A8E
:103BB000F2BE168EF29E020E946F956FBCEC04F06E
:103BC00016BEF28E880EF66E0E0EF76E166AF2BEF6
:103BD000168EF29EEFEC04F016BEF28E166AF2BE5E
:103BE000168EF29E640E946F23EC01F016BEF28ED8
:103BF000819C706A010E766E020E7C6E1C6A1D6AD4
:103C00001E6A9D8AF28A1B2C30D0940EF66E0E0E20
:103C1000F76E166AF2BE168EF29EEFEC04F016BE38
:103C2000F28E1A50310803E11CEF08F00BD01A5045
:103C3000320803E177EF0DF005D01A50330802E1A6
:103C4000D0EF12F01A50610803E11C6A1F6A48D7CE
:103C50001A50620803E11D6A206A45D71A506308AA
:0E3C600003E11E6A216A42D71B6ACDD703001A
:020000040030CA
:0E00000000220E0E000181000FC00FE00F4025
:00000001FF
;PIC18F452
;CRC=3305  CREATED="06-nov-12 19:14"
