:04000000D1EF1DF02F
:08000800046ED8CF05F0E0CF33
:1000100006F00001E9CF0CF0EACF07F0E1CF08F0DD
:10002000E2CF09F0D9CF0AF0DACF0BF0F3CF12F01C
:10003000F4CF13F0FACF14F000C00EF001C00FF0AF
:1000400002C010F003C011F0F2AA2AEF00F0F2B4DF
:100050004AEF05F09DAA30EF00F09EBA0BEF01F0D9
:100060000EC000F00FC001F010C002F011C003F08C
:100070000CC0E9FF07C0EAFF078E08C0E1FF09C016
:10008000E2FF0AC0D9FF0BC0DAFF12C0F3FF13C0B2
:10009000F4FF14C0FAFF045006C0E0FF05C0D8FF0B
:1000A0001000F2CF0DF0F29EF76ABC0FF66E000E54
:1000B000F7220900F5500DBEF28E1200280C010641
:1000C000F76AD00FF66E000EF7220900F550120005
:1000D00070617369766F0000F76AE80FF66E000EC4
:1000E000F7220900F5501200656A65637574616E48
:1000F000646F0000F76A040FF66E010EF722090024
:10010000F550120066696E616C697A6F0000F76ADB
:100110001E0FF66E010EF7220900F55012006E6FE9
:10012000206861792070726F6365736F7300F76A7E
:100130003E0FF66E010EF7220900F5501200736FA4
:100140006C6F20656C2070726F6365736F20310077
:10015000F76A600FF66E010EF7220900F5501200E3
:1001600070726F6365736F732031207920320000E5
:10017000F76A800FF66E010EF7220900F5501200A3
:1001800070726F6365736F732031207920330000C4
:10019000F76AA00FF66E010EF7220900F550120063
:1001A000736F6C6F20656C2070726F6365736F2066
:1001B0003200F76AC20FF66E010EF7220900F55001
:1001C0001200736F6C6F20656C2070726F636573C3
:1001D0006F203300F76AE40FF66E010EF722090074
:1001E000F550120070726F6365736F73203220795F
:1001F00020330000F76A040FF66E020EF7220900A2
:10020000F550120070726F6365736F7320312C327A
:100210002079203300009EAAFED7AECF1AF0010E3F
:100220001B6E1A50760802E1010E466E1A507008D5
:1002300002E1010E476E1A50730802E1010E486E8A
:100240009E9A30EF00F0EA6AA90EE96EEF500DE0D9
:10025000060E016E006A002EFED7012EFBD77B0E24
:10026000006E002EFED7EF2EF3D7000CA751A90386
:10027000F3CF01F0F4CF00F0AA03F3500026A85109
:10028000A903F3500020026E000CA653D8A48CD012
:10029000A86B1CC0A7F06DC0AAF06CC0A9F0E6DF87
:1002A00002C0A8F001C0A7F0A75312E1A85310E1C3
:1002B000EA6A220EE96EF2CFA7F0F29E000E00DF8E
:1002C0000A000900F550EE6E0009FBE1A7BFF28EAF
:1002D0004A6A496A4F6AA86B1CC0A7F06DC0AAF0B1
:1002E0006CC0A9F0C3DF02C0A8F001C0A7F0A753FB
:1002F00002E1A85331E0A86B1CC0A7F06DC0AAF0C2
:100300006CC0A9F0B3DF02C0A8F001C0A7F0025092
:10031000675C22E303E16650A75D1EE2EA6A220EF3
:10032000E96EF2CFA7F0F29E000ED6DE0A000900B9
:10033000F550EE6E0009FBE1A7BFF28EA86B1CC062
:10034000A7F06DC0AAF06CC0A9F090DF02C04AF01F
:1003500001C049F0010E4F6EA86B1CC0A7F06DC024
:10036000AAF06CC0A9F082DF02C0A8F001C0A7F01B
:100370006750025C19E303E16650A75D15E3EA6A82
:10038000220EE96EF2CFA7F0F29E000EB3DE0A0055
:100390000900F550EE6E0009FBE1A7BFF28E67C0C1
:1003A0004AF066C049F04F6AA62D8CD0A86B1DC0DC
:1003B000A7F06DC0AAF06CC0A9F058DF02C0A8F089
:1003C00001C0A7F0A75312E1A85310E1EA6A2E0E6C
:1003D000E96EF2CFA7F0F29E000E72DE0A0009006D
:1003E000F550EE6E0009FBE1A7BFF28E4C6A4B6A36
:1003F000506AA86B1DC0A7F06DC0AAF06CC0A9F030
:1004000035DF02C0A8F001C0A7F0A75302E1A8534E
:1004100031E0A86B1DC0A7F06DC0AAF06CC0A9F0B8
:1004200025DF02C0A8F001C0A7F00250695C22E3FA
:1004300003E16850A75D1EE2EA6A2E0EE96EF2CF74
:10044000A7F0F29E000E48DE0A000900F550EE6E9D
:100450000009FBE1A7BFF28EA86B1DC0A7F06DC01D
:10046000AAF06CC0A9F002DF02C04CF001C04BF052
:10047000010E506EA86B1DC0A7F06DC0AAF06CC035
:10048000A9F0F4DE02C0A8F001C0A7F06950025C38
:1004900019E303E16850A75D15E3EA6A2E0EE96EE1
:1004A000F2CFA7F0F29E000E25DE0A000900F550FB
:1004B000EE6E0009FBE1A7BFF28E69C04CF068C088
:1004C0004BF0506AA6510208D8A48CD0A86B1EC06D
:1004D000A7F06DC0AAF06CC0A9F0C8DE02C0A8F0F9
:1004E00001C0A7F0A75312E1A85310E1EA6A3A0E3F
:1004F000E96EF2CFA7F0F29E000EE2DD0A000900DD
:10050000F550EE6E0009FBE1A7BFF28E4E6A4D6A10
:10051000516AA86B1EC0A7F06DC0AAF06CC0A9F00C
:10052000A5DE02C0A8F001C0A7F0A75302E1A853BE
:1005300031E0A86B1EC0A7F06DC0AAF06CC0A9F096
:1005400095DE02C0A8F001C0A7F002506B5C22E368
:1005500003E16A50A75D1EE2EA6A3A0EE96EF2CF45
:10056000A7F0F29E000EB8DD0A000900F550EE6E0D
:100570000009FBE1A7BFF28EA86B1EC0A7F06DC0FB
:10058000AAF06CC0A9F072DE02C04EF001C04DF0BE
:10059000010E516EA86B1EC0A7F06DC0AAF06CC012
:1005A000A9F064DE02C0A8F001C0A7F06B50025CA5
:1005B00019E303E16A50A75D15E3EA6A3A0EE96EB2
:1005C000F2CFA7F0F29E000E95DD0A000900F5506B
:1005D000EE6E0009FBE1A7BFF28E6BC04EF06AC061
:1005E0004DF0516A000C0900F5520DE0F6CFA6F06F
:1005F000F7CFA7F0F5509EA8FED7AD6EA6C0F6FFC8
:10060000A7C0F7FFF0D7000CA951016AA85D03E26B
:10061000A8C000F00CD0006A080EAA6FA8370036F8
:10062000A951005CD8B0006E0136AA2FF7D7000C94
:100630000150A6C0A8F0640EA96FE6DF00C0A6F0C6
:100640000150300E07E1A7A30DD0A7B70BD0A7B973
:10065000200E03D0A797A799A781012601509EA835
:10066000FED7AD6EA6C0A8F00A0EA96FCDDF00C000
:10067000A6F00150300E06E1A7B709D0A7A107D018
:10068000A7B9200E012601509EA8FED7AD6E300EF0
:10069000A627A6519EA8FED7AD6E000C0900F6CF86
:1006A000A7F0F7CFA8F0F5509EA8FED7AD6EA7C073
:1006B000F6FFA8C0F7FFA62FF1D7000CEACFAEF0E7
:1006C000E9CFADF0A739F009A96FA927E20FAA6F0A
:1006D000320FAC6FA7510F0BAA27AA27AC27E90F3F
:1006E000AB6FAB27AB27A6390F0BAB27AC27AB37CC
:1006F000AC37AC1FAC37A6510F0BAC27A937070E90
:10070000A86F0A0EAB07AC27FDE3AA07AB27FDE3F2
:10071000A907AA27FDE3A807A927FDE3EA6AA80E0F
:10072000E96E070EAD15AD9DE926AC0EE95CD8B4B7
:10073000AD8DEF50006E08E1ADBD06D0ADB90CD067
:10074000ADB702D0200E03D0AD87AD99300E002694
:1007500000509EA8FED7AD6EEE50ADADE6D7000CB2
:10076000EF5210E0EACFA7F0E9CFA6F0EF509EA835
:10077000FED7AD6EA7C0EAFFA6C0E9FFE92AD8B44C
:10078000EA2AEED7000CA65314E1A75312E1A853AE
:1007900010E1EA6A520EE96EF2CFA9F0F29E000E65
:1007A000B6DC0A000900F550EE6E0009FBE1A9BFB6
:1007B000F28EA62D14D0A75312E1A85310E1EA6AD5
:1007C000520EE96EF2CFA9F0F29E000EB0DC0A00E4
:1007D0000900F550EE6E0009FBE1A9BFF28EA62DCF
:1007E00014D0A72D12D0A85310E1EA6A520EE96E78
:1007F000F2CFA9F0F29E000EABDC0A000900F55022
:10080000EE6E0009FBE1A9BFF28EA62D14D0A7530E
:1008100012E1A82D10D0EA6A520EE96EF2CFA9F0CB
:10082000F29E000EA5DC0A000900F550EE6E0009EC
:10083000FBE1A9BFF28EA65314E1A72D12D0A85355
:1008400010E1EA6A520EE96EF2CFA9F0F29E000EB4
:100850009FDC0A000900F550EE6E0009FBE1A9BF1C
:10086000F28EA65314E1A75312E1A82D10D0EA6A24
:10087000520EE96EF2CFA9F0F29E000E9ADC0A0049
:100880000900F550EE6E0009FBE1A9BFF28EA653F8
:1008900014E1A72D12D0A82D10D0EA6A520EE96EED
:1008A000F2CFA9F0F29E000E95DC0A000900F55087
:1008B000EE6E0009FBE1A9BFF28EA62D14D0A72D84
:1008C00012D0A82D10D0EA6A520EE96EF2CFA9F02C
:1008D000F29E000E8FDC0A000900F550EE6E000952
:1008E000FBE1A9BFF28E84EF06F0B16B9588000E94
:1008F00083B8010EB113958A000E83BA010E006E03
:10090000D89000360050B113958C000E83BC010EB8
:10091000006E00360036FC0E00160050B113958EA6
:10092000000E83BE010E006E003600360036F80E53
:1009300000160050B113B1C001F0000C9588958AE3
:10094000958C958E8C82959200008C8495940000F5
:10095000CCDF01C0B0F08C94959400008C84959409
:1009600000D000D00000C1DF01C0AFF08C9495949E
:100970009598959A959C959EB039006EF00E00164C
:100980000050AF11016E000CB0B102D08C9801D0B4
:100990008C889598B0B302D08C9A01D08C8A959AA5
:1009A000B0B502D08C9C01D08C8C959CB0B702D095
:1009B0008C9E01D08C8E959E00008C849594030EA5
:1009C000006E002EFED78C949594000C8C90959020
:1009D000B5DF01C0AFF001BEFBD7AD5302E18C9093
:1009E00001D08C80959000008C92959200008C94A0
:1009F0009594AE39AF6F0F0EAF17AFC0B0F0C4DF34
:100A0000AE510F0BAF6FB06FBFDF000CAA2D01D03E
:100A100003D0400EAB6F01D0AB6B010EA95DAB27CD
:100A2000AB518009AC6FAD6BAE6FD0DF000CA8513D
:100A30000C0A05E0060A0CE0020A10E014D0AD6BC7
:100A4000010EAE6FC3DF020EA96F23EC01F011D0CF
:100A5000010EA96F020EAA6FD9DF0BD0AD6B100E7D
:100A6000AE6FB4DF06D0010EAD6FA8C0AEF0AEDF42
:100A700000D0000C0900F5520CE0F6CFA6F0F7CF3D
:100A8000A7F0F5CFA8F0D3DFA6C0F6FFA7C0F7FF09
:100A9000F1D7000C040E6C5CA66F000E6D58A76FAA
:100AA000A86FA82BA807D8B405D0FF0EA96F23EC18
:100AB00001F0F8D7A6C0A9F023EC01F0817C817089
:100AC0001A507608D8A42DD1462C2BD1FDCF17F083
:100AD000FECF18F0FFCF19F070C0A6F045EC01F082
:100AE00076C0A6F045EC01F07CC0A6F045EC01F024
:100AF0004AC075F049C074F04CC07BF04BC07AF02E
:100B00004EC081F04DC080F04B504924A66F4C5030
:100B10004A20A76F4D50A6256E6E4E50A7216F6ECE
:100B2000760EF66E0D0EF76E5EDD0D0E9EA8FED7EC
:100B3000AD6E0A0E9EA8FED7AD6E840EF66E0D0E3B
:100B4000F76E51DD0D0E9EA8FED7AD6E0A0E9EA863
:100B5000FED7AD6E70C0A6F0180EA76F69DDB90E96
:100B6000F66E0D0EF76E110EA66F98DD100EE96E83
:100B7000A76B640EA66FA2DDCD0EF66E0D0EF76E9E
:100B8000120EA66F8BDD100EE96E75C0A7F074C053
:100B9000A6F094DDE20EF66E0D0EF76E0C0EA66F4B
:100BA0007DDDEA6A220EE96EDBDD0D0E9EA8FED722
:100BB000AD6E0A0E9EA8FED7AD6E76C0A6F0180EDA
:100BC000A76F36DDF30EF66E0D0EF76E110EA66FE3
:100BD00065DD100EE96EA76BC80EA66F6FDD070E00
:100BE000F66E0E0EF76E120EA66F58DD100EE96E41
:100BF0007BC0A7F07AC0A6F061DD1C0EF66E0E0E6B
:100C0000F76E0C0EA66F4ADDEA6A2E0EE96EA8DDBD
:100C10000D0E9EA8FED7AD6E0A0E9EA8FED7AD6E35
:100C20007CC0A6F0180EA76F03DD2D0EF66E0E0E1B
:100C3000F76E110EA66F32DD100EE96E010EA76F72
:100C40002C0EA66F3BDD410EF66E0E0EF76E120EE9
:100C5000A66F24DD100EE96E81C0A7F080C0A6F05B
:100C60002DDD560EF66E0E0EF76E0C0EA66F16DD0F
:100C7000EA6A3A0EE96E74DD0D0E9EA8FED7AD6EDF
:100C80000A0E9EA8FED7AD6E640EF66E0E0EF76EBF
:100C9000AADC17C0A6F01B0EA76FCADC18C0A6F00E
:100CA0001B0EA76FC5DC19C0A6F01B0EA76FC0DC1A
:100CB000200E9EA8FED7AD6E820EF66E0E0EF76E5B
:100CC0000F0EA66FEBDC100EE96E6FC0A7F06EC0C2
:100CD000A6F0F4DC200E9EA8FED7AD6E200E9EA8D6
:100CE000FED7AD6E960EF66E0E0EF76E7CDC4FC024
:100CF00082F050C083F051C084F082C0A6F083C05F
:100D0000A7F084C0A8F03FD5EA6A520EE96E28DD4C
:100D10000D0E9EA8FED7AD6E0A0E9EA8FED7AD6E34
:100D2000466A1A50700803E1472C01D0476A1A50EE
:100D300073081BE1482C19D0AA0EF66E0E0EF76E42
:100D400099DEAC0EF66E0E0EF76E94DEBC0EF66EED
:100D50000E0EF76E48DC0D0E9EA8FED7AD6E0A0E85
:100D60009EA8FED7AD6E818A486AD76A010ED66EFC
:100D7000F29430EF00F07665722070726F636573E5
:100D80006F730000696420202020206469722D693F
:100D90006E6963696F2020202020202020202020E1
:100DA0007469656D706F2020202020202020206530
:100DB000737461646F00253175202020202020206D
:100DC00020202020202020202020254C752020209D
:100DD000202020202020202020202020202020250E
:100DE0004C752020202020202020202020200000C2
:100DF0002531752020202020202020202020202088
:100E000020202020254C752020202020202020205C
:100E1000202020202020202020254C75202020204C
:100E20002020202020202020000025317520202097
:100E30002020202020202020202020202020254C81
:100E4000752020202020202020202020202020204D
:100E5000202020254C75202020202020202020200C
:100E60002020000076616C6F722064656C207063D6
:100E7000206F2069645F636F727269656E746520AC
:100E8000200020206163756D756C61646F72203D78
:100E900020254C750000202D2D2D2D2020766572EB
:100EA00020636F6C61203A2020000C00736973741A
:100EB0002E6F7065722E2058414B00007369737459
:100EC000656D61206F706572617469766F2058413D
:100ED0004B000C0070726F6365736F20310070728D
:100EE0006F6365736F2031000C0070726F63657300
:100EF0006F20320070726F6365736F2032000C00D8
:100F000070726F6365736F20330070726F63657307
:100F10006F203300686F6C6100000C00636F6D70B0
:100F2000726162616E646F0070726F6365736F2EC1
:100F30002E2E00000C009598959A959C959E959460
:100F4000959095928C9095908C9295928C94959486
:100F5000166AF2BE168EF29E0F0EA96F23EC01F0F8
:100F600016BEF28E010E996F9951030815E3166AA9
:100F7000F2BE168EF29E030EB06F06DD16BEF28E26
:100F8000166AF2BE168EF29E050EA96F23EC01F0D2
:100F900016BEF28E992BE8D7166AF2BE168EF29E16
:100FA000020EB06FF1DC16BEF28E996B99510308F8
:100FB00015E3036A9951F2CF9AF0F29E51EC00F0DA
:100FC0009ABFF28E9A6F166AF2BE168EF29EAD6BC3
:100FD000AE6FFCDC16BEF28E992BE8D701EF1EF047
:100FE000D20EF66E0E0EF76E166AF2BE168EF29ED8
:100FF00041DD16BEF28ED40EF66E0E0EF76E166A38
:10100000F2BE168EF29E36DD16BEF28EDE0EF66E45
:101010000E0EF76E166AF2BE168EF29EF3EC02F01A
:1010200016BEF28E0D0E9EA8FED7AD6E0A0E9EA8BD
:10103000FED7AD6E8182000CE80EF66E0E0EF76ED6
:10104000166AF2BE168EF29E15DD16BEF28EEA0EFE
:10105000F66E0E0EF76E166AF2BE168EF29E0ADD60
:1010600016BEF28EF40EF66E0E0EF76E166AF2BE15
:10107000168EF29EF3EC02F016BEF28E0D0E9EA8B6
:10108000FED7AD6E0A0E9EA8FED7AD6E8184000C11
:10109000FE0EF66E0E0EF76E166AF2BE168EF29EFB
:1010A000E9DC16BEF28E000EF66E0F0EF76E166AB3
:1010B000F2BE168EF29EDEDC16BEF28E0A0EF66EC2
:1010C0000F0EF76E166AF2BE168EF29EF3EC02F069
:1010D00016BEF28E0D0E9EA8FED7AD6E0A0E9EA80D
:1010E000FED7AD6E8186000C010E1C6E1C500A08E6
:1010F00064E31CC01FF0166AF2BE168EF29E6DC02D
:10110000A8F06CC0A7F0AA6B1CC0A9F036EC01F0E7
:1011100016BEF28E02C09AF001C099F00250675CD0
:101120003DE303E16650995D39E281826DC099F03B
:10113000992B9907D8B40BD0166AF2BE168EF29E80
:10114000FF0EA96F23EC01F016BEF28EF2D7166ADD
:10115000F2BE168EF29E6CC0A9F023EC01F016BE12
:10116000F28E81926DC099F0992B9907D8B40BD06B
:10117000166AF2BE168EF29EFF0EA96F23EC01F0E6
:1011800016BEF28EF2D7166AF2BE168EF29E6CC0B2
:10119000A9F023EC01F016BEF28E01D021DF1A5027
:1011A000320801E10AD01A50330801E106D01A5082
:1011B000610801E102D01C2A99D71A503208D8A43C
:1011C000E3D1010E1D6E1D501008D8A0BCD01DC06B
:1011D00020F0166AF2BE168EF29E6DC0A8F06CC0AA
:1011E000A7F0AA6B1CC0A9F036EC01F016BEF28E77
:1011F00002C09AF001C099F00250675C3FE303E13E
:101200009951665C3BE3818481826DC099F0992B92
:101210009907D8B40BD0166AF2BE168EF29EFF0E56
:10122000A96F23EC01F016BEF28EF2D7166AF2BE59
:10123000168EF29E6CC0A9F023EC01F016BEF28E61
:10124000819281946DC099F0992B9907D8B40BD0F5
:10125000166AF2BE168EF29EFF0EA96F23EC01F005
:1012600016BEF28EF2D7166AF2BE168EF29E6CC0D1
:10127000A9F023EC01F016BEF28E52D0166AF2BE2F
:10128000168EF29E6DC0A8F06CC0A7F0AA6B1DC0B0
:10129000A9F036EC01F016BEF28E02C09AF001C041
:1012A00099F00250695C3CE303E16850995D38E2D3
:1012B00081846DC099F0992B9907D8B40BD0166A28
:1012C000F2BE168EF29EFF0EA96F23EC01F016BE41
:1012D000F28EF2D7166AF2BE168EF29E6CC0A9F09C
:1012E00023EC01F016BEF28E81946DC099F0992B1B
:1012F0009907D8B40BD0166AF2BE168EF29EFF0E76
:10130000A96F23EC01F016BEF28EF2D7166AF2BE78
:10131000168EF29E6CC0A9F023EC01F016BEF28E80
:101320001C500A0805E11F50090802E359DE04D0E9
:101330001D50100801E180DE1A50330801E103D08E
:101340001C2A1D2A40D71A503308D8A41CD1010EDC
:101350001E6E1E501408D8A016D11EC021F0166AA9
:10136000F2BE168EF29E6DC0A8F06CC0A7F0AA6BFC
:101370001CC0A9F036EC01F016BEF28E02C09AF045
:1013800001C099F00250675C41E303E16650995D4A
:101390003DE28186818481826DC099F0992B990705
:1013A000D8B40BD0166AF2BE168EF29EFF0EA96F4D
:1013B00023EC01F016BEF28EF2D7166AF2BE168E3C
:1013C000F29E6CC0A9F023EC01F016BEF28E81965D
:1013D000819281946DC099F0992B9907D8B40BD064
:1013E000166AF2BE168EF29EFF0EA96F23EC01F074
:1013F00016BEF28EF2D7166AF2BE168EF29E6CC040
:10140000A9F023EC01F016BEF28EA7D0166AF2BE48
:10141000168EF29E6DC0A8F06CC0A7F0AA6B1DC01E
:10142000A9F036EC01F016BEF28E02C09AF001C0AF
:1014300099F00250695C3FE303E16850995D3BE23B
:10144000818681846DC099F0992B9907D8B40BD00F
:10145000166AF2BE168EF29EFF0EA96F23EC01F003
:1014600016BEF28EF2D7166AF2BE168EF29E6CC0CF
:10147000A9F023EC01F016BEF28E819681946DC026
:1014800099F0992B9907D8B40BD0166AF2BE168E34
:10149000F29EFF0EA96F23EC01F016BEF28EF2D77A
:1014A000166AF2BE168EF29E6CC0A9F023EC01F013
:1014B00016BEF28E52D0166AF2BE168EF29E6DC025
:1014C000A8F06CC0A7F0AA6B1EC0A9F036EC01F022
:1014D00016BEF28E02C09AF001C099F002506B5C09
:1014E0003CE303E16A50995D38E281866DC099F072
:1014F000992B9907D8B40BD0166AF2BE168EF29EBD
:10150000FF0EA96F23EC01F016BEF28EF2D7166A19
:10151000F2BE168EF29E6CC0A9F023EC01F016BE4E
:10152000F28E81966DC099F0992B9907D8B40BD0A3
:10153000166AF2BE168EF29EFF0EA96F23EC01F022
:1015400016BEF28EF2D7166AF2BE168EF29E6CC0EE
:10155000A9F023EC01F016BEF28E1C500A0804E13B
:101560001F50090801E33CDD1D50100804E1205024
:101570000F0801E361DD1E50140801E189DD1C2A1A
:101580001D2A1E2AE6D609D31A503308D8A405D33B
:10159000010E1E6E1E501408D8A0BBD01EC021F034
:1015A000166AF2BE168EF29E6DC0A8F06CC0A7F04F
:1015B000AA6B1CC0A9F036EC01F016BEF28E02C078
:1015C0009AF001C099F00250675C3FE303E1665076
:1015D000995D3BE2818681826DC099F0992B9907D4
:1015E000D8B40BD0166AF2BE168EF29EFF0EA96F0B
:1015F00023EC01F016BEF28EF2D7166AF2BE168EFA
:10160000F29E6CC0A9F023EC01F016BEF28E81961A
:1016100081926DC099F0992B9907D8B40BD0166AB6
:10162000F2BE168EF29EFF0EA96F23EC01F016BEDD
:10163000F28EF2D7166AF2BE168EF29E6CC0A9F038
:1016400023EC01F016BEF28E52D0166AF2BE168E50
:10165000F29E6DC0A8F06CC0A7F0AA6B1EC0A9F0E6
:1016600036EC01F016BEF28E02C09AF001C099F07D
:1016700002506B5C3CE303E199516A5C38E381867C
:101680006DC099F0992B9907D8B40BD0166AF2BEA9
:10169000168EF29EFF0EA96F23EC01F016BEF28E9D
:1016A000F2D7166AF2BE168EF29E6CC0A9F023EC39
:1016B00001F016BEF28E81966DC099F0992B9907B4
:1016C000D8B40BD0166AF2BE168EF29EFF0EA96F2A
:1016D00023EC01F016BEF28EF2D7166AF2BE168E19
:1016E000F29E6CC0A9F023EC01F016BEF28E1C50E5
:1016F0000A0804E11F50090801E372DC1E501408B7
:1017000001E1C6DC1A50320801E103D01C2A1E2A6E
:1017100041D71A503208D8A440D221500408D8A08A
:101720001DD121C01EF01E501408D8A016D11EC015
:1017300021F0166AF2BE168EF29E6DC0A8F06CC043
:10174000A7F0AA6B1CC0A9F036EC01F016BEF28E11
:1017500002C09AF001C099F00250675C41E303E1D6
:101760009951665C3DE38184818681826DC099F0E8
:10177000992B9907D8B40BD0166AF2BE168EF29E3A
:10178000FF0EA96F23EC01F016BEF28EF2D7166A97
:10179000F2BE168EF29E6CC0A9F023EC01F016BECC
:1017A000F28E8194819681926DC099F0992B990760
:1017B000D8B40BD0166AF2BE168EF29EFF0EA96F39
:1017C00023EC01F016BEF28EF2D7166AF2BE168E28
:1017D000F29E6CC0A9F023EC01F016BEF28EA7D0E9
:1017E000166AF2BE168EF29E6DC0A8F06CC0A7F00D
:1017F000AA6B1DC0A9F036EC01F016BEF28E02C035
:101800009AF001C099F00250695C3FE303E19951FD
:10181000685C3BE3818481866DC099F0992B9907C0
:10182000D8B40BD0166AF2BE168EF29EFF0EA96FC8
:1018300023EC01F016BEF28EF2D7166AF2BE168EB7
:10184000F29E6CC0A9F023EC01F016BEF28E8194DA
:1018500081966DC099F0992B9907D8B40BD0166A70
:10186000F2BE168EF29EFF0EA96F23EC01F016BE9B
:10187000F28EF2D7166AF2BE168EF29E6CC0A9F0F6
:1018800023EC01F016BEF28E52D0166AF2BE168E0E
:10189000F29E6DC0A8F06CC0A7F0AA6B1EC0A9F0A4
:1018A00036EC01F016BEF28E02C09AF001C099F03B
:1018B00002506B5C3CE303E199516A5C38E381863A
:1018C0006DC099F0992B9907D8B40BD0166AF2BE67
:1018D000168EF29EFF0EA96F23EC01F016BEF28E5B
:1018E000F2D7166AF2BE168EF29E6CC0A9F023ECF7
:1018F00001F016BEF28E81966DC099F0992B990772
:10190000D8B40BD0166AF2BE168EF29EFF0EA96FE7
:1019100023EC01F016BEF28EF2D7166AF2BE168ED6
:10192000F29E6CC0A9F023EC01F016BEF28E1C50A2
:101930000A0805E11F50090802E3F0EC07F01E5009
:10194000140802E148EC08F01D50100802E11CECFC
:1019500008F01C2A1D2A1E2AE6D61FD1010E1D6E74
:101960001D501008D8A019D11DC020F0166AF2BE73
:10197000168EF29E6DC0A8F06CC0A7F0AA6B1CC0BA
:10198000A9F036EC01F016BEF28E02C09AF001C04A
:1019900099F00250675C41E303E19951665C3DE3D5
:1019A0008184818681826DC099F0992B9907D8B482
:1019B0000BD0166AF2BE168EF29EFF0EA96F23ECB4
:1019C00001F016BEF28EF2D7166AF2BE168EF29EA5
:1019D0006CC0A9F023EC01F016BEF28E81948196C2
:1019E00081926DC099F0992B9907D8B40BD0166AE3
:1019F000F2BE168EF29EFF0EA96F23EC01F016BE0A
:101A0000F28EF2D7166AF2BE168EF29E6CC0A9F064
:101A100023EC01F016BEF28EA7D0166AF2BE168E27
:101A2000F29E6DC0A8F06CC0A7F0AA6B1EC0A9F012
:101A300036EC01F016BEF28E02C09AF001C099F0A9
:101A400002506B5C3FE303E199516A5C3BE38184A4
:101A500081866DC099F0992B9907D8B40BD0166A7E
:101A6000F2BE168EF29EFF0EA96F23EC01F016BE99
:101A7000F28EF2D7166AF2BE168EF29E6CC0A9F0F4
:101A800023EC01F016BEF28E819481966DC099F020
:101A9000992B9907D8B40BD0166AF2BE168EF29E17
:101AA000FF0EA96F23EC01F016BEF28EF2D7166A74
:101AB000F2BE168EF29E6CC0A9F023EC01F016BEA9
:101AC000F28E52D0166AF2BE168EF29E6DC0A8F04B
:101AD0006CC0A7F0AA6B1DC0A9F036EC01F016BED1
:101AE000F28E02C09AF001C099F00250695C3CE3AA
:101AF00003E19951685C38E381846DC099F0992BBA
:101B00009907D8B40BD0166AF2BE168EF29EFF0E5D
:101B1000A96F23EC01F016BEF28EF2D7166AF2BE60
:101B2000168EF29E6CC0A9F023EC01F016BEF28E68
:101B300081946DC099F0992B9907D8B40BD0166A8F
:101B4000F2BE168EF29EFF0EA96F23EC01F016BEB8
:101B5000F28EF2D7166AF2BE168EF29E6CC0A9F013
:101B600023EC01F016BEF28E1C500A0805E11F504E
:101B7000090802E3F0EC07F01E50140805E12150BB
:101B8000130802E348EC08F01D50100802E11CECB9
:101B900008F01C2A1E2A1D2AE3D66EEF1EF0010E45
:101BA0001D6E1D50100861E31DC020F0166AF2BEC4
:101BB000168EF29E6DC0A8F06CC0A7F0AA6B1DC077
:101BC000A9F036EC01F016BEF28E02C09AF001C008
:101BD00099F00250695C3DE303E16850995D39E298
:101BE00081846DC099F0992B9907D8B40BD0166AEF
:101BF000F2BE168EF29EFF0EA96F23EC01F016BE08
:101C0000F28EF2D7166AF2BE168EF29E6CC0A9F062
:101C100023EC01F016BEF28E81946DC099F0992BE1
:101C20009907D8B40BD0166AF2BE168EF29EFF0E3C
:101C3000A96F23EC01F016BEF28EF2D7166AF2BE3F
:101C4000168EF29E6CC0A9F023EC01F016BEF28E47
:101C500002D01CEC08F01A50310801E106D01A50ED
:101C6000330801E102D01D2A9CD71A503108D8A4AC
:101C700009D320500608D8A0C4D020C01DF01D50A4
:101C80001008D8A0BDD01DC020F0166AF2BE168E76
:101C9000F29E6DC0A8F06CC0A7F0AA6B1CC0A9F0A2
:101CA00036EC01F016BEF28E02C09AF001C099F037
:101CB0000250675C3FE303E19951665C3BE381843A
:101CC00081826DC099F0992B9907D8B40BD0166A10
:101CD000F2BE168EF29EFF0EA96F23EC01F016BE27
:101CE000F28EF2D7166AF2BE168EF29E6CC0A9F082
:101CF00023EC01F016BEF28E819281946DC099F0B2
:101D0000992B9907D8B40BD0166AF2BE168EF29EA4
:101D1000FF0EA96F23EC01F016BEF28EF2D7166A01
:101D2000F2BE168EF29E6CC0A9F023EC01F016BE36
:101D3000F28E52D0166AF2BE168EF29E6DC0A8F0D8
:101D40006CC0A7F0AA6B1DC0A9F036EC01F016BE5E
:101D5000F28E02C09AF001C099F00250695C3CE337
:101D600003E16850995D38E281846DC099F0992B48
:101D70009907D8B40BD0166AF2BE168EF29EFF0EEB
:101D8000A96F23EC01F016BEF28EF2D7166AF2BEEE
:101D9000168EF29E6CC0A9F023EC01F016BEF28EF6
:101DA00081946DC099F0992B9907D8B40BD0166A1D
:101DB000F2BE168EF29EFF0EA96F23EC01F016BE46
:101DC000F28EF2D7166AF2BE168EF29E6CC0A9F0A1
:101DD00023EC01F016BEF28E1C500A0805E11F50DC
:101DE000090802E3F0EC07F01D50100802E11CECBA
:101DF00008F01A50330801E103D01C2A1D2A3FD7EE
:101E0000C6D0010E1C6E1C500A08D8A0C0D01CC041
:101E10001FF0166AF2BE168EF29E6DC0A8F06CC05E
:101E2000A7F0AA6B1DC0A9F036EC01F016BEF28E29
:101E300002C09AF001C099F00250695C3FE303E1EF
:101E40009951685C3BE3818481826DC099F0992B44
:101E50009907D8B40BD0166AF2BE168EF29EFF0E0A
:101E6000A96F23EC01F016BEF28EF2D7166AF2BE0D
:101E7000168EF29E6CC0A9F023EC01F016BEF28E15
:101E8000819281946DC099F0992B9907D8B40BD0A9
:101E9000166AF2BE168EF29EFF0EA96F23EC01F0B9
:101EA00016BEF28EF2D7166AF2BE168EF29E6CC085
:101EB000A9F023EC01F016BEF28E52D0166AF2BEE3
:101EC000168EF29E6DC0A8F06CC0A7F0AA6B1CC065
:101ED000A9F036EC01F016BEF28E02C09AF001C0F5
:101EE00099F00250675C3CE303E16650995D38E28B
:101EF00081826DC099F0992B9907D8B40BD0166ADE
:101F0000F2BE168EF29EFF0EA96F23EC01F016BEF4
:101F1000F28EF2D7166AF2BE168EF29E6CC0A9F04F
:101F200023EC01F016BEF28E81926DC099F0992BD0
:101F30009907D8B40BD0166AF2BE168EF29EFF0E29
:101F4000A96F23EC01F016BEF28EF2D7166AF2BE2C
:101F5000168EF29E6CC0A9F023EC01F016BEF28E34
:101F60001C500A0805E11F50090802E3F0EC07F0D5
:101F70001D50100805E120500F0802E31CEC08F08A
:101F80001A50330801E103D01D2A1C2A3CD71A50ED
:101F90003308D8A476D1010E1E6E1E501408D8A0A6
:101FA00070D11EC021F0166AF2BE168EF29E6DC070
:101FB000A8F06CC0A7F0AA6B1CC0A9F036EC01F029
:101FC00016BEF28E02C09AF001C099F00250675C12
:101FD000D8A097D004E16650995DD8B092D0166A27
:101FE000F2BE168EF29E6DC0A8F06CC0A7F0AA6B70
:101FF0001DC0A9F036EC01F016BEF28E02C09AF0B8
:1020000001C099F00250695C41E303E19951685CB9
:102010003DE38184818681826DC099F0992B990777
:10202000D8B40BD0166AF2BE168EF29EFF0EA96FC0
:1020300023EC01F016BEF28EF2D7166AF2BE168EAF
:10204000F29E6CC0A9F023EC01F016BEF28E8194D2
:10205000819681926DC099F0992B9907D8B40BD0D5
:10206000166AF2BE168EF29EFF0EA96F23EC01F0E7
:1020700016BEF28EF2D7166AF2BE168EF29E6CC0B3
:10208000A9F023EC01F016BEF28E3AD0818681824F
:102090006DC099F0992B9907D8B40BD0166AF2BE8F
:1020A000168EF29EFF0EA96F23EC01F016BEF28E83
:1020B000F2D7166AF2BE168EF29E6CC0A9F023EC1F
:1020C00001F016BEF28E819681926DC099F0992B27
:1020D0009907D8B40BD0166AF2BE168EF29EFF0E88
:1020E000A96F23EC01F016BEF28EF2D7166AF2BE8B
:1020F000168EF29E6CC0A9F023EC01F016BEF28E93
:10210000A7D0166AF2BE168EF29E6DC0A8F06CC003
:10211000A7F0AA6B1DC0A9F036EC01F016BEF28E36
:1021200002C09AF001C099F00250695C3FE303E1FC
:102130006850995D3BE2818681846DC099F0992B4E
:102140009907D8B40BD0166AF2BE168EF29EFF0E17
:10215000A96F23EC01F016BEF28EF2D7166AF2BE1A
:10216000168EF29E6CC0A9F023EC01F016BEF28E22
:10217000819681946DC099F0992B9907D8B40BD0B2
:10218000166AF2BE168EF29EFF0EA96F23EC01F0C6
:1021900016BEF28EF2D7166AF2BE168EF29E6CC092
:1021A000A9F023EC01F016BEF28E52D0166AF2BEF0
:1021B000168EF29E6DC0A8F06CC0A7F0AA6B1EC070
:1021C000A9F036EC01F016BEF28E02C09AF001C002
:1021D00099F002506B5C3CE303E16A50995D38E290
:1021E00081866DC099F0992B9907D8B40BD0166AE7
:1021F000F2BE168EF29EFF0EA96F23EC01F016BE02
:10220000F28EF2D7166AF2BE168EF29E6CC0A9F05C
:1022100023EC01F016BEF28E81966DC099F0992BD9
:102220009907D8B40BD0166AF2BE168EF29EFF0E36
:10223000A96F23EC01F016BEF28EF2D7166AF2BE39
:10224000168EF29E6CC0A9F023EC01F016BEF28E41
:102250001C500A0805E11F50090802E3F0EC07F0E2
:102260001D50100805E120500F0802E31CEC08F097
:102270001E50140802E148EC08F01C2A1D2A1E2AF0
:102280008CD6E4D11A503308D8A4E0D1010E1E6ECA
:102290001E501408D8A0BDD01EC021F0166AF2BE90
:1022A000168EF29E6DC0A8F06CC0A7F0AA6B1DC080
:1022B000A9F036EC01F016BEF28E02C09AF001C011
:1022C00099F00250695C3FE303E16850995D3BE29D
:1022D000818681846DC099F0992B9907D8B40BD071
:1022E000166AF2BE168EF29EFF0EA96F23EC01F065
:1022F00016BEF28EF2D7166AF2BE168EF29E6CC031
:10230000A9F023EC01F016BEF28E819681946DC087
:1023100099F0992B9907D8B40BD0166AF2BE168E95
:10232000F29EFF0EA96F23EC01F016BEF28EF2D7DB
:10233000166AF2BE168EF29E6CC0A9F023EC01F074
:1023400016BEF28E52D0166AF2BE168EF29E6DC086
:10235000A8F06CC0A7F0AA6B1EC0A9F036EC01F083
:1023600016BEF28E02C09AF001C099F002506B5C6A
:102370003CE303E199516A5C38E381866DC099F0D2
:10238000992B9907D8B40BD0166AF2BE168EF29E1E
:10239000FF0EA96F23EC01F016BEF28EF2D7166A7B
:1023A000F2BE168EF29E6CC0A9F023EC01F016BEB0
:1023B000F28E81966DC099F0992B9907D8B40BD005
:1023C000166AF2BE168EF29EFF0EA96F23EC01F084
:1023D00016BEF28EF2D7166AF2BE168EF29E6CC050
:1023E000A9F023EC01F016BEF28E1D50100805E195
:1023F00020500F0802E31CEC08F01E50140802E104
:1024000048EC08F01A50310801E103D01D2A1E2AB9
:102410003FD71A503108D8A419D121C01EF01E5040
:102420001408D8A013D11EC021F0166AF2BE168E71
:10243000F29E6DC0A8F06CC0A7F0AA6B1CC0A9F0FA
:1024400036EC01F016BEF28E02C09AF001C099F08F
:102450000250675C41E303E19951665C3DE381848E
:10246000818681826DC099F0992B9907D8B40BD0E1
:10247000166AF2BE168EF29EFF0EA96F23EC01F0D3
:1024800016BEF28EF2D7166AF2BE168EF29E6CC09F
:10249000A9F023EC01F016BEF28E81948196819210
:1024A0006DC099F0992B9907D8B40BD0166AF2BE7B
:1024B000168EF29EFF0EA96F23EC01F016BEF28E6F
:1024C000F2D7166AF2BE168EF29E6CC0A9F023EC0B
:1024D00001F016BEF28EA7D0166AF2BE168EF29EDC
:1024E0006DC0A8F06CC0A7F0AA6B1DC0A9F036ECB7
:1024F00001F016BEF28E02C09AF001C099F00250AF
:10250000695C3FE303E19951685C3BE38184818628
:102510006DC099F0992B9907D8B40BD0166AF2BE0A
:10252000168EF29EFF0EA96F23EC01F016BEF28EFE
:10253000F2D7166AF2BE168EF29E6CC0A9F023EC9A
:1025400001F016BEF28E819481966DC099F0992BA0
:102550009907D8B40BD0166AF2BE168EF29EFF0E03
:10256000A96F23EC01F016BEF28EF2D7166AF2BE06
:10257000168EF29E6CC0A9F023EC01F016BEF28E0E
:1025800052D0166AF2BE168EF29E6DC0A8F06CC0D4
:10259000A7F0AA6B1EC0A9F036EC01F016BEF28EB1
:1025A00002C09AF001C099F002506B5C3CE303E179
:1025B00099516A5C38E381866DC099F0992B99072F
:1025C000D8B40BD0166AF2BE168EF29EFF0EA96F1B
:1025D00023EC01F016BEF28EF2D7166AF2BE168E0A
:1025E000F29E6CC0A9F023EC01F016BEF28E81962B
:1025F0006DC099F0992B9907D8B40BD0166AF2BE2A
:10260000168EF29EFF0EA96F23EC01F016BEF28E1D
:10261000F2D7166AF2BE168EF29E6CC0A9F023ECB9
:1026200001F016BEF28E1C500A0802E1F0EC07F031
:102630001E50140802E148EC08F01D50100802E199
:102640001CEC08F01C2A1D2A1E2AE9D67AEF1EF07F
:10265000010E1E6E1D50140861E31EC021F0166AA3
:10266000F2BE168EF29E6DC0A8F06CC0A7F0AA6BE9
:102670001EC0A9F036EC01F016BEF28E02C09AF030
:1026800001C099F002506B5C3DE303E16A50995D33
:1026900039E281866DC099F0992B9907D8B40BD097
:1026A000166AF2BE168EF29EFF0EA96F23EC01F0A1
:1026B00016BEF28EF2D7166AF2BE168EF29E6CC06D
:1026C000A9F023EC01F016BEF28E81966DC099F050
:1026D000992B9907D8B40BD0166AF2BE168EF29ECB
:1026E000FF0EA96F23EC01F016BEF28EF2D7166A28
:1026F000F2BE168EF29E6CC0A9F023EC01F016BE5D
:10270000F28E02D048EC08F01A50310801E106D0F0
:102710001A50320801E102D01E2A9CD71A50310803
:10272000D8A466EF17F021500A08D8A0C4D021C061
:102730001EF01E501408D8A0BDD01EC021F0166A8D
:10274000F2BE168EF29E6DC0A8F06CC0A7F0AA6B08
:102750001CC0A9F036EC01F016BEF28E02C09AF051
:1027600001C099F00250675C3FE303E19951665C58
:102770003BE3818681826DC099F0992B9907D8B48B
:102780000BD0166AF2BE168EF29EFF0EA96F23ECD6
:1027900001F016BEF28EF2D7166AF2BE168EF29EC7
:1027A0006CC0A9F023EC01F016BEF28E81928196E6
:1027B0006DC099F0992B9907D8B40BD0166AF2BE68
:1027C000168EF29EFF0EA96F23EC01F016BEF28E5C
:1027D000F2D7166AF2BE168EF29E6CC0A9F023ECF8
:1027E00001F016BEF28E52D0166AF2BE168EF29E1E
:1027F0006DC0A8F06CC0A7F0AA6B1EC0A9F036ECA3
:1028000001F016BEF28E02C09AF001C099F002509B
:102810006B5C3CE303E16A50995D38E281866DC0F0
:1028200099F0992B9907D8B40BD0166AF2BE168E80
:10283000F29EFF0EA96F23EC01F016BEF28EF2D7C6
:10284000166AF2BE168EF29E6CC0A9F023EC01F05F
:1028500016BEF28E81966DC099F0992B9907D8B467
:102860000BD0166AF2BE168EF29EFF0EA96F23ECF5
:1028700001F016BEF28EF2D7166AF2BE168EF29EE6
:102880006CC0A9F023EC01F016BEF28E1C500A08B1
:1028900005E11F50090802E3F0EC07F01E50140890
:1028A00002E148EC08F01A50320801E103D01C2A7A
:1028B0001E2A3FD7C3D0010E1C6E1C500A08D8A098
:1028C000BDD01CC01FF0166AF2BE168EF29E6DC0FF
:1028D000A8F06CC0A7F0AA6B1EC0A9F036EC01F0FE
:1028E00016BEF28E02C09AF001C099F002506B5CE5
:1028F0003FE303E199516A5C3BE3818681826DC0CD
:1029000099F0992B9907D8B40BD0166AF2BE168E9F
:10291000F29EFF0EA96F23EC01F016BEF28EF2D7E5
:10292000166AF2BE168EF29E6CC0A9F023EC01F07E
:1029300016BEF28E819281966DC099F0992B9907FF
:10294000D8B40BD0166AF2BE168EF29EFF0EA96F97
:1029500023EC01F016BEF28EF2D7166AF2BE168E86
:10296000F29E6CC0A9F023EC01F016BEF28E52D09C
:10297000166AF2BE168EF29E6DC0A8F06CC0A7F06B
:10298000AA6B1CC0A9F036EC01F016BEF28E02C094
:102990009AF001C099F00250675C3CE303E1665095
:1029A000995D38E281826DC099F0992B9907D8B46E
:1029B0000BD0166AF2BE168EF29EFF0EA96F23ECA4
:1029C00001F016BEF28EF2D7166AF2BE168EF29E95
:1029D0006CC0A9F023EC01F016BEF28E81926DC09E
:1029E00099F0992B9907D8B40BD0166AF2BE168EBF
:1029F000F29EFF0EA96F23EC01F016BEF28EF2D705
:102A0000166AF2BE168EF29E6CC0A9F023EC01F09D
:102A100016BEF28E1C500A0802E1F0EC07F01E50C0
:102A2000140805E12150130802E348EC08F01A509D
:102A3000320801E103D01E2A1C2A3FD71A5032085F
:102A4000D8A442D221500408D8A020D1010E1E6E75
:102A50001E501408D8A019D11EC021F0166AF2BE6B
:102A6000168EF29E6DC0A8F06CC0A7F0AA6B1CC0B9
:102A7000A9F036EC01F016BEF28E02C09AF001C049
:102A800099F00250675C41E303E16650995D3DE2D5
:102A90008184818681826DC099F0992B9907D8B481
:102AA0000BD0166AF2BE168EF29EFF0EA96F23ECB3
:102AB00001F016BEF28EF2D7166AF2BE168EF29EA4
:102AC0006CC0A9F023EC01F016BEF28E81948196C1
:102AD00081926DC099F0992B9907D8B40BD0166AE2
:102AE000F2BE168EF29EFF0EA96F23EC01F016BE09
:102AF000F28EF2D7166AF2BE168EF29E6CC0A9F064
:102B000023EC01F016BEF28EA7D0166AF2BE168E26
:102B1000F29E6DC0A8F06CC0A7F0AA6B1DC0A9F012
:102B200036EC01F016BEF28E02C09AF001C099F0A8
:102B30000250695C3FE303E16850995D3BE28186A6
:102B400081846DC099F0992B9907D8B40BD0166A7F
:102B5000F2BE168EF29EFF0EA96F23EC01F016BE98
:102B6000F28EF2D7166AF2BE168EF29E6CC0A9F0F3
:102B700023EC01F016BEF28E819681946DC099F01F
:102B8000992B9907D8B40BD0166AF2BE168EF29E16
:102B9000FF0EA96F23EC01F016BEF28EF2D7166A73
:102BA000F2BE168EF29E6CC0A9F023EC01F016BEA8
:102BB000F28E52D0166AF2BE168EF29E6DC0A8F04A
:102BC0006CC0A7F0AA6B1EC0A9F036EC01F016BECF
:102BD000F28E02C09AF001C099F002506B5C3CE3A7
:102BE00003E16A50995D38E281866DC099F0992BB6
:102BF0009907D8B40BD0166AF2BE168EF29EFF0E5D
:102C0000A96F23EC01F016BEF28EF2D7166AF2BE5F
:102C1000168EF29E6CC0A9F023EC01F016BEF28E67
:102C200081966DC099F0992B9907D8B40BD0166A8C
:102C3000F2BE168EF29EFF0EA96F23EC01F016BEB7
:102C4000F28EF2D7166AF2BE168EF29E6CC0A9F012
:102C500023EC01F016BEF28E1C500A0805E11F504D
:102C6000090802E3F0EC07F01D50100805E12050C0
:102C70000F0802E31CEC08F01E50140802E148ECB7
:102C800008F01C2A1D2A1E2AE3D61ED1010E1D6E35
:102C90001D501008D8A018D11DC020F0166AF2BE31
:102CA000168EF29E6DC0A8F06CC0A7F0AA6B1CC077
:102CB000A9F036EC01F016BEF28E02C09AF001C007
:102CC00099F00250675CD8A097D004E16650995DF6
:102CD000D8B092D0166AF2BE168EF29E6DC0A8F0E1
:102CE0006CC0A7F0AA6B1EC0A9F036EC01F016BEAE
:102CF000F28E02C09AF001C099F002506B5C41E381
:102D000003E16A50995D3DE28184818681826DC0D4
:102D100099F0992B9907D8B40BD0166AF2BE168E8B
:102D2000F29EFF0EA96F23EC01F016BEF28EF2D7D1
:102D3000166AF2BE168EF29E6CC0A9F023EC01F06A
:102D400016BEF28E8194819681926DC099F0992B76
:102D50009907D8B40BD0166AF2BE168EF29EFF0EFB
:102D6000A96F23EC01F016BEF28EF2D7166AF2BEFE
:102D7000168EF29E6CC0A9F023EC01F016BEF28E06
:102D80003AD0818481826DC099F0992B9907D8B48B
:102D90000BD0166AF2BE168EF29EFF0EA96F23ECC0
:102DA00001F016BEF28EF2D7166AF2BE168EF29EB1
:102DB0006CC0A9F023EC01F016BEF28E81948192D2
:102DC0006DC099F0992B9907D8B40BD0166AF2BE52
:102DD000168EF29EFF0EA96F23EC01F016BEF28E46
:102DE000F2D7166AF2BE168EF29E6CC0A9F023ECE2
:102DF00001F016BEF28E52D0166AF2BE168EF29E08
:102E00006DC0A8F06CC0A7F0AA6B1DC0A9F036EC8D
:102E100001F016BEF28E02C09AF001C099F0025085
:102E2000695C3CE303E16850995D38E281846DC0E0
:102E300099F0992B9907D8B40BD0166AF2BE168E6A
:102E4000F29EFF0EA96F23EC01F016BEF28EF2D7B0
:102E5000166AF2BE168EF29E6CC0A9F023EC01F049
:102E600016BEF28E81946DC099F0992B9907D8B453
:102E70000BD0166AF2BE168EF29EFF0EA96F23ECDF
:102E800001F016BEF28EF2D7166AF2BE168EF29ED0
:102E90006CC0A9F023EC01F016BEF28E1C500A089B
:102EA00005E11F50090802E3F0EC07F01D5010087F
:102EB00002E11CEC08F01E50140802E148EC08F096
:102EC0001C2A1E2A1D2AE4D6C6EF1DF01A5032080D
:102ED000D8A4C6EF1DF021500408D8A058D3010E85
:102EE0001E6E1E501408D8A0BDD01EC021F0166A58
:102EF000F2BE168EF29E6DC0A8F06CC0A7F0AA6B51
:102F00001DC0A9F036EC01F016BEF28E02C09AF098
:102F100001C099F00250695C3FE303E16850995D9C
:102F20003BE2818681846DC099F0992B9907D8B4D2
:102F30000BD0166AF2BE168EF29EFF0EA96F23EC1E
:102F400001F016BEF28EF2D7166AF2BE168EF29E0F
:102F50006CC0A9F023EC01F016BEF28E819681942C
:102F60006DC099F0992B9907D8B40BD0166AF2BEB0
:102F7000168EF29EFF0EA96F23EC01F016BEF28EA4
:102F8000F2D7166AF2BE168EF29E6CC0A9F023EC40
:102F900001F016BEF28E52D0166AF2BE168EF29E66
:102FA0006DC0A8F06CC0A7F0AA6B1EC0A9F036ECEB
:102FB00001F016BEF28E02C09AF001C099F00250E4
:102FC0006B5C3CE303E199516A5C38E381866DC038
:102FD00099F0992B9907D8B40BD0166AF2BE168EC9
:102FE000F29EFF0EA96F23EC01F016BEF28EF2D70F
:102FF000166AF2BE168EF29E6CC0A9F023EC01F0A8
:1030000016BEF28E81966DC099F0992B9907D8B4AF
:103010000BD0166AF2BE168EF29EFF0EA96F23EC3D
:1030200001F016BEF28EF2D7166AF2BE168EF29E2E
:103030006CC0A9F023EC01F016BEF28E1D501008F2
:1030400005E120500F0802E31CEC08F01E501408A4
:1030500002E148EC08F01A50310801E103D01D2AC2
:103060001E2A3FD71A503108D8A490D221500A08FE
:10307000D8A071D121C01EF01E501408D8A06AD16A
:103080001EC021F0166AF2BE168EF29E6DC0A8F028
:103090006CC0A7F0AA6B1CC0A9F036EC01F016BEFC
:1030A000F28E02C09AF001C099F00250675CD8A07D
:1030B00097D004E19951665CD8A092D0166AF2BE0E
:1030C000168EF29E6DC0A8F06CC0A7F0AA6B1DC052
:1030D000A9F036EC01F016BEF28E02C09AF001C0E3
:1030E00099F00250695C41E303E19951685C3DE36A
:1030F0008184818681826DC099F0992B9907D8B41B
:103100000BD0166AF2BE168EF29EFF0EA96F23EC4C
:1031100001F016BEF28EF2D7166AF2BE168EF29E3D
:103120006CC0A9F023EC01F016BEF28E819481965A
:1031300081926DC099F0992B9907D8B40BD0166A7B
:10314000F2BE168EF29EFF0EA96F23EC01F016BEA2
:10315000F28EF2D7166AF2BE168EF29E6CC0A9F0FD
:1031600023EC01F016BEF28E3AD0818681826DC0CA
:1031700099F0992B9907D8B40BD0166AF2BE168E27
:10318000F29EFF0EA96F23EC01F016BEF28EF2D76D
:10319000166AF2BE168EF29E6CC0A9F023EC01F006
:1031A00016BEF28E819681926DC099F0992B990787
:1031B000D8B40BD0166AF2BE168EF29EFF0EA96F1F
:1031C00023EC01F016BEF28EF2D7166AF2BE168E0E
:1031D000F29E6CC0A9F023EC01F016BEF28EA7D0CF
:1031E000166AF2BE168EF29E6DC0A8F06CC0A7F0F3
:1031F000AA6B1DC0A9F036EC01F016BEF28E02C01B
:103200009AF001C099F00250695C3FE303E19951E3
:10321000685C3BE3818481866DC099F0992B9907A6
:10322000D8B40BD0166AF2BE168EF29EFF0EA96FAE
:1032300023EC01F016BEF28EF2D7166AF2BE168E9D
:10324000F29E6CC0A9F023EC01F016BEF28E8194C0
:1032500081966DC099F0992B9907D8B40BD0166A56
:10326000F2BE168EF29EFF0EA96F23EC01F016BE81
:10327000F28EF2D7166AF2BE168EF29E6CC0A9F0DC
:1032800023EC01F016BEF28E52D0166AF2BE168EF4
:10329000F29E6DC0A8F06CC0A7F0AA6B1EC0A9F08A
:1032A00036EC01F016BEF28E02C09AF001C099F021
:1032B00002506B5C3CE303E199516A5C38E3818620
:1032C0006DC099F0992B9907D8B40BD0166AF2BE4D
:1032D000168EF29EFF0EA96F23EC01F016BEF28E41
:1032E000F2D7166AF2BE168EF29E6CC0A9F023ECDD
:1032F00001F016BEF28E81966DC099F0992B990758
:10330000D8B40BD0166AF2BE168EF29EFF0EA96FCD
:1033100023EC01F016BEF28EF2D7166AF2BE168EBC
:10332000F29E6CC0A9F023EC01F016BEF28E1C5088
:103330000A0802E1F0EC07F01E50140802E148EC24
:1033400008F01D50100802E11CEC08F01C2A1D2A90
:103350001E2A92D61BD11FC01CF01C500A08D8A0F0
:1033600015D11CC01FF0166AF2BE168EF29E6DC0FB
:10337000A8F06CC0A7F0AA6B1DC0A9F036EC01F054
:1033800016BEF28E02C09AF001C099F00250695C3C
:10339000D8A097D004E19951685CD8A092D0166A61
:1033A000F2BE168EF29E6DC0A8F06CC0A7F0AA6B9C
:1033B0001EC0A9F036EC01F016BEF28E02C09AF0E3
:1033C00001C099F002506B5C41E303E199516A5CE2
:1033D0003DE38184818681826DC099F0992B9907A4
:1033E000D8B40BD0166AF2BE168EF29EFF0EA96FED
:1033F00023EC01F016BEF28EF2D7166AF2BE168EDC
:10340000F29E6CC0A9F023EC01F016BEF28E8194FE
:10341000819681926DC099F0992B9907D8B40BD001
:10342000166AF2BE168EF29EFF0EA96F23EC01F013
:1034300016BEF28EF2D7166AF2BE168EF29E6CC0DF
:10344000A9F023EC01F016BEF28E3AD0818481827D
:103450006DC099F0992B9907D8B40BD0166AF2BEBB
:10346000168EF29EFF0EA96F23EC01F016BEF28EAF
:10347000F2D7166AF2BE168EF29E6CC0A9F023EC4B
:1034800001F016BEF28E819481926DC099F0992B55
:103490009907D8B40BD0166AF2BE168EF29EFF0EB4
:1034A000A96F23EC01F016BEF28EF2D7166AF2BEB7
:1034B000168EF29E6CC0A9F023EC01F016BEF28EBF
:1034C00052D0166AF2BE168EF29E6DC0A8F06CC085
:1034D000A7F0AA6B1CC0A9F036EC01F016BEF28E64
:1034E00002C09AF001C099F00250675C3CE303E12E
:1034F0009951665C38E381826DC099F0992B9907E8
:10350000D8B40BD0166AF2BE168EF29EFF0EA96FCB
:1035100023EC01F016BEF28EF2D7166AF2BE168EBA
:10352000F29E6CC0A9F023EC01F016BEF28E8192DF
:103530006DC099F0992B9907D8B40BD0166AF2BEDA
:10354000168EF29EFF0EA96F23EC01F016BEF28ECE
:10355000F2D7166AF2BE168EF29E6CC0A9F023EC6A
:1035600001F016BEF28E1C500A0802E1F0EC07F0E2
:103570001E50140802E148EC08F01D50100802E14A
:103580001CEC08F01E2A1D2A1C2AE7D6FFD2010EC9
:103590001D6E1D501008D8A0BAD01DC020F0166AAC
:1035A000F2BE168EF29E6DC0A8F06CC0A7F0AA6B9A
:1035B0001EC0A9F036EC01F016BEF28E02C09AF0E1
:1035C00001C099F002506B5C3FE303E16A50995DE2
:1035D0003BE2818681846DC099F0992B9907D8B41C
:1035E0000BD0166AF2BE168EF29EFF0EA96F23EC68
:1035F00001F016BEF28EF2D7166AF2BE168EF29E59
:103600006CC0A9F023EC01F016BEF28E8196819475
:103610006DC099F0992B9907D8B40BD0166AF2BEF9
:10362000168EF29EFF0EA96F23EC01F016BEF28EED
:10363000F2D7166AF2BE168EF29E6CC0A9F023EC89
:1036400001F016BEF28E52D0166AF2BE168EF29EAF
:103650006DC0A8F06CC0A7F0AA6B1DC0A9F036EC35
:1036600001F016BEF28E02C09AF001C099F002502D
:10367000695C3CE303E19951685C38E381846DC087
:1036800099F0992B9907D8B40BD0166AF2BE168E12
:10369000F29EFF0EA96F23EC01F016BEF28EF2D758
:1036A000166AF2BE168EF29E6CC0A9F023EC01F0F1
:1036B00016BEF28E81946DC099F0992B9907D8B4FB
:1036C0000BD0166AF2BE168EF29EFF0EA96F23EC87
:1036D00001F016BEF28EF2D7166AF2BE168EF29E78
:1036E0006CC0A9F023EC01F016BEF28E1D5010083C
:1036F00002E11CEC08F01E50140802E148EC08F04E
:103700001A50310801E103D01E2A1D2A42D71A504F
:103710003108D8A43BD221500A08D8A01CD120C01F
:103720001DF01D501008D8A015D11DC020F0166A3C
:10373000F2BE168EF29E6DC0A8F06CC0A7F0AA6B08
:103740001CC0A9F036EC01F016BEF28E02C09AF051
:1037500001C099F00250675CD8A097D004E199515C
:10376000665CD8A092D0166AF2BE168EF29E6DC02C
:10377000A8F06CC0A7F0AA6B1EC0A9F036EC01F04F
:1037800016BEF28E02C09AF001C099F002506B5C36
:1037900041E303E199516A5C3DE381848186818242
:1037A0006DC099F0992B9907D8B40BD0166AF2BE68
:1037B000168EF29EFF0EA96F23EC01F016BEF28E5C
:1037C000F2D7166AF2BE168EF29E6CC0A9F023ECF8
:1037D00001F016BEF28E8194819681926DC099F0AF
:1037E000992B9907D8B40BD0166AF2BE168EF29EAA
:1037F000FF0EA96F23EC01F016BEF28EF2D7166A07
:10380000F2BE168EF29E6CC0A9F023EC01F016BE3B
:10381000F28E3AD0818481826DC099F0992B9907FC
:10382000D8B40BD0166AF2BE168EF29EFF0EA96FA8
:1038300023EC01F016BEF28EF2D7166AF2BE168E97
:10384000F29E6CC0A9F023EC01F016BEF28E8194BA
:1038500081926DC099F0992B9907D8B40BD0166A54
:10386000F2BE168EF29EFF0EA96F23EC01F016BE7B
:10387000F28EF2D7166AF2BE168EF29E6CC0A9F0D6
:1038800023EC01F016BEF28E52D0166AF2BE168EEE
:10389000F29E6DC0A8F06CC0A7F0AA6B1DC0A9F085
:1038A00036EC01F016BEF28E02C09AF001C099F01B
:1038B0000250695C3CE303E19951685C38E3818420
:1038C0006DC099F0992B9907D8B40BD0166AF2BE47
:1038D000168EF29EFF0EA96F23EC01F016BEF28E3B
:1038E000F2D7166AF2BE168EF29E6CC0A9F023ECD7
:1038F00001F016BEF28E81946DC099F0992B990754
:10390000D8B40BD0166AF2BE168EF29EFF0EA96FC7
:1039100023EC01F016BEF28EF2D7166AF2BE168EB6
:10392000F29E6CC0A9F023EC01F016BEF28E1C5082
:103930000A0802E1F0EC07F01E50140802E148EC1E
:1039400008F01D50100802E11CEC08F01E2A1C2A89
:103950001D2AE7D61BD120C01DF01D501008D8A08D
:1039600015D11DC020F0166AF2BE168EF29E6DC0F3
:10397000A8F06CC0A7F0AA6B1CC0A9F036EC01F04F
:1039800016BEF28E02C09AF001C099F00250675C38
:10399000D8A097D004E19951665CD8A092D0166A5D
:1039A000F2BE168EF29E6DC0A8F06CC0A7F0AA6B96
:1039B0001EC0A9F036EC01F016BEF28E02C09AF0DD
:1039C00001C099F002506B5C41E303E199516A5CDC
:1039D0003DE38184818681826DC099F0992B99079E
:1039E000D8B40BD0166AF2BE168EF29EFF0EA96FE7
:1039F00023EC01F016BEF28EF2D7166AF2BE168ED6
:103A0000F29E6CC0A9F023EC01F016BEF28E8194F8
:103A1000819681926DC099F0992B9907D8B40BD0FB
:103A2000166AF2BE168EF29EFF0EA96F23EC01F00D
:103A300016BEF28EF2D7166AF2BE168EF29E6CC0D9
:103A4000A9F023EC01F016BEF28E3AD08184818277
:103A50006DC099F0992B9907D8B40BD0166AF2BEB5
:103A6000168EF29EFF0EA96F23EC01F016BEF28EA9
:103A7000F2D7166AF2BE168EF29E6CC0A9F023EC45
:103A800001F016BEF28E819481926DC099F0992B4F
:103A90009907D8B40BD0166AF2BE168EF29EFF0EAE
:103AA000A96F23EC01F016BEF28EF2D7166AF2BEB1
:103AB000168EF29E6CC0A9F023EC01F016BEF28EB9
:103AC00052D0166AF2BE168EF29E6DC0A8F06CC07F
:103AD000A7F0AA6B1DC0A9F036EC01F016BEF28E5D
:103AE00002C09AF001C099F00250695C3CE303E126
:103AF0009951685C38E381846DC099F0992B9907DE
:103B0000D8B40BD0166AF2BE168EF29EFF0EA96FC5
:103B100023EC01F016BEF28EF2D7166AF2BE168EB4
:103B2000F29E6CC0A9F023EC01F016BEF28E8194D7
:103B30006DC099F0992B9907D8B40BD0166AF2BED4
:103B4000168EF29EFF0EA96F23EC01F016BEF28EC8
:103B5000F2D7166AF2BE168EF29E6CC0A9F023EC64
:103B600001F016BEF28E1C500A0802E1F0EC07F0DC
:103B70001E50140802E148EC08F01D50100802E144
:103B80001CEC08F01C2A1E2A1D2AE7D67AEF1EF02C
:103B9000819280EF1EF0819486EF1EF081968CEF6B
:103BA0001EF0F86AD09E078EEA6AE96A810EAF6E4F
:103BB000A60EAC6E900EAB6E1C6A1D6A1E6A466A3B
:103BC000476A486A090E676EC40E666E0F0E696E0C
:103BD000A00E686E130E6B6E880E6A6E6D6AFA0E1A
:103BE0006C6EC180C182C184C196830ED56ED76AC6
:103BF000010ED66EC00EF212936A816A1B6A9BEFA9
:103C000007F0140EF66E0F0EF76E166AF2BE168EE1
:103C1000F29E3AEC05F016BEF28E166AF2BE168ED1
:103C2000F29E640EA96F23EC01F016BEF28E1A0EFE
:103C3000F66E0F0EF76E166AF2BE168EF29E3AEC14
:103C400005F016BEF28E1C0EF66E0F0EF76E166A9B
:103C5000F2BE168EF29E3AEC05F016BEF28E166A91
:103C6000F2BE168EF29E020EA96FAA6F06EC05F048
:103C700016BEF28E280EF66E0F0EF76E166AF2BEA4
:103C8000168EF29E3AEC05F016BEF28E166AF2BE61
:103C9000168EF29E640EA96F23EC01F016BEF28E12
:103CA000819C706A010E766E020E7C6E1C6A1D6A23
:103CB0001E6A9D8AF28A1B2C30D0340EF66E0F0ECF
:103CC000F76E166AF2BE168EF29E3AEC05F016BE3C
:103CD000F28E1A50310803E174EF08F00BD01A503D
:103CE000320803E1CFEF0DF005D01A50330802E19E
:103CF00028EF13F01A50610803E11C6A1F6A48D7C5
:103D00001A50620803E11D6A206A45D71A506308F9
:0E3D100003E11E6A216A42D71B6ACDD7030069
:020000040030CA
:0E00000000210E0E000181000FC00FE00F4026
:00000001FF
;PIC18F452
;CRC=A1D5  CREATED="06-Nov-12 11:30"
