:1000000008308A0000280000FF00030E8301A100D1
:100010000A08A0008A010408A2007708A300780853
:10002000A4007908A5007A08A600831383128C30F7
:100030008400801E1D288C1A32288B1E21280B1943
:100040003528220884002308F7002408F800250832
:10005000F9002608FA0020088A00210E8300FF0E0E
:100060007F0E09008A110A1240288A110A125F289D
:100070000A108A100A11820728340C34013406341D
:100080008C1E40281A08A8000130A9008C128A1181
:100090000A1221284E3084008313000803195E28B9
:1000A0000130F800F701F70B5328F80B52284A30BB
:1000B000F700F70B59285C28800B50280800043003
:1000C0003B02CB003C08CC000030031C0130CC02CA
:1000D0004C08CD00CD0ACD0303197228FF30CE00A5
:1000E0004A206B284B08CE004A204030860601305B
:1000F000860681000B118A110A1221280C00703922
:10010000EF31E5396F1031007039EF31E5396F109B
:1001100031000C007039EF31E5396F103200703961
:10012000EF31E5396F1032000C007039EF31E539ED
:100130006F1033007039EF31E5396F1033000C0068
:100140007039EF31E5396F1034007039EF31E5392E
:100150006F103400E837EC3000010C00E3376D38E5
:10016000F230E2306E326F007039EF31E5396F17DF
:100170002E1700010C000C00F334733AAE37F03246
:100180007217202CC1250001F334733AE536611053
:100190006F386539613A693B6F10D8204B004818B9
:1001A000D3280812D4280816831608128312C818F8
:1001B000DB288812DC2888168316881283124819D7
:1001C000E3280813E4280817831608138312C819B4
:1001D000EB288813EC2888178316881300008312F5
:1001E000081583160811F4288312081183160811C4
:1001F00083120800C9018316081600308312081AFA
:100200000130C9048316881600308312881A013021
:10021000F7000310F70D7708C9048316081700309C
:100220008312081B0130F700F70DF70DFC30F705BE
:100230007708C9048316881700308312881B0130A1
:10024000F700F70DF70DF70DF830F7057708C9043B
:100250004908F800080008108316081008168816C8
:1002600008178817831288148316881000008312D9
:1002700008158316081100008312FA207808C800B8
:10028000081183160811000083120815831608113F
:1002900000008312FA207808C7000811831608119D
:1002A00008128812081388138312480EF700F030E2
:1002B000F70577084704F8007808C700C71F6229C8
:1002C00083162E29C508031D6729081068290814FC
:1002D000831608100000831288108316881000000F
:1002E00083120811831608118312460EC7000F30BF
:1002F000C7054708C800CF2046080F39C700C80007
:10030000CF200800831608128812081388130811DA
:1003100008108810831208108316081083128810A2
:100320008316881083120811831608118312A701FF
:100330008B1BA7178B130F30CE004A20A71B8B17E0
:100340000130BD003D08033C031CB4290330C80044
:10035000CF20A7018B1BA7178B130530CE004A2097
:10036000A71B8B17BD0AA2290230C800CF20BD01F0
:100370003D08033C031CC5293D083820BE00C501CB
:100380003E08C6002B21BD0AB8298A150A12472843
:10039000420BCB29CE294030C300CF29C301013005
:1003A0004102C30743088038C400C5014408C600A1
:1003B0002B21080040080C3A0319E529063A0319D5
:1003C000F329023A0319F929FE29C5010130C600B3
:1003D0002B21A7018B1BA7178B130230CE004A20BD
:1003E000A71B8B17042A0130C1000230C200C821AC
:1003F000042AC5011030C6002B21042A0130C50093
:100400004008C6002B21042A0800831603178C1706
:100410000C140000000083120C087F390319492ACC
:100420000313BD0003170D080313BE0003170F08C5
:100430000313BF003D08C000DA213E0803178D00FA
:1004400003133F0803178F0083168C170C1400004A
:10045000000083120C0D0E0D7F390319492A031376
:10046000BD0003170D080313BE0003170F08031385
:10047000BF003D08C000DA213E0803178D000313BA
:100480003F0803178F008D0A03198F0A0313052AEB
:100490000317031308001030C100F701FA01BE0C66
:1004A000BD0C031C592A3F08F7070318FA0A400835
:1004B000FA07FA0CF70CF90CF80CC10B4F2A0800DC
:1004C000831603178C170C140000000083120C080D
:1004D0007F390319A62A0313BD0003170D08031360
:1004E000BE0003170F080313BF003D080C1E762A39
:1004F00099003E0803178D0003133F0803178F0070
:1005000083168C170C140000000083120C0D0E0DC6
:100510007F390319A62A0313BD0003170D0803131F
:10052000BE0003170F080313BF003D080C1E962AD8
:1005300099003E0803178D0003133F0803178F002F
:100540008D0A03198F0A0313602A03170313080087
:100550007E3003178D0000308F00031305227F309B
:1005600003178D0000308F0003130522843003171A
:100570008D0000308F00031360220D300C1EBE2A48
:1005800099000A300C1EC22A99008614080089308E
:1005900003178D0000308F00031305228A300317E4
:1005A0008D0000308F00031305228F3003178D005C
:1005B00000308F00031360220D300C1EDD2A9900DD
:1005C0000A300C1EE12A9900061508009430031722
:1005D0008D0000308F0003130522953003178D0026
:1005E00000308F00031305229A3003178D0000306E
:1005F0008F00031360220D300C1EFC2A99000A3074
:100600000C1E002B9900861508009F3003178D00E3
:1006100000308F0003130522A03003178D00003037
:100620008F0003130522A53003178D0000308F00C3
:10063000031360220D300C1E1B2B99000A300C1E78
:080640001F2B990006160800AB
:10100000840183131F30830583160317871119305A
:1010100003139900A6309800903083129800AA011B
:10102000AB01AC01AD010330B400E830B3000730D0
:10103000B600D030B5000B30B800B830B7000F3074
:10104000BA00A030B900BC01FA30BB008316031708
:101050000908C039890003131F129F1200300317BB
:101060008800831287018801890183160313010810
:10107000C03903388100013083128100C0308B04F5
:101080008316860183128601A9018A1182298A1595
:10109000AA3003178D0000308F008A110313052238
:1010A0008A15A7018B1BA7178B136430CE008A11FA
:1010B0004A208A15A71B8B17AD3003178D0000300F
:1010C0008F008A11031305228A15AE3003178D0095
:1010D00000308F008A11031305228A150230C100E7
:1010E000C2008A11C8218A15B43003178D00003060
:1010F0008F008A11031305228A15A7018B1BA717DE
:101100008B136430CE008A114A208A15A71B8B17D7
:10111000061383168C1683128B16290B9C2EBA305D
:1011200003178D0000308F008A11031305228A15E2
:101130002808313C031D5E2E0130AA002A08043C19
:10114000031C0D292A08AF003C08BE003B08BD0067
:10115000C0012A08BF008A114B228A157908BE00F7
:101160007808BD003E083402031CF928031DBC2882
:1011700033083D020318F92886143C08BD00BD0A57
:10118000BD030319CF28A7018B1BA7178B13FF30B3
:10119000CE008A114A208A15A71B8B17C028A701E9
:1011A0008B1BA7178B133B08CE008A114A208A1588
:1011B000A71B8B1786103C08BD00BD0ABD03031991
:1011C000ED28A7018B1BA7178B13FF30CE008A11C8
:1011D0004A208A15A71B8B17DE28A7018B1BA71790
:1011E0008B133B08CE008A114A208A15A71B8B1748
:1011F000FC288A11A8228A152808323C031D0129DF
:101200000D292808333C031D06290D292808343CE4
:10121000031D0B290D29AA0A9E282808323C031D0C
:10122000BA2C0130AB002B08083C031CE4292B0826
:10123000B0003C08BE003B08BD00C0012A08BF004A
:101240008A114B228A157908BE007808BD003E0835
:101250003402031C7029031D31293D083302031C8D
:101260007029061586143C08BD00BD0ABD0303198C
:101270004529A7018B1BA7178B13FF30CE008A11BE
:101280004A208A15A71B8B173629A7018B1BA71786
:101290008B133B08CE008A114A208A15A71B8B1797
:1012A000861006113C08BD00BD0ABD030319642960
:1012B000A7018B1BA7178B13FF30CE008A114A2082
:1012C0008A15A71B8B175529A7018B1BA7178B13F3
:1012D0003B08CE008A114A208A15A71B8B17C42908
:1012E0003C08BE003B08BD00C0012B08BF008A11AE
:1012F0004B228A157908BE007808BD003E083602E8
:10130000031CC429031D882935083D020318C4297C
:1013100006153C08BD00BD0ABD0303199B29A701A2
:101320008B1BA7178B13FF30CE008A114A208A151A
:10133000A71B8B178C29A7018B1BA7178B133B08A7
:10134000CE008A114A208A15A71B8B1706113C086C
:10135000BD00BD0ABD030319B929A7018B1BA7173F
:101360008B13FF30CE008A114A208A15A71B8B17DA
:10137000AA29A7018B1BA7178B133B08CE008A1144
:101380004A208A15A71B8B172A08043C031DD02965
:101390002F08033C031CD0298A11A8228A15D729BB
:1013A0002B08083C031DD7298A11C7228A15280853
:1013B000333C031DDC29E4292808343C031DE129C2
:1013C000E429AA0AAB0A13292808333C031DBA2CC6
:1013D0000130AC002C080C3C031C1E2B2C08B10067
:1013E0003C08BE003B08BD00C0012A08BF008A11AE
:1013F0004B228A157908BE007808BD003E083402E9
:10140000031C492A031D082A33083D020318492AF0
:101410008615061586143C08BD00BD0ABD030319D8
:101420001D2AA7018B1BA7178B13FF30CE008A1133
:101430004A208A15A71B8B170E2AA7018B1BA717FB
:101440008B133B08CE008A114A208A15A71B8B17E5
:101450008615861006113C08BD00BD0ABD030319A0
:101460003D2AA7018B1BA7178B13FF30CE008A11D3
:101470004A208A15A71B8B172E2AA7018B1BA7179B
:101480008B133B08CE008A114A208A15A71B8B17A5
:10149000F42A3C08BE003B08BD00C0012B08BF0079
:1014A0008A114B228A157908BE007808BD003E08D3
:1014B0003602031CA02A031D612A35083D020318C9
:1014C000A02A861506153C08BD00BD0ABD030319F8
:1014D000752AA7018B1BA7178B13FF30CE008A112B
:1014E0004A208A15A71B8B17662AA7018B1BA717F3
:1014F0008B133B08CE008A114A208A15A71B8B1735
:10150000861106113C08BD00BD0ABD030319942ACB
:10151000A7018B1BA7178B13FF30CE008A114A201F
:101520008A15A71B8B17852AA7018B1BA7178B135F
:101530003B08CE008A114A208A15A71B8B17F42A74
:101540003C08BE003B08BD00C0012C08BF008A114A
:101550004B228A157908BE007808BD003E08380283
:10156000031CF42A031DB82A37083D020318F42A85
:1015700086153C08BD00BD0ABD030319CB2AA7018F
:101580008B1BA7178B13FF30CE008A114A208A15B8
:10159000A71B8B17BC2AA7018B1BA7178B133B0814
:1015A000CE008A114A208A15A71B8B1786113C088A
:1015B000BD00BD0ABD030319E92AA7018B1BA717AC
:1015C0008B13FF30CE008A114A208A15A71B8B1778
:1015D000DA2AA7018B1BA7178B133B08CE008A11B1
:1015E0004A208A15A71B8B172A08043C031DFF2AD3
:1015F0002F08033C031CFF2A8A11A8228A152B08F6
:10160000083C031D0A2B3008073C031C0A2B8A11D7
:10161000C7228A152C080C3C031D152B31080B3CE6
:10162000031C152B8A11E6228A152808343C031D59
:101630001A2B1E2BAA0AAB0AAC0AEA292808343C4A
:10164000031DBA2C0130AD002D08103C031CBA2C30
:101650002D08B2003C08BE003B08BD00C0012A08AE
:10166000BF008A114B228A157908BE007808BD0098
:101670003E083402031C852B031D422B33083D0218
:101680000318852B06168615061586143C08BD0022
:10169000BD0ABD030319582BA7018B1BA7178B137A
:1016A000FF30CE008A114A208A15A71B8B17492BC1
:1016B000A7018B1BA7178B133B08CE008A114A206A
:1016C0008A15A71B8B1706128615061186103C0873
:1016D000BD00BD0ABD030319792BA7018B1BA717FA
:1016E0008B13FF30CE008A114A208A15A71B8B1757
:1016F0006A2BA7018B1BA7178B133B08CE008A11FF
:101700004A208A15A71B8B17892C3C08BE003B0872
:10171000BD00C0012B08BF008A114B228A15790831
:10172000BE007808BD003E083602031CDE2B031DF8
:101730009D2B35083D020318DE2B0616861506156F
:101740003C08BD00BD0ABD030319B22BA7018B1BCA
:10175000A7178B13FF30CE008A114A208A15A71BCA
:101760008B17A32BA7018B1BA7178B133B08CE004E
:101770008A114A208A15A71B8B170612861106119B
:101780003C08BD00BD0ABD030319D22BA7018B1B6A
:10179000A7178B13FF30CE008A114A208A15A71B8A
:1017A0008B17C32BA7018B1BA7178B133B08CE00EE
:1017B0008A114A208A15A71B8B17892C3C08BE006A
:1017C0003B08BD00C0012C08BF008A114B228A15BE
:1017D0007908BE007808BD003E083802031C352C8D
:1017E000031DF62B37083D020318352C0616861507
:1017F0003C08BD00BD0ABD0303190A2CA7018B1BC1
:10180000A7178B13FF30CE008A114A208A15A71B19
:101810008B17FB2BA7018B1BA7178B133B08CE0045
:101820008A114A208A15A71B8B17061286113C08BD
:10183000BD00BD0ABD030319292CA7018B1BA717E7
:101840008B13FF30CE008A114A208A15A71B8B17F5
:101850001A2CA7018B1BA7178B133B08CE008A11EC
:101860004A208A15A71B8B17892C3C08BE003B0811
:10187000BD00C0012D08BF008A114B228A157908CE
:10188000BE007808BD003E083A02031C892C031DE7
:101890004D2C39083D020318892C06163C08BD0062
:1018A000BD0ABD030319602CA7018B1BA7178B135F
:1018B000FF30CE008A114A208A15A71B8B17512CA6
:1018C000A7018B1BA7178B133B08CE008A114A2058
:1018D0008A15A71B8B1706123C08BD00BD0ABD0365
:1018E00003197E2CA7018B1BA7178B13FF30CE008B
:1018F0008A114A208A15A71B8B176F2CA7018B1BF7
:10190000A7178B133B08CE008A114A208A15A71B04
:101910008B172A08043C031D942C2F08033C031C3E
:10192000942C8A11A8228A152B08083C031D9F2C91
:101930003008073C031C9F2C8A11C7228A152C08EB
:101940000C3C031DAA2C31080B3C031CAA2C8A1149
:10195000E6228A152D08103C031DB52C32080F3CD9
:10196000031CB52C8A1105238A15AA0AAB0AAC0AF6
:10197000AD0A242B2808333C031D8C2D0130AC000C
:101980002C080C3C031C8C2D2C08B1003C08BE001C
:101990003B08BD00C0012A08BF008A114B228A15EE
:1019A0007908BE007808BD003E083402031C1D2DD6
:1019B000031DDE2C33083D0203181D2D86158614E9
:1019C0003C08BD00BD0ABD030319F22CA7018B1B07
:1019D000A7178B13FF30CE008A114A208A15A71B48
:1019E0008B17E32CA7018B1BA7178B133B08CE008B
:1019F0008A114A208A15A71B8B17861186103C086E
:101A0000BD00BD0ABD030319112DA7018B1BA7172C
:101A10008B13FF30CE008A114A208A15A71B8B1723
:101A2000022DA7018B1BA7178B133B08CE008A1131
:101A30004A208A15A71B8B17712D3C08BE003B0856
:101A4000BD00C0012C08BF008A114B228A157908FD
:101A5000BE007808BD003E083802031C712D031D2E
:101A6000352D37083D020318712D86153C08BD0041
:101A7000BD0ABD030319482DA7018B1BA7178B13A4
:101A8000FF30CE008A114A208A15A71B8B17392DEB
:101A9000A7018B1BA7178B133B08CE008A114A2086
:101AA0008A15A71B8B1786113C08BD00BD0ABD0314
:101AB0000319662DA7018B1BA7178B13FF30CE00D0
:101AC0008A114A208A15A71B8B17572DA7018B1B3C
:101AD000A7178B133B08CE008A114A208A15A71B33
:101AE0008B172A08043C031D782D8A11A8228A1519
:101AF0002C080C3C031D7F2D8A11E6228A1528082C
:101B0000343C031D842D8C2D2808323C031D892D67
:101B10008C2DAA0AAC0AC02C2808343C031D5E2E6A
:101B20000130AD002D08103C031C5E2E2D08B200C4
:101B30003C08BE003B08BD00C0012A08BF008A1156
:101B40004B228A157908BE007808BD003E08340291
:101B5000031CEF2D031DB02D33083D020318EF2D9C
:101B6000061686143C08BD00BD0ABD030319C42D2A
:101B7000A7018B1BA7178B13FF30CE008A114A20B9
:101B80008A15A71B8B17B52DA7018B1BA7178B13C6
:101B90003B08CE008A114A208A15A71B8B17061214
:101BA00086103C08BD00BD0ABD030319E32DA70143
:101BB0008B1BA7178B13FF30CE008A114A208A1582
:101BC000A71B8B17D42DA7018B1BA7178B133B08C3
:101BD000CE008A114A208A15A71B8B17432E3C087A
:101BE000BE003B08BD00C0012D08BF008A114B227A
:101BF0008A157908BE007808BD003E083A02031C29
:101C0000432E031D072E39083D020318432E0616E6
:101C10003C08BD00BD0ABD0303191A2EA7018B1B8A
:101C2000A7178B13FF30CE008A114A208A15A71BF5
:101C30008B170B2EA7018B1BA7178B133B08CE000E
:101C40008A114A208A15A71B8B1706123C08BD0073
:101C5000BD0ABD030319382EA7018B1BA7178B13D1
:101C6000FF30CE008A114A208A15A71B8B17292E18
:101C7000A7018B1BA7178B133B08CE008A114A20A4
:101C80008A15A71B8B172A08043C031D4A2E8A11AC
:101C9000A8228A152D08103C031D512E8A110523F8
:101CA0008A152808333C031D562E5E2E2808323C28
:101CB000031D5B2E5E2EAA0AAD0A922D2808323C27
:101CC000031D652E8A11C7228A152808333C031D7F
:101CD0006C2E8A11E6228A152808343C031D732EC7
:101CE0008A1105238A152808733C031D9B2EBB30DF
:101CF00003178D0000308F008A11031305228A1507
:101D0000BC3003178D0000308F008A1103130522A9
:101D10008A15C43003178D0000308F008A11031319
:101D200060228A150D300C1E932E99000A300C1E6D
:0C1D3000972E99008616A9018D286300EB
:04400E00E12FFF3F60
:00000001FF
;PIC16F887
;CRC=98EA  CREATED="28-oct-12 21:18"
